:1000000002119902000A53EFFE323202001A53EF36
:10001000FD323202001253EFFB323202002253EF64
:10002000FE323202133E12003812122512004A80AC
:10003000FE900200E585F022C2AF2202128953EF42
:02004000FD328F
:0A00430002149953EFFB32D2AF22F2
:03005300020006A2
:03005B0002000E92
:0300630002001E7A
:0300830002001662
:03008B000214BBA1
:030093000212EB6B
:03009B0002003E22
:1000A300020046020467E86480F8E933E83360112C
:1000B3000460F0ED33EC337009E8FCE9FDEAFEEB94
:1000C300FF220460DED3EB9FEA9EE99DE8C2E78C42
:1000D300F0C2F795F0400CE8CCF8E9CDF9EACEFA96
:1000E300EBCFFB12043285D0F05804700320D5B354
:1000F300E80470075002B2D502047192D5EC046093
:10010300F7E4CCC0E0C398F8603B94186008400D56
:10011300D0E0FB020449E4FBFAC9FC8028E830E4A0
:1001230006E4C9FBE4CAFCE830E305E4C9CACBFC36
:10013300E854076010F8C3E913F9EA13FAEB13FB69
:10014300EC13FCD8F130F52FC3E49CFCEF9BFFEEDE
:100153009AFEED99FDD0E0FBEF4E4D4C701222DB81
:100163000302046EEC2CFCEF33FFEE33FEED33FDA4
:10017300ED30E7EB020449EF2BFFEE3AFEED39FDDC
:10018300D0E0FB50130BBB0003020471ED13FDEE33
:1001930013FEEF13FFEC13FC020449EC4D6011E86E
:1001A300497017ED33EC3304600DE4FCFFFEFD22D0
:1001B300E933E8330470F802046712043258046028
:1001C30009E4CC2481500628500902047128400315
:1001D30002046EC0E0EB4A7044B98006D0E0FB0233
:1001E300045DEF4E701CBD8008EBFFEAFEE9FD8065
:1001F300EBE98DF0A4FEE5F0020287E9CDF9EAFE12
:10020300EBFFEF89F0A4FCE5F0CE89F0A42EFFE428
:1002130035F0CD89F0A42DFEE435F08067EF4E7004
:1002230005BD80D780C3EF8BF0A4ACF0EE8BF0A4B8
:100233002CFCE435F0F8EF8AF0A42CE5F038FCE46C
:1002430033CB8DF0A42CFCE5F03BF8EE8AF0A42C24
:10025300FCE5F038F8E433CF89F0A42CFCE5F03862
:10026300CF3400CE89F0A42FFFE5F03EFEE433C97E
:100273008DF0A42EFEE5F039CD8AF0A42FFFE5F032
:100283003EFEE43DFD33D0E0FB50070BBB000F0205
:100293000471EC2CFCEF33FFEE33FEED33FD02046F
:1002A30049020471EC5D046005E85904700302041B
:1002B30067120432580460F6EC4860F2EC7004FDF7
:1002C300FEFF22C860DB2481C85009C39860025036
:1002D3000602046E9850CAF582E9294B4A7005ABB1
:1002E3008202045D75F0007C1A7880C3EF9BEE9A5E
:1002F300ED99400DC3EF9BFFEE9AFEED99FDE842A9
:10030300F0DC23ACF0D0E0FFD0E0FED0E0FDAB8228
:1003130020E7101BEB60BAEC2CFCEF33FFEE33FE4F
:10032300ED33FD020449E803F830E705C0F075F04A
:1003330000EF2FFFEE33FEED33FD40B830E7C28010
:10034300AA74F8CC6480CCC86480C8F58204604F7A
:10035300C3EB9FF5F0EA9E42F0E99D42F0E89C452D
:10036300F0603C501DE5825FFFE582D313CB5BCB8E
:10037300F42B5582FB50280ABA002409B90020083F
:10038300801DE5825BFBE582D313CF5FCFF4C313FC
:100393002F5582FF50090EBE00050DBD00010CC391
:1003A300EB9FF5F0EA9E42F0E99D42F0E89C45F0B0
:1003B3006007CC4820E701B3EC2275F020800E756E
:1003C300F010800575F0087D007E007F003392D524
:1003D30030D50312082CEC334010EF33FFEE33FE1D
:1003E300ED33FDEC33FCD5F0ED22E5F0247EA2D510
:1003F30013CC92E7CDCEFF22EDD2E7CD33EC33928F
:10040300D524814006E4FFFEFDFC22FCE4CFCECDE3
:10041300CC24E0501174FF80EDC3CC13CCCD13CDAD
:10042300CE13CECF13CF0470F030D5DE02082CE903
:10043300D2E7C933E833F892D5EDD2E7CD33EC33C5
:10044300FC5002B2D522EC30E7100FBF000C0EBEF9
:1004530000080DBD00040BEB6014A2D5EB13FCEDFB
:1004630092E7FD2274FFFCFDFEFF22E480F8A2D593
:1004730074FF13FC7D80E480EFE709F608DFFA8060
:1004830046E709F208DFFA803E88828C83E709F0A9
:10049300A3DFFA8032E309F608DFFA8078E309F292
:1004A30008DFFA807088828C83E309F0A3DFFA8087
:1004B3006489828A83E0A3F608DFFA805889828AF6
:1004C30083E0A3F208DFFA804C80D280FA80C680F2
:1004D300D4806980F28033801080A680EA809A807D
:1004E300A880DA80E280CA803389828A83ECFAE4C6
:1004F30093A3C8C582C8CCC583CCF0A3C8C582C8A2
:10050300CCC583CCDFE9DEE7800D89828A83E4935F
:10051300A3F608DFF9ECFAA9F0EDFB2289828A83BE
:10052300ECFAE0A3C8C582C8CCC583CCF0A3C8C588
:1005330082C8CCC583CCDFEADEE880DB89828A838C
:10054300E493A3F208DFF980CC88F0EF60010E4E4C
:1005530060C388F0ED2402B4040050B9F582EB24A3
:1005630002B4040050AF23234582239004CC73C20A
:10057300D530F707B2D563F0FF05F030E70CB2D5FD
:10058300F4048463F0FF05F080018430D502F404A1
:1005930022BB010689828A83E0225002E722BBFE46
:1005A30002E32289828A83E49322BB010CE5822938
:1005B300F582E5833AF583E0225006E92582F8E6E1
:1005C30022BBFE06E92582F8E222E58229F582E5CF
:1005D300833AF583E49322BB010689828A83F0225E
:1005E3005002F722BBFE01F322F8BB010DE582297D
:1005F300F582E5833AF583E8F0225006E92582C8BF
:10060300F622BBFE05E92582C8F222EF8DF0A4A8ED
:10061300F0CF8CF0A428CE8DF0A42EFE22BC000BCC
:10062300BE0029EF8DF084FFADF022E4CCF875F025
:1006330008EF2FFFEE33FEEC33FCEE9DEC98400504
:10064300FCEE9DFE0FD5F0E9E4CEFD22EDF8F5F0CA
:10065300EE8420D21CFEADF075F008EF2FFFED33D2
:10066300FD4007985006D5F0F222C398FD0FD5F050
:10067300EA22C2D5EC30E709B2D5E4C39DFDE49C80
:10068300FCEE30E715B2D5E4C39FFFE49EFE1206ED
:1006930020C3E49DFDE49CFC800312062030D507B3
:1006A300C3E49FFFE49EFE22C5F0F8A3E028F0C553
:1006B300F0F8E582158270021583E038F022A3F882
:1006C300E0C5F025F0F0E582158270021583E0C8DD
:1006D30038F0E822BB0110E58229F582E5833AF57B
:1006E30083E0F5F0A3E0225009E92582F886F008BB
:1006F300E622BBFE0AE92582F8E2F5F008E222E5EC
:10070300832AF583E993F5F0A3E99322E88FF0A414
:10071300CC8BF0A42CFCE98EF0A42CFC8AF0EDA485
:100723002CFCEA8EF0A4CDA8F08BF0A42DCC3825B8
:10073300F0FDE98FF0A42CCD35F0FCEB8EF0A4FE98
:10074300A9F0EB8FF0A4CFC5F02ECD39FEE43CFC2D
:10075300EAA42DCE35F0FDE43CFC2275F008758249
:1007630000EF2FFFEE33FECD33CDCC33CCC5823338
:10077300C5829BED9AEC99E58298400CF582EE9B3D
:10078300FEED9AFDEC99FC0FD5F0D6E4CEFBE4CD5B
:10079300FAE4CCF9A88222B800C1B90059BA002DF5
:1007A300EC8BF084CFCECDFCE5F0CBF97818EF2FAE
:1007B300FFEE33FEED33FDEC33FCEB33FB10D703DD
:1007C300994004EB99FB0FD8E5E4F9FA227818EF86
:1007D3002FFFEE33FEED33FDEC33FCC933C910D7E5
:1007E300059BE99A4007EC9BFCE99AF90FD8E0E4F2
:1007F300C9FAE4CCFB2275F010EF2FFFEE33FEEDC8
:1008030033FDCC33CCC833C810D7079BEC9AE89997
:10081300400AED9BFDEC9AFCE899F80FD5F0DAE479
:10082300CDFBE4CCFAE4C8F922C3E49FFFE49EFEC7
:10083300E49DFDE49CFC22EB9FF5F0EA9E42F0E987
:100843009D42F0EC6480C864809845F022EB9FF5EC
:10085300F0EA9E42F0E99D42F0E89C45F022E86010
:100863000FECC313FCED13FDEE13FEEF13FFD8F1F2
:1008730022BB010789828A830209345005E9F80201
:100883000928BBFE05E9F802094089828A83020927
:100893004CECF0A3EDF0A3EEF0A3EFF022A88285D9
:1008A30083F0D083D0821208B71208B71208B712A8
:1008B30008B7E473E493A3C583C5F0C583C8C582B1
:1008C300C8F0A3C583C5F0C583C8C582C822F5F0A7
:1008D300C582A4C582C5F0C583A42583F58322BB45
:1008E300010789828A830209655005E9F802095CD8
:1008F300BBFE05E9F802096E89828A83020977D073
:1009030083D082F8E4937012740193700DA3A393C0
:10091300F8740193F5828883E4737402936860EF3B
:10092300A3A3A380DFE6FC08E6FD08E6FE08E6FFD6
:1009330022E0FCA3E0FDA3E0FEA3E0FF22E2FC082B
:10094300E2FD08E2FE08E2FF22E493FC740193FD5A
:10095300740293FE740393FF22E6FB08E6FA08E6AB
:10096300F922E0FBA3E0FAA3E0F922E2FB08E2FAB2
:1009730008E2F922E493FB740193FA740293F922D7
:10098300EF54F0F9FB7A007062ED14601F146030CD
:1009930014604424037054EF540FFEF8740108806C
:1009A30002C333D8FCF452935294803FEF540FFEAA
:1009B300F87401088002C333D8FCFEF452938028F4
:1009C300EF540FFEF87401088002C333D8FCFE42D3
:1009D30093EEF452948014EF540FFEF874010880E0
:1009E30002C333D8FCFE4293EE4294EB64104A7088
:1009F30062ED14601F14603014604424037054EFDC
:100A0300540FFEF87401088002C333D8FCF45291EA
:100A13005292803FEF540FFEF87401088002C333F3
:100A2300D8FCFEF452918028EF540FFEF8740108AD
:100A33008002C333D8FCFE4291EEF452928014EF4D
:100A4300540FFEF87401088002C333D8FCFE4291B0
:100A5300EE4292E964207062ED14601F146030145A
:100A6300604424037054EF540FFEF87401088002AD
:100A7300C333D8FCF452955296803FEF540FFEF8DF
:100A83007401088002C333D8FCFEF452958028EF2A
:100A9300540FFEF87401088002C333D8FCFE42955C
:100AA300EEF452968014EF540FFEF874010880029E
:100AB300C333D8FCFE4295EE4296E9FB7A006430DC
:100AC3007062ED14601F146030146044240370548A
:100AD300EF540FFEF87401088002C333D8FCF452BC
:100AE300B152B2803FEF540FFEF87401088002C385
:100AF30033D8FCFEF452B18028EF540FFEF8740192
:100B0300088002C333D8FCFE42B1EEF452B2801423
:100B1300EF540FFEF87401088002C333D8FCFE4281
:100B2300B1EE42B2EB64404A7062ED14601F146090
:100B33003014604424037054EF540FFEF87401081A
:100B43008002C333D8FCF452B352B4803FEF540F46
:100B5300FEF87401088002C333D8FCFEF452B3805C
:100B630028EF540FFEF87401088002C333D8FCFE4B
:100B730042B3EEF452B48014EF540FFEF87401083C
:100B83008002C333D8FCFE42B3EE42B4E964507032
:100B930062ED14601F14603014604424037054EF3A
:100BA300540FFEF87401088002C333D8FCF452C911
:100BB30052CA803FEF540FFEF87401088002C3331A
:100BC300D8FCFEF452C98028EF540FFEF8740108D4
:100BD3008002C333D8FCFE42C9EEF452CA8014EF3C
:100BE300540FFEF87401088002C333D8FCFE42C9D7
:100BF300EE42CAE9FB7A0064607062ED14601F1470
:100C0300603014604424037054EF540FFEF87401F1
:100C1300088002C333D8FCF452CB52CC803FEF544C
:100C23000FFEF87401088002C333D8FCFEF452CBE4
:100C33008028EF540FFEF87401088002C333D8FCF8
:100C4300FE42CBEEF452CC8014EF540FFEF8740145
:100C5300088002C333D8FCFE42CBEE42CCEB647077
:100C63004A7060ED14601E14602F146042240370F8
:100C730052EF540FFEF87401088002C333D8FCF41A
:100C830052E152E222EF540FFEF87401088002C3CE
:100C930033D8FCFEF452E18027EF540FFEF87401C1
:100CA300088002C333D8FCFE42E1EEF452E222EFA5
:100CB300540FFEF87401088002C333D8FCFE42E1EE
:100CC300EE42E2229001F6EFF0A3EDF0A3EBF0A3E6
:100CD300E0F8A3E0F9A3E0FAA3E0FB900212E0FC42
:100CE300A3E0FDA3E0FEA3E0FF12079AE47B04FA6E
:100CF300F9F812079AC3E49FFFE49E9001FEF0A364
:100D0300EFF09001F6E0147003020DCA14700302B1
:100D13000E1D147003020E8D24036003020F039053
:100D230001FDE0FD7C0064017019439850A3E0FECF
:100D3300A3E0F58BEEF58D438E40D28EE49001CA8D
:100D4300F08018ED64024C70124398509001FEE05D
:100D5300FEA3E0F5D7EEF5D6438E1553A23F9001DF
:100D6300F7E0700FA3E0640170097D017F31120980
:100D730083804C9001F7E064027012A3E064037077
:100D83000C7D017F3712098343A24080329001F723
:100D9300E064047012A3E06405700C7D017F1712F8
:100DA300098343A28080189001F7E064067010A3C2
:100DB300E06407700A7D017F4412098343A2C0E403
:100DC3009001CAF0D2AC229001FDE064027010439E
:100DD3009A10A3E0FEA3E0F5D7EEF5D6438E1453A5
:100DE300BAFE9001F7E06408700FA3E0640970098C
:100DF3007D017F1112098380189001F7E0640A7066
:100E030010A3E0640B700A7D017F4212098343BA89
:100E13000143AF01E49001CBF0229001FDE0FD7CA2
:100E2300006402701243AC10A3E0FEA3E0F5D7EE1A
:100E3300F5D6438E148018ED64034C701243AC5006
:100E43009001FEE0FEA3E0F5D5EEF5D443D10A53BD
:100E5300BAFD9001F7E0640C700FA3E0640D700914
:100E63007D017F0112098380189001F7E0640E7001
:100E730010A3E0640F700A7D017F5112098343BA06
:100E83000243AF08E49001CCF0229001FDE0FD7C29
:100E93000064027012438410A3E0FEA3E0F5D7EED2
:100EA300F5D6438E148018ED64044C7012438450BD
:100EB3009001FEE0FEA3E0F5D3EEF5D243D1A053BB
:100EC300BAFB9001F7E06410700FA3E0641170099E
:100ED3007D017F03120983801F9001F7E064127084
:100EE30017A3E0641370117D017F531209837D0200
:100EF3007F5212098343BA0443AF10E49001CDF04B
:100F03002243BA8078FBE6FBAF9FC3EF9BFFE494D9
:100F130000FEE49400FDE49400FCE47BF07AD2F953
:100F2300F812070FE42FFFEE3436FEED346EFDECBE
:100F33003401FC9001F61208949001F6E0FCA3E062
:100F4300FDA3E0FEA3E0FFC00790FE01E0FBE4FA8F
:100F5300F9F8D00712079A9001F61208947FC07E21
:100F6300F67D577C009001F6E0F8A3E0F9A3E0FAE0
:100F7300A3E0FBC312085050097F007E607D547CC0
:100F830000227FC07E267D827C009001F6E0F8A3DC
:100F9300E0F9A3E0FAA3E0FBC312085050097F80F5
:100FA3007E8D7D5B7C00227F807EED7DAF7C00901B
:100FB30001F6E0F8A3E0F9A3E0FAA3E0FBC312080B
:100FC3005050097F007EC07DA87C00227F807E2D4B
:100FD3007DE87C009001F6E0F8A3E0F9A3E0FAA332
:100FE300E0FBC312085050097F007E1B7DB77C00D5
:100FF300227F807E367D257C019001F6E0F8A3E018
:10100300F9A3E0FAA3E0FBC312085050097F007E66
:10101300407D197C01227F807E567D417C019001B9
:10102300F6E0F8A3E0F9A3E0FAA3E0FBC31208504B
:1010330050097F007E2D7D317C01227F007EDB7D88
:101043005F7C019001F6E0F8A3E0F9A3E0FAA3E0E6
:10105300FBC312085050097F007E807D517C012222
:101063007F607E197D857C019001F6E0F8A3E0F9AD
:10107300A3E0FAA3E0FBC312085050097F007E36B9
:101083007D6E7C01227F207EE07DB27C019001F6A3
:10109300E0F8A3E0F9A3E0FAA3E0FBC31208505081
:1010A300097FC07EFC7D9B7C01227FE07EA67DE0E4
:1010B3007C019001F6E0F8A3E0F9A3E0FAA3E0FBDA
:1010C300C312085050097F807EC37DC97C01227FF3
:1010D300607E2B7DFF7C019001F6E0F8A3E0F9A38D
:1010E300E0FAA3E0FBC312085050097F007E407D65
:1010F300FA7C01227FC07E0E7D167C0222AD07EDB5
:10110300FB7A0070209001D6E0FEA3E0F5EAEEF54D
:10111300FA9001CEE0FEA3E0FF9001D7E02FF0901C
:1011230001D6E03EF0EB64014A70209001D8E0FE66
:10113300A3E0F5EBEEF5FB9001D0E0FEA3E0FF901A
:1011430001D9E02FF09001D8E03EF0ED6402702069
:101153009001DAE0FEA3E0F5ECEEF5FC9001D2E0BD
:10116300FEA3E0FF9001DBE02FF09001DAE03EF018
:10117300ED640370209001DCE0FEA3E0F5EDEEF5F5
:10118300FD9001D4E0FEA3E0FF9001DDE02FF0909D
:1011930001DCE03EF022787FE4F6D8FD758107029A
:1011A30011E0020026E493A3F8E493A34003F6803E
:1011B30001F208DFF48029E493A3F85407240CC850
:1011C300C333C4540F4420C8834004F456800146FB
:1011D300F6DFE4800B0102040810204080901472B3
:1011E300E47E019360BCA3FF543F30E509541FFE26
:1011F300E493A360010ECF54C025E060A840B8E497
:1012030093A3FAE493A3F8E493A3C8C582C8CAC519
:1012130083CAF0A3C8C582C8CAC583CADFE9DEE7AB
:1012230080BE120F04900212120894E4F594F59311
:10123300F592F591F596F595F5B2F5B1F5B4F5B3EB
:10124300F5CAF5C9F5CCF5CBF5E2F5E1F5D8F5D955
:10125300F5DEF58EF598F59AF5ACF584F5A2F5BAB9
:10126300F5AFF589F5E9F5F943BA80121449900110
:10127300F91208A00001C2009001FD7402F07B0185
:10128300E4FDFF020CC7C0E0C0F0C083C082C0D041
:1012930075D000C000C001C002C003C004C005C0B7
:1012A30006C00730D80B53D8FEE4FF121100121307
:1012B3008D30D90853D8FD7F0112110030DA08535D
:1012C300D8FB7F0212110030DB0353D8F7D007D0CD
:1012D30006D005D004D003D002D001D000D0D0D0A6
:1012E30082D083D0F0D0E032C0E0C0F0C083C082AF
:1012F300C0D075D000C000C001C002C003C004C08C
:1013030005C006C007E58430E1085384FD9001CD94
:10131300E4F0E58430E0095384FE12003112003119
:10132300D007D006D005D004D003D002D001D0001E
:10133300D0D0D082D083D0F0D0E032C0E0C083C020
:1013430082C0D075D000C007E59830E1085398FDFE
:101353009001CAE4F0E59830E0255398FEAF99EF89
:10136300647F7016900219E0FF04F0D3EF941474B5
:10137300809480400A75C7608005900219E4F0D01C
:1013830007D0D0D082D083D0E032E4900201F0D2F3
:10139300C8C2C9C2C8D2C9D2C8C2C9F0900201E04A
:1013A300C39480748094805027C2C8E4FD7F0312E5
:1013B300141E900201E025E02401F582E43400F5D7
:1013C30083EEF0A3EFF0D2C8900201E004F080CCEA
:1013D3009000007401F022C2D5E830E70FB2D5E4E3
:1013E300C39BFBE49AFAE499F9E498F8EC30E71725
:1013F300B2D512141012079AE4C39BFBE49AFAE4E1
:1014030099F9E498F8800312079A30D50DE4C39F45
:10141300FFE49EFEE49DFDE49CFC22A90553BCF081
:10142300EF42BC43BC40E5BC30E5FB53BCDFAFBD82
:10143300EFFEADBEEDFFAD01A805088005CEC313D9
:10144300CE13D8F9FF22E47BE07A2EF9F89002124A
:10145300E0FCA3E0FDA3E0FEA3E0FF12079A9002E5
:1014630016EEF0A3EFF075DD48E4F5D9D2DE2244A1
:101473000212000000004801D60000000000000036
:10148300004801CE000000000000000042021600E8
:10149300004102180000C0E0C083C082E59A30E139
:1014A30008539AFD9001CBE4F0E59A30E003539A98
:1014B300FED082D083D0E032C0E0C083C082E5ACEE
:1014C30030E10853ACFD9001CCE4F0E5AC30E0032F
:0A14D30053ACFED082D083D0E0328B
:00000001FF
