:075FD6004405230000000058
:1028230043BA8078FBE6FFAD9FC3ED9FFFE49400BE
:10283300FE3395E0FDFCE47BF07AD2F9F812141133
:10284300E42FFFEE3436FEED346EFDEC3401FC90E4
:102853000474121596900474E0FCA3E0FDA3E0FE5B
:10286300A3E0FFC00790FE01E0FBE4FAF9F8D0070C
:1028730012149C9004741215967FC07EF67D577CCB
:1028830000900474E0F8A3E0F9A3E0FAA3E0FBC32B
:1028930012155250097F007E607D547C00227FC058
:1028A3007E267D827C00900474E0F8A3E0F9A3E027
:1028B300FAA3E0FBC312155250097F807E8D7D5B26
:1028C3007C00227F807EED7DAF7C00900474E0F875
:1028D300A3E0F9A3E0FAA3E0FBC312155250097F6A
:1028E300007EC07DA87C00227F807E2D7DE87C0059
:1028F300900474E0F8A3E0F9A3E0FAA3E0FBC312A9
:10290300155250097F007E1B7DB77C00227F807E9D
:10291300367D257C01900474E0F8A3E0F9A3E0FA86
:10292300A3E0FBC312155250097F007E407D197C42
:1029330001227F807E567D417C01900474E0F8A3E0
:10294300E0F9A3E0FAA3E0FBC312155250097F009C
:102953007E2D7D317C01227F007EDB7D5F7C0190BB
:102963000474E0F8A3E0F9A3E0FAA3E0FBC31215B3
:102973005250097F007E807D517C01227F607E1949
:102983007D857C01900474E0F8A3E0F9A3E0FAA349
:10299300E0FBC312155250097F007E367D6E7C0129
:1029A300227F207EE07DB27C01900474E0F8A3E0F6
:1029B300F9A3E0FAA3E0FBC312155250097FC07ECE
:1029C300FC7D9B7C01227FE07EA67DE07C01900460
:1029D30074E0F8A3E0F9A3E0FAA3E0FBC3121552F5
:1029E30050097F807EC37DC97C01227F607E2B7D61
:1029F300FF7C01900474E0F8A3E0F9A3E0FAA3E0FC
:102A0300FBC312155250097F007E407DFA7C0122E0
:082A13007FC07E0E7D167C02DF
:012A1B002298
:10525B00122823900523121596E4F594F593F592F5
:10526B00F591F596F595F5B2F5B1F5B4F5B3F5CA3B
:10527B00F5C9F5CCF5CBF5E2F5E1F5D8F5D9F5DEC9
:10528B00F58EF598F59AF5ACF584F5A2F5BAF5AF70
:10529B00F589F5E9F5F9125FAD9004771215A200C7
:1052AB0001C20090047B7402F07B01E4FDFF022A33
:0152BB001CD6
:10645800900551EFF0FDE4FF12577C900551E0FFE5
:016468002211
:03003E00C2AF222C
:03005000D2AF220A
:10444F0090047CEFF014601E14602F14604024035E
:10445F007051E4FD7F131222D5E4FD7F141222D593
:10446F00E4FD7F15803AE4FD7F231222D5E4FD7F22
:10447F00241222D5E4FD7F258026E4FD7F771222CA
:10448F00D5E4FD7F761222D5E4FD7F758012E4FD21
:10449F007F341222D5E4FD7F331222D5E4FD7F3223
:1044AF001222D553A2F390047CE014600A14600C1E
:1044BF0014600E2403800D43A204800843A20880D9
:1044CF000343A20C53CEF3900480E024FE600C143F
:1044DF00600E2402700D43CE04800843CE08800383
:1044EF0043CE0C900482E042CE900481E0700643EC
:0944FF00CE8043CE1043CE4022D2
:0D0006008FCFE5CD30E7FB75CDC0AFCF2229
:103F5900900527EFF014603914605F147003023F75
:103F6900EC24036003024016E4FD7F131222D5E41A
:103F7900FD7F141222D5E4FD7F151222D57D017F24
:103F8900131253DEE4FD7F141253DE7D017F158089
:103F990079E4FD7F231222D5E4FD7F241222D5E4A2
:103FA900FD7F251222D57D017F231253DEE4FD7F9B
:103FB900241253DE7D017F258050E4FD7F77122294
:103FC900D5E4FD7F761222D5E4FD7F751222D57DD9
:103FD900017F771253DEE4FD7F761253DE7D017F88
:103FE900758027E4FD7F341222D5E4FD7F33122248
:103FF900D5E4FD7F321222D57D017F341253DEE4F0
:10400900FD7F331253DE7D017F321253DE53A2F35B
:10401900900527E014600914600A14600B24032238
:0C40290043A2042243A2082243A20C225E
:1062D20053CEF7EF24FE600B14600C2402700B43C4
:0B62E200CE042243CE082243CE0C2243
:10640E00EF1FAA0670011E4A60087D091DED60F09F
:02641E0080FA02
:016420002259
:105D4200E4900541F0A3F0FC90FE82E020E61E7F85
:105D5200017E0012640E900541E475F0011213C336
:105D6200FEC3E5F0941EEE940040DD7C0190FE82BD
:065D7200E054BFF0AF0495
:015D78002208
:0E635200EFF0A3EDF0A3EBF0A3EAF0A3E9F067
:0963600090FE817401F0025D421F
:04643400E025E0FF80
:0E64380090FE86EFF090FE817402F0025D424D
:0965230090FE817403F0025D4258
:0F64AB0090FE817404F0125D4290FE87E0FF22A4
:0F6242009004BDE0FBA3E0FAA3E0F9EF1212DC39
:0E62510090FE82E4F090FE817405F0025D4242
:0F64BA0090FE827401F090FE817405F0025D4245
:09652C0090FE817406F0025D424C
:1057B80043BA8053BACFEF14600A14600C14600E19
:1057C8002403800D43BA10800843BA20800343BAEB
:1057D8003090FE80E04440F0E04480F0C083C08216
:1057E800E0FB900486A3A3A3E0FFEB4FD082D08315
:0A57F800F090FE82E4F053BA7F2225
:10549400900552EFF0A905126360EF60037F0122CB
:1054A400900552126434EF60037F0122126523EFEA
:1054B40060037F0122AF01126438EF60037F012291
:1054C400126523EF60037F0122AF03126438EF609B
:1054D400037F0122126523EF60037F012212652CF2
:0954E400EF60037F01227F00222A
:1051870090050F126352EF60037F012290050F1203
:105197006434EF60037F0122126523EF60037F0110
:1051A70022900510E0FF126438EF60037F0122129E
:1051B7006523EF60037F012290050FE025E044019E
:1051C700FF126438EF60037F0122126523EF60034B
:1051D7007F01221264AB900511126245EF60037FD5
:0E51E700012212652CEF60037F01227F00225F
:104BD1009004BB126352EF60037F01229004BB1269
:104BE1006434EF60037F0122126523EF60037F01CC
:104BF100229004BCE0FF126438EF60037F012212AF
:104C01006523EF60037F01229004BBE025E04401AE
:104C1100FF126438EF60037F0122126523EF600306
:104C21007F01229004C0E014F060181264AB12629C
:104C310042EF60037F01229004BEE475F00112137C
:104C4100AD80E01264AB126242EF60037F01221279
:0B4C5100652CEF60037F01227F002232
:10005E0043BA8053BACFEF14600A14600C14600ECA
:10006E002403800D43BA10800843BA20800343BA9C
:05007E003053BA7F229F
:0B2A1C00900474EFF0A3EDF0A3EBF0CA
:102A2700A3E0F8A3E0F9A3E0FAA3E0FB900523E015
:102A3700FCA3E0FDA3E0FEA3E0FF12149CE47B04EB
:102A4700FAF9F812149CC3E49FFFE49EAD07FC90CB
:102A57000474E0147003022AF5147003022B38146F
:102A67007003022B9124036003022BEE90047BE09A
:102A7700FB7A00640170144398508D8BECF58D43FD
:102A87008E40D28EE49001CAF08011EB64024A7046
:102A97000B4398508DD7ECF5D6438E1553A23F9034
:102AA7000475E0F9FF7E007008A3E06401700280FE
:102AB70035EF64024E700D900476E06403700543B1
:102AC700A2408022E96404700D900476E0640570EA
:102AD7000543A2808010E96406700B900476E064D9
:102AE70007700343A2C0E49001CAF0D2AC2290045D
:102AF7007BE06402700B439A108DD7ECF5D6438EBA
:102B07001453BAFE900475E0FF7E0064087008A3B2
:102B1700E0640970028011EF640A4E700B9004762E
:102B2700E0640B700343BA0143AF01E49001CBF0BB
:102B37002290047BE0FB7A006402700D439A108DAB
:102B4700D7ECF5D6438E148011EB64034A700B4320
:102B5700AC508DD5ECF5D443D10A53BAFD9004752A
:102B6700E0FF7E00640C7008A3E0640D7002801122
:102B7700EF640E4E700B900476E0640F700343BA57
:102B87000243AF08E49001CCF02290047BE0FB7A8B
:102B9700006402700D4384108DD7ECF5D6438E1474
:102BA7008011EB64044A700B4384508DD3ECF5D24B
:102BB70043D1A053BAFB900475E0FF7E0064107008
:102BC70008A3E0641170028016EF64124E70109033
:102BD7000476E064137008F5CA75C90443BA044360
:072BE700AF10E49001CDF0F6
:012BEE0022C4
:0F576D00A3E475F0011213C3A9F0FA121296FD0E
:10577C00EF14601514601D1460252403702D900126
:10578C00CAE070FA04F08D99229001CBE070FA0413
:10579C00F08D9B229001CCE070FA04F08DAD22903C
:0C57AC0001CDE070FA04F0AF058F8522FB
:105FFE009004C2EBF0A3EAF0A3E9F0AE079004C55B
:10600E0074FFF5F01213C345F0600CAF069004C296
:08601E00E0FB12576D80E62241
:1060260090052FEBF0A3EAF0A3E9F0AE0790052F59
:10603600E0FBA3E0FAA3E0F9121296600AAF06901D
:08604600052F12576D80E622C0
:1058020043BC80EF131313541FFB7A00640170171B
:10581200EF5407FEF87401088002C333D8FCFEF48B
:105822005294EE42938019EB4A7015EF5407FEF83A
:105832007401088002C333D8FCFEF45292EE429106
:09584200ED540F42DE43DE20228A
:025F0300A905EE
:105F050053BCF0EF42BC43BC40E5BC30E5FB53BCA1
:105F1500DFAFBDEFFEADBEEDFFAD01A80508800505
:085F2500CEC313CE13D8F9FF1F
:015F2D002251
:105ACE00EF14601814602014602614602C240470E7
:105ADE0030E4F58AF58C438904D28C22E4F58BF5FB
:105AEE008D438940D28E22E4F5D7F5D6438E182207
:105AFE00E4F5D5F5D443D10C22E4F5D3F5D243D158
:025B0E00C022B3
:105A4400EF14601714601E14602514602C24047075
:105A540030AF8CEFFCAF8AEFFD8026AF8DEFFCAF4B
:105A64008BEFFD801CAFD6EFFCAFD7EFFD8012AFFC
:105A7400D4EFFCAFD5EFFD8008AFD2EFFCAFD3EF8E
:055A8400FDAF05AE04BA
:015A890022FA
:10584B00EF14601714601E1460271460302404706A
:10585B0037C28CE4F58CF58AD28C22C28EE4F58D9E
:10586B00F58BD28E22538EEFE4F5D6F5D7438E10FF
:10587B002253D1F7E4F5D4F5D543D1082253D17F88
:09588B00E4F5D2F5D343D18022EB
:054AB800900553EFF032
:104ABD007E037FE81213227C007D0C121310AB07CE
:104ACD00AA06E4F9F8900523E0FCA3E0FDA3E0FEBF
:104ADD00A3E0FF12149CC3E49FFFE49EFE900553D8
:104AED00E0F9FD7C00700A8F8AEEF58CD28CD2A98C
:104AFD0022ED64014C700A8F8BEEF58DD28ED2AB08
:104B0D0022E9FD7C006402700C8FD7EEF5D6438E42
:104B1D001043AF0422ED64034C700C8FD5EEF5D429
:104B2D0043D10843AF2022E96404700B8FD3EEF517
:074B3D00D243D18043AF40D9
:014B4400224E
:105C5500EF5403FD7C0070089005547420F0801A01
:105C6500ED64014C70089005547410F0800CED64DF
:105C7500024C70069005547460F0900554E0FEEFF8
:0D5C8500C4540FFFEE4FFFF07D010222D549
:053882009003EFEFF0E0
:10388700E49003F8F0125C5543BA809003EFE0FF31
:1038970054F02404FDE434FF8D82F583E054E7F00F
:1038A700E0FEEF540333333354F8FFEE4FF0900349
:1038B700F0E0F8A3E0F9A3E0FAA3E0FB900523E02A
:1038C700FCA3E0FDA3E0FEA3E0FF12149C780F1217
:1038D70015639003F8EFF09003F0E0F8A3E0F9A385
:1038E700E0FAA3E0FB900523E0FCA3E0FDA3E0FEE4
:1038F700A3E0FF12149CC006C0079003F8E0240160
:10390700FFE433AB07FA3395E0F9F8D007D0061296
:10391700149C9003F6EEF0A3EFF09003F4E0FCA301
:10392700E0FDE41211BA7B007A40791C7846121048
:103937009FC004C005C006C0079003F6E0FCA3E0E3
:10394700FDE41211BAD003D002D001D000120F96B5
:103957001211F39003F8E090FFF2F09003F6E0FD08
:10396700A3E090FFF0CDF0A3EDF09003EFE054F06B
:10397700FD7C002400FBEC34FF8B82F583EEF0A383
:10398700EFF0ED2404FFEC34FF8F82F583E04480F1
:07399700F053BA7F75FE80BA
:01399E002206
:0554ED00900555EFF0F1
:1054F20043BA80AE04AF05E41211BA7B007A407958
:105502001C784612109FC004C005C006C00790FF59
:10551200F0E0FCA3E0FDE41211BAD003D002D00106
:10552200D000120F961211F3900555E054F02400AA
:10553200FDE434FF8D82F583EEF0A3EFF053BA7FE2
:015542002246
:064C5C00900514121596EC
:104C6200E4900518F043BA80900514E0F8A3E0F947
:104C7200A3E0FAA3E0FB900523E0FCA3E0FDA3E0A0
:104C8200FEA3E0FF12149C780F121563900518EF33
:104C9200F0900514E0F8A3E0F9A3E0FAA3E0FB909A
:104CA2000523E0FCA3E0FDA3E0FEA3E0FF12149CB9
:104CB200C006C007900518E02401FFE433AB07FAF1
:104CC2003395E0F9F8D007D00612149C900518E04D
:0F4CD20090FFF2F090FFF0EEF0A3EFF053BA7FF7
:014CE10022B0
:105FDD0048037D000000000000000048037500002C
:065FED00000000000000AE
:10537E00E4F5D875D906EF64017054EDB40A005007
:10538E004E905396F82828730253B40253B8025322
:10539E00BC0253C00253C40253C80253CC0253D0B2
:1053AE000253D40253DAE4F5DA2275DA422275DAC0
:1053BE00632275DA532275DA732275DA202275DAD2
:1053CE00102275DA302275DA49D2DE2275DA4C22D5
:10644600EF64017008AFFAEFFCAFEAEFFDAF05AEFF
:016456000441
:016457002222
:0A004600EF64017004F5F9F5E922FA
:0534FC00900532EFF025
:10350100C2DEAFF9EFFFABE9EBA3CFF0A3EFF09091
:103511000532E070617E037FE81213227C007D0C8E
:10352100121310AB07AA06E4F9F8900523E0FCA3F7
:10353100E0FDA3E0FEA3E0FF12149CAC06AD0790F2
:103541000375ECF0A3EDF075DA4985E9EA85F9FA3E
:10355100900375E0FEA3E0FF90037EE02FFF900350
:103561007DE03EFE900534E02FFF900533E03E9074
:10357100037DF0A3EFF0900532E0640170617E03FA
:103581007FE81213227C007D0C121310AB07AA06F0
:10359100E4F9F8900523E0FCA3E0FDA3E0FEA3E03D
:1035A100FF12149CAC06AD07900377ECF0A3EDF08D
:1035B10075DB4985E9EB85F9FB900377E0FEA3E034
:1035C100FF900380E02FFF90037FE03EFE900534E3
:1035D100E02FFF900533E03E90037FF0A3EFF090E2
:1035E1000532E0640270557E037FE81213227C00ED
:1035F1007D0C121310AB07AA06E4F9F8900523E03D
:10360100FCA3E0FDA3E0FEA3E0FF12149C9003796C
:10361100EEF0A3EFF075DC4985E9EC85F9FC900348
:1036210082E02FFF900381E03EFE900534E02FFF02
:0E363100900533E03E900381F0A3EFF0D2DE6F
:01363F002268
:10486700AD07EDFB7A00702090037DE0FEA3E0F535
:10487700EAEEF5FA900375E0FEA3E0FF90037EE011
:104887002FF090037DE03EF0EB64014A7020900327
:104897007FE0FEA3E0F5EBEEF5FB900377E0FEA3E8
:1048A700E0FF900380E02FF090037FE03EF0ED649F
:1048B700027020900381E0FEA3E0F5ECEEF5FC909A
:1048C7000379E0FEA3E0FF900382E02FF0900381DD
:1048D700E03EF0ED64037020900383E0FEA3E0F573
:1048E700EDEEF5FD90037BE0FEA3E0FF900384E08F
:0948F7002FF0900383E03EF02253
:105DE500EF7007ED24FF9288D2A8EF64017007EDEC
:105DF50024FF928AD2AAEFFD7C0064027003758F9E
:105E050010ED64034C7003758F20ED64044C700332
:045E1500758F402223
:055FF30042054300001F
:105FAD00E47BE07A2EF9F8900523E0FCA3E0FDA355
:105FBD00E0FEA3E0FF12149C900543EEF0A3EFF07A
:095FCD0075DD48E4F5D9D2DE22AD
:10625F00AFF9EFFEADE9EDFF900544E02FFF90059C
:0C626F0043E03E8FEDF5FD30DBFDC2DBAF
:01627B002200
:1063AA00AB07AA06EB1BAE0270011A4E6005126219
:0463BA005F80F122ED
:1053DE00EDFB7A0064017025EFC4540F2410FDE438
:1053EE0034FE8D82F583C083C082E0FEEF540FFF42
:1053FE00F87401088002C333D8FC4E8028EB4A7043
:10540E0029EFC4540F2410FDE434FE8D82F583C0C1
:10541E0083C082E0FEEF540FFFF87401088002C3D0
:0B542E0033D8FCF45ED082D083F02263
:1022D500EF54F0F9FB7A007062ED14601F14603062
:1022E50014604424037054EF540FFEF87401088001
:1022F50002C333D8FCF452935294803FEF540FFE3F
:10230500F87401088002C333D8FCFEF45293802888
:10231500EF540FFEF87401088002C333D8FCFE4267
:1023250093EEF452948014EF540FFEF87401088074
:1023350002C333D8FCFE4293EE4294EB64104A701C
:1023450062ED14601F14603014604424037054EF70
:10235500540FFEF87401088002C333D8FCF452917F
:102365005292803FEF540FFEF87401088002C33388
:10237500D8FCFEF452918028EF540FFEF874010842
:102385008002C333D8FCFE4291EEF452928014EFE2
:10239500540FFEF87401088002C333D8FCFE429145
:1023A500EE4292E964207062ED14601F14603014EF
:1023B500604424037054EF540FFEF8740108800242
:1023C500C333D8FCF452955296803FEF540FFEF874
:1023D5007401088002C333D8FCFEF452958028EFBF
:1023E500540FFEF87401088002C333D8FCFE4295F1
:1023F500EEF452968014EF540FFEF8740108800233
:10240500C333D8FCFE4295EE4296E9FB7A00643070
:102415007062ED14601F146030146044240370541E
:10242500EF540FFEF87401088002C333D8FCF45250
:10243500B152B2803FEF540FFEF87401088002C319
:1024450033D8FCFEF452B18028EF540FFEF8740126
:10245500088002C333D8FCFE42B1EEF452B28014B8
:10246500EF540FFEF87401088002C333D8FCFE4216
:10247500B1EE42B2EB64404A7062ED14601F146025
:102485003014604424037054EF540FFEF8740108AF
:102495008002C333D8FCF452B352B4803FEF540FDB
:1024A500FEF87401088002C333D8FCFEF452B380F1
:1024B50028EF540FFEF87401088002C333D8FCFEE0
:1024C50042B3EEF452B48014EF540FFEF8740108D1
:1024D5008002C333D8FCFE42B3EE42B4E9645070C7
:1024E50062ED14601F14603014604424037054EFCF
:1024F500540FFEF87401088002C333D8FCF452C9A6
:1025050052CA803FEF540FFEF87401088002C333AE
:10251500D8FCFEF452C98028EF540FFEF874010868
:102525008002C333D8FCFE42C9EEF452CA8014EFD0
:10253500540FFEF87401088002C333D8FCFE42C96B
:10254500EE42CAE9FB7A0064607062ED14601F1404
:10255500603014604424037054EF540FFEF8740186
:10256500088002C333D8FCF452CB52CC803FEF54E1
:102575000FFEF87401088002C333D8FCFEF452CB79
:102585008028EF540FFEF87401088002C333D8FC8D
:10259500FE42CBEEF452CC8014EF540FFEF87401DA
:1025A500088002C333D8FCFE42CBEE42CCEB64700C
:1025B5004A7060ED14601E14602F1460422403708D
:1025C50052EF540FFEF87401088002C333D8FCF4AF
:1025D50052E152E222EF540FFEF87401088002C363
:1025E50033D8FCFEF452E18027EF540FFEF8740156
:1025F500088002C333D8FCFE42E1EEF452E222EF3A
:10260500540FFEF87401088002C333D8FCFE42E182
:04261500EE42E2228D
:066535002564002566004C
:0A64E700C2A2C2A1120006D2A22236
:0A64F100C2A2D2A1120006D2A2221C
:04617F00AD07AC06B6
:10618300EC900545F0A3EFF0C2A2D2A1900545E043
:0E619300FF120006900546E0FF120006D2A2A1
:0161A10022DB
:1052BC00900444EEF0A3EFF0A3ECF0A3EDF0A3EA1E
:1052CC00F0A3EBF07F2A1264E7E4FF1264F1900480
:1052DC0044A3E02402FF1264F1E4FF1264F1900491
:1052EC0048A3E02402FF1264F17F2B1264E7E4FF71
:1052FC001264F1900446A3E004FF1264F1E4FF127F
:10530C0064F190044AA3E004FF1264F17F2C026460
:01531C00E7A9
:0854390090052BEEF0A3EFF04B
:1054410090044AE4F0A3749FF07B7F7A00E4FDFCB2
:10545100FFFE1252BCE490052DF090052DE0C3949F
:10546100A074809480502BE4A3F090052EE0C394A7
:105471008074809480501390052BE0FEA3E0FF120E
:10548100617F90052EE004F080E090052DE004F0AE
:0254910080C8D1
:0154930022F6
:1026190090047F7412F0E4A3F0A3F0A3F07B117D82
:10262900107F0112444FC2A07F0A7E001263AAD212
:10263900A07F787E001263AA7F111264E77F787EFB
:10264900001263AA7FB11264E77F011264F17F2C43
:102659001264F17F2D1264F17FB21264E77F0112D7
:1026690064F17F2C1264F17F2D1264F17FB312643F
:10267900E77F011264F17F2C1264F17F2D1264F15E
:102689007F011264F17F2C1264F17F2D1264F17FB6
:10269900B41264E77F071264F17FC01264E77FA276
:1026A9001264F17F021264F17F841264F17FC11216
:1026B90064E77FC51264F17FC21264E77F0A12647E
:1026C900F1E4FF1264F17FC31264E77F8A1264F1B7
:1026D9007F2A1264F17FC41264E77F8A1264F17F52
:1026E900EE1264F17FC51264E77F0E1264F17F3642
:1026F9001264E7E4701E14600E14600F1460102455
:102709000370117FC0800AE4FF80067FA080027FEA
:10271900601264F17FE01264E77F0F1264F17F1A9F
:102729001264F17F0F1264F17F181264F17F2F1286
:1027390064F17F281264F17F201264F17F22126410
:10274900F17F1F1264F17F1B1264F17F231264F180
:102759007F371264F1E4FF1264F17F071264F17F9D
:10276900021264F17F101264F17FE11264E77F0FB6
:102779001264F17F1B1264F17F0F1264F17F17124B
:1027890064F17F331264F17F2C1264F17F291264A2
:10279900F17F2E1264F17F301264F17F301264F1FF
:1027A9007F391264F17F3F1264F1E4FF1264F17F13
:1027B900071264F17F031264F17F101264F17F2A1A
:1027C9001264E7E4FF1264F17F021264F1E4FF127C
:1027D90064F17F821264F17F2B1264E7E4FF1264D3
:1027E900F17F031264F1E4FF1264F17F831264F153
:1027F9007FF01264E77F011264F17FF61264E7E467
:10280900FF1264F17F3A1264E77F051264F17F29B0
:0A2819001264E774FFFFFE02543959
:105B10009004C7EEF0A3EFF09004CBEAF0A3EBF013
:105B20009004C9ECF0A3EDF09004C7E0FAA3E0FB09
:105B3000FFAE02C007A3E0FFA3E090044ACFF0A3AA
:105B4000EFF0D0071252BC9004CBE0FEA3E0FF02BE
:025B5000617F73
:06438400F583E02430FB8C
:10438A0090044CEEF0A3EFF0A3ECF0A3EDF0A3EB56
:01439A00F032
:10439B00E4A3F0900451E0F9C3941074809480402E
:1043AB000302444EE9FF90044FE02FFD90044EE0D2
:1043BB003400FC90044DE02407FB90044CE03400E7
:1043CB00FA7E0090044EE0F8A3E02FFFEE38900445
:1043DB004AF0A3EFF090044CE0FEA3E0FF1252BCB6
:1043EB00900451E0FF900450E075F010A42496F572
:1043FB0082E5F034FEF583E5822FF582E43583F513
:10440B0083E493900453F0E4900452F0900452E050
:10441B00C39408748094805021A3E030E0067F00A1
:10442B007EF8800474FFFFFE12617F900453E0C39B
:10443B0013F0900452E004F080D2900451E004F0A9
:03444B0002439E8B
:01444E00224B
:104ECB00900417EEF0A3EFF0A3ECF0A3EDF0A3EB3F
:074EDB00F0A3EAF0A3E9F0E7
:104EE200E4A3F0A3F090041BE0FBA3E0FAA3E0F933
:104EF200A3E0FEA3E0FFF5828E831212AFFB603EB9
:104F0200EF7803C333CE33CED8F9FF900418E02FE5
:104F1200FF900417E03EFE90041AE0C4F8540FC854
:104F220068FD900419E0C454F048FC12438A9004CE
:0E4F32001FE004F070AF90041EE004F080A7B2
:014F4000224E
:10403500900420EEF0A3EFF0A3ECF0A3EDF0A3EBDA
:01404500F08A
:104046003395E0C364809480900423E0C4F8540F51
:10405600C868FD900422E0C454F048FC900420E0B7
:10406600FEA3E0FF40077B2012438A800C7B2D12C3
:10407600438A900424E0F404F0900424E0FF75F0F1
:1040860064121274900425F0EF75F00A121274FF90
:1040960075F00A121274AFF0900426EFF090042423
:1040A600E0FF75F00A121274AFF0900427EFF0E407
:1040B600A3F0900428E0FBFF7E00C3940374809471
:1040C600805045EF2401FFEE33FEEF7803C333CE75
:1040D60033CED8F9FF900421E02FFF900420E03E74
:1040E600FE900423E0C4F8540FC868FD900422E053
:1040F600C454F048FC74252BF582E434041243843E
:08410600900428E004F080AAF7
:01410E00228E
:0E4DDD00900454EEF0A3EFF0A3ECF0A3EDF081
:104DEB00EB75F06484A3F0EB75F00A8475F00A841C
:104DFB00A3E5F0F0EB75F00A84A3E5F0F0E4A3F083
:104E0B0090045BE0C3940374809480503BE0FB758B
:104E1B00F008A4FF900455E02FFF900454E035F008
:104E2B00FE900457E0C4F8540FC868FD900456E098
:104E3B00C454F048FC74582BF582E43404124384B8
:084E4B0090045BE004F080B864
:014E5300223C
:10364000900392EEF0A3EFF0A3ECF0A3EDF0A3EA69
:04365000F0A3EBF008
:10365400C3EA64809480900395E0C4F8540FC8686A
:10366400FD900394E0C454F048FC900392E0FEA360
:10367400E0FF501C7B2D12438A900396E0FEA3E0EA
:10368400FFC3E49FFFE49E900396F0A3EFF0800550
:103694007B2012438A900396E0FAA3E0FB7C277D0B
:1036A40010FFAE02121377A3EFF07C037DE8AF03A3
:1036B400AE021213777C007D0A121377A3EDF0900B
:1036C4000396A3E07C007D64FFAE021213777C00B6
:1036D4007D0A12137790039AEDF07C007D0AAF0304
:1036E400AE021213777C007D0A121377A3EDF090DB
:1036F4000396E0FEA3E0FF7C007D0A12137790039B
:103704009CEDF0E4A3F090039DE0FBFF7E00C394E6
:1037140005748094805045EF2401FFEE33FEEF786A
:1037240003C333CE33CED8F9FF900393E02FFF9039
:103734000392E03EFE900395E0C4F8540FC868FD80
:10374400900394E0C454F048FC74982BF582E4345C
:0C3754000312438490039DE004F080AA5F
:013760002246
:0E4508009003F9EEF0A3EFF0A3ECF0A3EDF0BA
:104516007C277D10AF03AE02121322A3EFF07C03BB
:104526007DE8AF03AE021213227C007D0A1213222D
:10453600A3EDF07C007D64AF03AE021213227C0073
:104546007D0A121322A3EDF07C007D0AAF03AE02B2
:104556001213227C007D0A121322A3EDF0AE02AFE5
:10456600037C007D0A121322A3EDF0E4A3F090046D
:1045760002E0C3940574809480503BE0FB75F0081C
:10458600A4FF9003FAE02FFF9003F9E035F0FE90C8
:1045960003FCE0C4F8540FC868FD9003FBE0C45464
:1045A600F048FC74FD2BF582E43403124384900436
:0645B60002E004F080B8F1
:0145BC0022DC
:0E3BB3009002B7EEF0A3EFF0A3ECF0A3EDF05C
:103BC1009002BFE0FFC3740A9F7480F89850037499
:103BD1000AF09002BFE004F09002BBE0FCA3E0FD1C
:103BE100A3E0FEA3E0FFE4FBFAF9F8D312153C4091
:103BF100319001D174FFF0A37465F0A37435F09096
:103C010002BBE0FCA3E0FDA3E0FEA3E0FF9001D432
:103C11001215960B7A0279C0121D339002E2EFF071
:103C210080389002C07420F09001D174FFF0A37429
:103C310065F0A37435F09002BBE0FCA3E0FDA3E0C6
:103C4100FEA3E0FF9001D41215967B017A0279C19F
:103C5100121D339002E2EFF0801E9002BFE0FF9050
:103C610002E2E0FEC39F501574C02EF582E43402D7
:103C7100F5837420F09002E2E004F080DD74C02F3F
:103C8100F582E43402F583E4F09002B7E0FEA3E0AC
:103C9100FFA3E0FCA3E0FD7B017A0279C0024ECBD9
:0E2F380090022AEEF0A3EFF0A3ECF0A3EDF070
:102F4600900233E0FFC374069F7480F898500374B0
:102F560006F0900232E0FFC3740A9F7480F898501E
:102F660003740AF090022EE0FCA3E0FDA3E0FEA3AA
:102F7600E0FFE4FBFAF9F812113C9001D160314010
:102F86002F74FFF0A37465F0A37438F090022EE05E
:102F9600FCA3E0FDA3E0FEA3E0FF9001D41215968A
:102FA6007B017A027935121D33900234EFF08030BE
:102FB60074FFF0A37465F0A37438F090022EE0FC61
:102FC600A3E0FDA3E0FEA3E0FF9001D41215967BDB
:102FD600017A027936121D33900234EFF0E004F0E4
:102FE600900234E024F9FD900232E0FEC3ED9E1417
:102FF600900257F0900233E0AE052E04900258F08E
:10300600900257E0FF3395E0FED3E49FEE6480F82C
:103016007480984022A3E0FF3395E0FE74352FF5C7
:103026008274023EF5837420F0900258E004F0901A
:103036000257E004F080C990022EE0FCA3E0FDA355
:10304600E0FEA3E0FFE4FBFAF9F812113C90025708
:1030560060174015E0FF3395E0FE74352FF5827456
:10306600023EF583742DF08013E0FF3395E0FE7485
:10307600352FF58274023EF5837420F0900258E0F5
:10308600FF3395E0FE74352FF58274023EF583E436
:10309600F090022AE0FEA3E0FFA3E0FCA3E0FD7BA4
:0830A600017A027935024ECBDC
:0B399F009003CEEBF0A3EAF0A3E9F0E8
:1039AA0074FFFFFE125439E49003D5F0A3F0E490BB
:1039BA0003D3F0A3F09003D3E0FAA3E0FB7C007DED
:1039CA0028FFAE02121310C006C007A3E0FEA3E050
:1039DA00FF121310C006C007AF03AE02121310EF96
:1039EA002427FBE43EFA9003D5E0FEA3E0FF12137E
:1039FA0010EF2427FFE43E90044AF0A3EFF0D0052D
:103A0A00D004D007D0061252BCE49003D1F0A3F040
:103A1A009003D2E025E0FF9003D1E033FE9003CE7D
:103A2A00E0FBA3E0FAA3E0F98F828E831212AF9033
:103A3A0003D8F0E92FF9EA3EFA9000011212AF908A
:103A4A0003D7F0FEA3E0FDEDFF12617F9003D2E001
:103A5A0004F070069003D1E004F0C39003D2E0941E
:103A6A00409003D1E06480948640A59003D4E0049A
:103A7A00F070069003D3E004F0C39003D4E09403FB
:103A8A009003D3E06480948050030239BF9003D638
:103A9A00E004F070069003D5E004F0C39003D6E08A
:0F3AAA0094049003D5E06480948050030239B8EF
:013AB90022EA
:10009600000000000000000000000000000000005A
:1000A6000000000808080808080800000808000002
:1000B6000048242412000000000000000000000098
:1000C6000000004848487E2424247E24242400007E
:1000D6000000103C5252121C30505052523C10102C
:1000E600000000222515150D2A58545452220000EE
:1000F6000000000C1212120A76252919916E0000D2
:1001060000060404020000000000000000000000D9
:1001160000402010100808080808081010204000A9
:10012600000204080810101010101008080402003D
:100136000000000008086B1C1C6B0808000000008B
:100146000000000000101010FE101010000000004B
:100156000000000000000000000000000604040289
:1001660000000000000000007E000000000000000B
:10017600000000000000000000000000060600006D
:100186000000402020201010080808040402020085
:100196000000001824424242424242422418000013
:1001A600000000101C10101010101010107C000021
:1001B6000000003C4242424020100804427E0000FB
:1001C6000000003C4242402018204042423C0000D1
:1001D60000000020303028242422FE2020F80000D1
:1001E6000000007E0202021E22404042221C000045
:1001F600000000182402023A4642424244380000F7
:100206000000007E422020101008080808080000A0
:100216000000003C4242422418244242423C000074
:100226000000001C22424242625C4040241800004A
:100236000000000000001818000000001818000058
:100246000000000000000008000000000008080888
:10025600000000402010080402040810204000009E
:100266000000000000007E00007E0000000000008C
:1002760000000002040810204020100804020000BC
:100286000000003C424246201010100018180000E2
:100296000000001C225A55555555553A423C00005F
:1002A6000000000808181414243C224242E700000B
:1002B6000000001F2222221E22424242221F00006C
:1002C6000000007C4242010101010142221C0000A3
:1002D6000000001F2242424242424242221F0000C8
:1002E6000000003F4212121E12120242423F00005C
:1002F6000000003F4212121E121202020207000004
:100306000000003C2222010101712122221C000072
:10031600000000E7424242427E42424242E700007B
:100326000000003E0808080808080808083E000003
:100336000000007C10101010101010101010110F7B
:100346000000007722120A0E0A12122222770000FB
:10035600000000070202020202020202427F0000BF
:100366000000007736363636362A2A2A2A6B0000EF
:10037600000000E346464A4A525252626247000073
:100386000000001C2241414141414141221C000024
:100396000000003F424242423E02020202070000C3
:1003A6000000001C224141414141414D321C600088
:1003B6000000003F4242423E1212222242C7000083
:1003C6000000007C4242020418204042423E0000E7
:1003D6000000007F4908080808080808081C0000F3
:1003E600000000E74242424242424242423C000092
:1003F600000000E7424222242414141808080000D2
:100406000000006B2A2A2A2A2A3614141414000023
:10041600000000E7422424181818242442E70000AC
:10042600000000772222141408080808081C00009F
:100436000000007E2120101008040442423F000004
:100446000078080808080808080808080808780056
:100456000000020404040808081010202020404070
:10046600001E1010101010101010101010101E008A
:10047600001824000000000000000000000000003A
:1004860000000000000000007E00000000000000E8
:100496000006080000000000000000000000000048
:1004A600000000000000001C22302C22326C0000EC
:1004B600000000000302021A26424242261A0000E9
:1004C6000000000000000038440202024438000028
:1004D600000000006040407C4242424262DC000074
:1004E600000000000000003C42427E02423C000048
:1004F600000000003048083E08080808083E0000D2
:10050600000000000000007C22221C023C42423C0B
:10051600000000000302023A4642424242E700005F
:100526000000000C0C00000E08080808083E000039
:100536000000003030000038202020202020221E1D
:100546000000000003020272120A0E122277000057
:10055600000000080E08080808080808083E000001
:10056600000000000000007F9292929292B7000075
:10057600000000000000003B4642424242E7000005
:10058600000000000000003C42424242423C0000A3
:10059600000000000000001B26424242261A020705
:1005A600000000000000005864424242645840E0E7
:1005B60000000000000000774C040404041F000043
:1005C600000000000000007C42023C40423E000069
:1005D600000000000008083E08080808483000002F
:1005E60000000000000000634242424262DC00005C
:1005F6000000000000000077222214140808000002
:1006060000000000000000DB91525A2A242400005A
:10061600000000000000006E241818182476000060
:1006260000000000000000E742242418180808060D
:10063600000000000000007E22100808447E000032
:1006460000C0202020202020102020202020C000B4
:100656001010101010101010101010101010101094
:10066600000304040404040408040404040403004A
:10067600045A2000000000000000000000000000F6
:100686000000000000000000002F0000000007002E
:10069600070000147F147F1400242A7F2A120062A8
:1006A6006408132300364955225000000503000054
:1006B60000001C224100000041221C000014083EDC
:1006C60008140008083E0808000000A060000008A2
:1006D60008080808000060600000002010080402F6
:1006E600003E5149453E0000427F400000426151B4
:1006F6004946002141454B31001814127F1000274E
:1007060045454539003C4A49493000017109050310
:1007160000364949493600064949291E0000363641
:1007260000000000563600000008142241000014A4
:100736001414141400004122140800020151090681
:1007460000324959513E007C1211127C007F494902
:100756004936003E41414122007F4141221C007F33
:1007660049494941007F09090901003E4149497A41
:10077600007F0808087F0000417F410000204041BB
:100786003F01007F08142241007F40404040007F27
:10079600020C027F007F0408107F003E4141413E6B
:1007A600007F09090906003E4151215E007F0919B3
:1007B60029460046494949310001017F0101003FB0
:1007C6004040403F001F2040201F003F4038403F30
:1007D6000063140814630007087008070061514994
:1007E600454300007F41410000552A552A55000027
:1007F60041417F00000402010204004040404040A5
:10080600000001020400002054545478007F48443C
:10081600443800384444442000384444487F003873
:100826005454541800087E0901020018A4A4A47C9C
:10083600007F080404780000447D40000040808466
:100846007D00007F102844000000417F4000007CAE
:1008560004180478007C08040478003844444438BA
:1008660000FC242424180018242418FC007C080406
:10087600040800485454542000043F444020003CDF
:100886004040207C001C2040201C003C4030403C66
:10089600004428102844001CA0A0A07C00446454F6
:1008A6004C4414141414141400000000000000003A
:1008B6000000000000000000000000F8000000003A
:1008C600000000333000000000100C06100C06007B
:1008D600000000000000000040C07840C0784000E2
:1008E600043F04043F040400007088FC0830000044
:1008F600001820FF211E0000F008F000E01800009C
:1009060000211C031E211E0000F008887000000054
:100916001E2123241927211010160E0000000000A6
:100926000000000000000000000000E018040200C3
:10093600000000071820400000020418E000000034
:100946000040201807000000404080F08040400032
:100956000202010F01020200000000F00000000088
:100966000101011F0101010000000000000000005C
:1009760080B07000000000000000000000000000D1
:10098600000101010101010100000000000000005A
:1009960000303000000000000000000080601804F5
:1009A600006018060100000000E010080810E000D2
:1009B600000F102020100F00001010F8000000009B
:1009C6000020203F202000000070080808887000E2
:1009D6000030282422213000003008888848300062
:1009E6000018202020110E000000C02010F8000082
:1009F60000070424243F240000F80888880808001B
:100A06000019212020110E0000E01088881800002F
:100A1600000F112020110E0000380808C838080001
:100A26000000003F00000000007088080888700081
:100A3600001C222121221C0000E010080810E00002
:100A46000000312222110F00000000C0C00000008B
:100A560000000030300000000000008000000000B0
:100A660000008060000000000000804020100800A8
:100A76000001020408102000404040404040400071
:100A8600040404040404040000081020408000004C
:100A96000020100804020100007048080808F00051
:100AA6000000003036010000C030C828E810E00021
:100AB6000718272423140B000000C038E0000000AC
:100AC600203C23020227382008F888888870000016
:100AD600203F202020110E00C030080808083800EA
:100AE600071820202010080008F808080810E00061
:100AF600203F202020100F0008F88888E808100002
:100B0600203F20202320180008F88888E8081000D5
:100B1600203F200003000000C0300808083800000D
:100B260007182020221E020008F808000008F8080E
:100B3600203F210101213F20000808F80808000095
:100B46000020203F2020000000000808F8080800C8
:100B5600C08080807F00000008F888C02818080040
:100B6600203F20012638200008F808000000000079
:100B7600203F20202020300008F8F800F8F8080070
:100B8600203F003F003F200008F830C00008F8086A
:100B9600203F200007183F00E01008080810E0007A
:100BA6000F10202020100F0008F808080808F00091
:100BB600203F210101010000E01008080810E000B4
:100BC6000F18242438504F0008F888888888700049
:100BD600203F2000030C30200070880808083800E9
:100BE6000038202121221C00180808F808081800DF
:100BF6000000203F2000000008F808000008F80860
:100C0600001F202020201F000878880000C8380810
:100C1600000007380E010000F80800F80008F80088
:100C2600033C0700073C0300081868808068180822
:100C360020302C03032C30200838C800C8380800A0
:100C46000000203F2000000010080808C8380800EF
:100C56002038262120201800000000FE0202020093
:100C66000000007F40404000000C30C00000000043
:100C7600000000010638C00000020202FE0000006B
:100C8600004040407F000000000004020202040011
:100C9600000000000000000000000000000000004E
:100CA6008080808080808080000202040000000036
:100CB600000000000000000000008080808000002E
:100CC6000019242222223F2008F80080800000001C
:100CD600003F112020110E000000008080800000DF
:100CE600000E112020201100000000808088F800EE
:100CF600000E112020103F20000080808080000020
:100D0600001F222222221300008080F08888881883
:100D16000020203F2020000000008080808080008E
:100D2600006B94949493600008F800808080000023
:100D3600203F210000203F200080989800000000FE
:100D46000020203F2020000000000080989800002E
:100D560000C08080807F000008F80000808080004E
:100D6600203F24022D302000000808F80000000073
:100D76000020203F2020000080808080808080002E
:100D8600203F20003F20003F8080008080800000C0
:100D9600203F210000203F2000008080808000004E
:100DA600001F202020201F0080800080800000007F
:100DB60080FFA12020110E000000008080808000AE
:100DC600000E112020A0FF8080808000808080009F
:100DD60020203F21200001000000808080808000CC
:100DE6000033242424241900008080E08080000041
:100DF6000000001F2020000080800000008080008E
:100E0600001F202020103F208080800000808080EE
:100E160000010E300806010080800080008080807E
:100E26000F300C030C300F000080800080808000A3
:100E36000020312E0E3120008080800000808080CE
:100E460080818E701806010000808080808080007E
:100E56000021302C2221300000000000807C02029C
:100E660000000000003F404000000000FF000000BE
:100E760000000000FF0000000002027C800000006D
:100E86000040403F00000000000601010202040489
:080E9600000000000000000054
:10611000E4900556F0900556E064126017E4FB7DAC
:10612000757F69125CCF900556EFF07F0A7E0012F2
:0461300063AA80E1FD
:016134002248
:1051F5007F0A7E001263AA1261107B807D6B7F6936
:105205001262B67F027E001263AAE4FB7D6B7F69A2
:10521500125CCFEF20E7F37B017D6B7F691262B6ED
:10522500E4FB7D6C7F691262B67B017D1A7F691292
:1052350062B67B077D197F691262B67B187D1B7F7D
:10524500691262B67B107D1C7F691262B67B037D95
:065255001D7F690262B634
:105639007B017A0479CD9004967406F0E4A3F07D99
:105649003B7F69124D649004CDE0FEA3E0FDEDFFC0
:1056590090039EEEF0A3EFF09004CFE0FEA3E0FDEF
:10566900EDFF9003A0EEF0A3EFF09004D1E0FEA3CC
:0C567900E0FDEDFF9003A2EEF0A3EFF0C7
:015685002202
:105686007B017A0479D39004967406F0E4A3F07D46
:10569600437F69124D649004D3E0FEA3E0FDEDFF65
:1056A6009003A4EEF0A3EFF09004D5E0FEA3E0FD96
:1056B600EDFF9003A6EEF0A3EFF09004D7E0FEA373
:0C56C600E0FDEDFF9003A8EEF0A3EFF074
:0156D20022B5
:06604E00C2A6EF4480FF32
:10605400E4FEEEC39408748094805015EF3392A349
:10606400EF25E0FFC2A5D2A5A2A4E4334FFF0E8022
:01607400E14A
:016075002208
:0D001600C2A6126054AF05126054D2A6229B
:0F64C90012604EE4FF126054EF1212DCD2A622D2
:0B5BD50090051AEBF0A3EAF0A3E9F042
:105BE00012604EE4FDFC90051DE0FFC3ED9FEC94B8
:105BF00000501FE4FF12605490051AE0FBA3E0FA86
:105C0000A3E0F98D828C83EF1212EE0DBD00010C22
:045C100080D4D2A6C4
:015C1400226D
:1063BE007B017A0579577F751264C9900557E064A1
:0363CE001270ED5D
:0163D10022A9
:105543001263BE7D807F6B1200167F027E001263A2
:10555300AA7B017A0579587F6B1264C9900558E0DC
:10556300644170ED7D017F6B1200161D7F6C12008C
:10557300160D7F1A1200167D077F191200167D186B
:105583007F1B1200167D107F1C1200167D037F1DEA
:03559300020016FD
:1058DD007B017A0479D990051D7406F07F3B125B2C
:1058ED00D59004D9E0FEA3E0FDEDFF90039EEEF010
:1058FD00A3EFF09004DBE0FEA3E0FDEDFF9003A02D
:10590D00EEF0A3EFF09004DDE0FEA3E0FDEDFF90DF
:07591D0003A2EEF0A3EFF07E
:015924002260
:105925007B017A0479DF90051D7406F07F43125BD5
:10593500D59004DFE0FEA3E0FDEDFF9003A4EEF0BB
:10594500A3EFF09004E1E0FEA3E0FDEDFF9003A6D8
:10595500EEF0A3EFF09004E3E0FEA3E0FDEDFF9091
:0759650003A8EEF0A3EFF030
:01596C002218
:0E646900EBF0A3EAF0A3E9F0C2A6EF4480FF37
:036477000200061A
:10002600900559EDF0C2A6126477900559E0FF12CB
:050036006477D2A62250
:10627C00900535126469E4FF126477900535E0FBF4
:0D628C00A3E0FAA3E0F9EF1212DCD2A62283
:0355960090048BF3
:10559900126469E490048FF0A3F090048EE0FFC3D5
:1055A900900490E09F90048FE09400502FE4FF1244
:1055B900647790048BE0FBA3E0FAA3E0F990048FF1
:1055C900E0FCA3E0F5828C83EF1212EE900490E0E8
:0E55D90004F070C690048FE004F080BED2A6ED
:0155E70022A1
:1061A200E490055AF090055AE0641260147B017A7B
:1061B20005795A7F7512627C7F0A7E001263AA807B
:0161C200E4F8
:0161C30022B9
:104F4100E490055BF07F0AFE1263AA90047F74125D
:104F5100F0E4A3F0A3F0A3F07B117D107F011244D4
:104F61004F1261A27D807F6B1200267F027E0012AC
:104F710063AA7B017A05795B7F6B12627C90055B8A
:104F8100E0644170ED7D017F6B120026E4FD7F6CD2
:104F91001200267D017F1A1200267D077F1912005B
:104FA100267D187F1B1200267D107F1C1200267D96
:064FB100037F1D02002633
:10596D007B017A0479E590048E7406F07F3B125525
:10597D00969004E5E0FEA3E0FDEDFF90039EEEF0B2
:10598D00A3EFF09004E7E0FEA3E0FDEDFF9003A090
:10599D00EEF0A3EFF09004E9E0FEA3E0FDEDFF9043
:0759AD0003A2EEF0A3EFF0EE
:0159B40022D0
:1059B5007B017A0479EB90048E7406F07F431255CF
:1059C500969004EBE0FEA3E0FDEDFF9003A4EEF05E
:1059D500A3EFF09004EDE0FEA3E0FDEDFF9003A63C
:1059E500EEF0A3EFF09004EFE0FEA3E0FDEDFF90F5
:0759F50003A8EEF0A3EFF0A0
:0159FC002288
:01004100229C
:07636900C2A5126370D2A56A
:0E6370007F147E00EF1FAC0670011E4C70F60D
:01637E0022FC
:0F64D800D2A3D2A5126370C2A3126370C2A52211
:0A64FB00C2A3126369D2A30263700A
:1062ED00AD07C2A5126370ED6004C2A38002D2A3F4
:0A62FD00D2A5126370C2A5026370FF
:10637F0012636930A306C2A5E4FEFF22C2A5126311
:06638F00707E007F012278
:04609E00E025E0FF1A
:0260A200AD0748
:1060A4007B08AF031BEF6015ED30E704D2A3800239
:1060B400C2A3ED25E0FD12636BC2A580E502637FF8
:025DB000AD073D
:105DB200E4FBC2A5126370D2A3E4FAEAC3940874A6
:105DC2008094805011126370126369EB25E0FB30FE
:105DD200A3010B0A80E5C2A5126370AF051262ED42
:025DE200AF030D
:015DE400229C
:1062B60090055CEFF0AA03A9051264D812609EAFA0
:0C62C600011260A2AF021260A20264FB91
:095CCF0090055DEDF0AA07A903A0
:105CD8001264D8EA25E0FF1260A2E0FF1260A2E990
:105CE800640170031264FB1264D8AF02EF25E0442C
:105CF80001FF1260A2E4FF125DB0AD071264FBAFB2
:015D08000595
:015D09002277
:104D6400900491EFF0A3EDF0A3EBF0A3EAF0A3E934
:104D7400F01264D890049112609EA3E0FF1260A226
:104D8400900497E0640170031264FB1264D89004E9
:104D940091E025E04401FF1260A2900496E014F033
:104DA40060207F01125DB0900493E0FBA3E0FAA3BE
:104DB400E0F9EF1212DC900494E475F0011213ADE3
:104DC40080D8E4FF125DB0900493E0FBA3E0FAA363
:094DD400E0F9EF1212DC0264FBAD
:10648B007D017F031258027D0A7C00E4FF0234FC7D
:1049000090051FEBF0A3EAF0A3E9F090051EEFF08D
:10491000E4900522F0FD12577C90051EE0FF7DFF1C
:1049200012577C90051EE0FF7D0112577C90051EFA
:10493000E0FFE4FD12577CE4900522F0900522E0B0
:10494000FFC3948074809480504C90051FE0FBA3BB
:10495000E0FAA3E0F975F002EFA4F58285F0831286
:1049600013D97D0090051EE0FF12577C90051FE0D3
:10497000FBA3E0FAA3E0F9A3E075F002A4F58285B9
:10498000F0831213D9FD90051EE0FF12577C9005AD
:0649900022E004F080A605
:0149960022FE
:1059FD00E490055EF0D2C8C2C9C2C8D2C9D2C8C22D
:105A0D00C9F090055EE0C39480748094805027C2E5
:105A1D00C87D027F03125F0390055EE025E024013F
:105A2D00F582E43400F583EEF0A3EFF0D2C89005D3
:065A3D005EE004F080CCE5
:015A43002240
:06653B0025640025660046
:0A650500C2A2C2A1120006D2A22217
:0A650F00C2A2D2A1120006D2A222FD
:075F59002428FFE03400FEE4
:045F6000AD07AC06D7
:105F6400EC900547F0A3EFF0C2A2D2A1900547E060
:0E5F7400FF120006900548E0FF120006D2A2C0
:015F820022FC
:1033960090047F7412F0E4A3F0A3F0A3F07B117DF8
:1033A600107F0112444FD2A7C2A1C2A07FC87E00DF
:1033B6001263AAD2A07F647E001263AA7F361265CA
:1033C600057FA012650F7F3A1265057F0512650F0E
:1033D6007FB21265057F0C12650F7F0C12650FE434
:1033E600FF12650F7F3312650F7F3312650F7FB7AC
:1033F6001265057F3512650F7FBB1265057F371293
:10340600650F7FC01265057F2C12650F7FC212659E
:10341600057F0112650F7FC31265057F1212650FC6
:103426007FC41265057F2012650F7FC61265057F72
:103436000F12650F7FD01265057FA412650F7FA15D
:1034460012650F7FE01265057FD012650F7F0412AB
:10345600650F7F0D12650F7F1112650F7F131265C1
:103466000F7F2B12650F7F3F12650F7F5412650F7A
:103476007F4C12650F7F1812650F7F0D12650F7F47
:103486000B12650F7F1F12650F7F2312650F7FE1F9
:103496001265057FD012650F7F0412650F7F0C122F
:1034A600650F7F1112650F7F1312650F7F2C126552
:1034B6000F7F3F12650F7F4412650F7F5112650F14
:1034C6007F2F12650F7F1F12650F7F1F12650F7FFB
:1034D6002012650F7F2312650F7F211265057F116C
:1034E6001265057F787E001263AA7F29126505742E
:0634F600FFFFFE0251166B
:1055E80090045CEEF0A3EFF0A3ECF0A3EDF0A3EAD7
:1055F800F0A3EBF07F2A12650590045DE090045C4F
:10560800125F59900461E0900460125F597F2B1279
:10561800650590045FE02434FF90045E125F5C909F
:105628000463E02434FF900462125F5C7F2C0265FF
:01563800056C
:085116009004F7EEF0A3EFF0A6
:10511E009004627401F0A3743FF0FB7A01E4FDFC8D
:10512E00FFFE1255E8E49004F9F0A3F0E49004FBBE
:10513E00F0A3F09004F7E0FEA3E0FF125F6090048E
:10514E00FCE004F070069004FBE004F0C39004FC55
:10515E00E094409004FBE0940140D89004FAE004FF
:10516E00F070069004F9E004F0C39004FAE0944065
:08517E009004F9E0940140B433
:015186002206
:105B52009004FDEEF0A3EFF0900501EAF0A3EBF064
:105B62009004FFECF0A3EDF09004FDE0FAA3E0FB5B
:105B7200FFAE02C007A3E0FFA3E0900462CFF0A350
:105B8200EFF0D0071255E8900501E0FEA3E0FF0216
:025B92005F6052
:063E7900F583E02430FB9C
:103E7F00900464EEF0A3EFF0A3ECF0A3EDF0A3EB4E
:013E8F00F042
:103E9000E4A3F0900469E0F9C39410748094804026
:103EA00003023F58E9FF900467E02FFD900466E0AD
:103EB0003400FC900465E02407FB900464E03400C7
:103EC000FA7E00900466E0F8A3E02FFFEE3890043D
:103ED00062F0A3EFF0900464E0FEA3E0FF1255E867
:103EE000900468E0FF3395E0FEEFC4F8540FC86813
:103EF000FFEEC454F048FE74962FF58274FE3EF532
:103F000083C083C082900469E0D082D0832582F58B
:103F100082E43583F583E49390046BF0E490046AC3
:103F2000F090046AE0C39408748094805021A3E068
:103F300030E0067F007EF8800474FFFFFE125F60B1
:103F400090046BE0C313F090046AE004F080D29018
:083F50000469E004F0023E9355
:013F58002246
:104FB700900429EEF0A3EFF0A3ECF0A3EDF0A3EB40
:074FC700F0A3EAF0A3E9F0FA
:104FCE00E4A3F0A3F090042DE0FBA3E0FAA3E0F934
:104FDE00A3E0FEA3E0FFF5828E831212AFFB603ECC
:104FEE00EF7803C333CE33CED8F9FF90042AE02FE7
:104FFE00FF900429E03EFE90042CE0C4F8540FC844
:10500E0068FD90042BE0C454F048FC123E7F9004DF
:0E501E0031E004F070AF900430E004F080A7A1
:01502C002261
:10410F00900432EEF0A3EFF0A3ECF0A3EDF0A3EBED
:01411F00F0AF
:104120003395E0C364809480900435E0C4F8540F64
:10413000C868FD900434E0C454F048FC900432E0B8
:10414000FEA3E0FF500E7B2D123E7F900436E0F47C
:1041500004F080057B20123E7F900436E0FF75F06E
:1041600064121274900437F0EF75F00A121274FFA3
:1041700075F00A121274AFF0900438EFF090043624
:10418000E0FF75F00A121274AFF0900439EFF0E41A
:10419000A3F090043AE0FBFF7E00C3940374809484
:1041A000805045EF2401FFEE33FEEF7803C333CE9A
:1041B00033CED8F9FF900433E02FFF900432E03E75
:1041C000FE900435E0C4F8540FC868FD900434E054
:1041D000C454F048FC74372BF582E43404123E7961
:0841E00090043AE004F080AA0B
:0141E80022B4
:0E4E540090046CEEF0A3EFF0A3ECF0A3EDF0F1
:104E6200EB75F06484A3F0EB75F00A8475F00A84A4
:104E7200A3E5F0F0EB75F00A84A3E5F0F0E4A3F00B
:104E8200900473E0C3940374809480503BE0FB75FC
:104E9200F008A4FF90046DE02FFF90046CE035F061
:104EA200FE90046FE0C4F8540FC868FD90046EE0F1
:104EB200C454F048FC74702BF582E43404123E7939
:084EC200900473E004F080B8D5
:014ECA0022C5
:103761009003AAEEF0A3EFF0A3ECF0A3EDF0A3EA2F
:04377100F0A3EBF0E6
:10377500C3EA648094809003ADE0C4F8540FC86830
:10378500FD9003ACE0C454F048FC9003AAE0FEA30E
:10379500E0FF501C7B2D123E7F9003AEE0FEA3E0C0
:1037A500FFC3E49FFFE49E9003AEF0A3EFF0800516
:1037B5007B20123E7F9003AEE0FAA3E0FB7C277DE1
:1037C50010FFAE02121377A3EFF07C037DE8AF0381
:1037D500AE021213777C007D0A121377A3EDF090E9
:1037E50003AEA3E07C007D64FFAE021213777C007C
:1037F5007D0A1213779003B2EDF07C007D0AAF03CA
:10380500AE021213777C007D0A121377A3EDF090B8
:1038150003AEE0FEA3E0FF7C007D0A121377900360
:10382500B4EDF0E4A3F09003B5E0FBFF7E00C39494
:1038350005748094805045EF2401FFEE33FEEF7848
:1038450003C333CE33CED8F9FF9003ABE02FFF90FF
:1038550003AAE03EFE9003ADE0C4F8540FC868FD2E
:103865009003ACE0C454F048FC74B02BF582E4340A
:0C38750003123E799003B5E004F080AA35
:013881002224
:0E45BD00900403EEF0A3EFF0A3ECF0A3EDF0FA
:1045CB007C277D10AF03AE02121322A3EFF07C0306
:1045DB007DE8AF03AE021213227C007D0A12132278
:1045EB00A3EDF07C007D64AF03AE021213227C00BE
:1045FB007D0A121322A3EDF07C007D0AAF03AE02FD
:10460B001213227C007D0A121322A3EDF0AE02AF2F
:10461B00037C007D0A121322A3EDF0E4A3F09004B7
:10462B000CE0C3940574809480503BE0FB75F0085C
:10463B00A4FF900404E02FFF900403E035F0FE90FC
:10464B000406E0C4F8540FC868FD900405E0C45498
:10465B00F048FC74072BF582E43404123E79900485
:06466B000CE004F080B831
:014671002226
:0E3CA1009002E3EEF0A3EFF0A3ECF0A3EDF041
:103CAF009002EBE0FFC3740A9F7480F8985003747E
:103CBF000AF09002EBE004F09002E7E0FCA3E0FDD5
:103CCF00A3E0FEA3E0FFE4FBFAF9F8D312153C40A2
:103CDF00319001D174FFF0A37465F0A3743BF090A1
:103CEF0002E7E0FCA3E0FDA3E0FEA3E0FF9001D418
:103CFF001215960B7A0279EC121D3390030EEFF02A
:103D0F0080389002EC7420F09001D174FFF0A3740E
:103D1F0065F0A3743BF09002E7E0FCA3E0FDA3E0A5
:103D2F00FEA3E0FF9001D41215967B017A0279ED84
:103D3F00121D3390030EEFF0801E9002EBE0FF9008
:103D4F00030EE0FEC39F501574EC2EF582E434028F
:103D5F00F5837420F090030EE004F080DD74EC2FF7
:103D6F00F582E43402F583E4F09002E3E0FEA3E091
:103D7F00FFA3E0FCA3E0FD7B017A0279EC024FB7D1
:0E30AE00900259EEF0A3EFF0A3ECF0A3EDF0CA
:1030BC00900262E0FFC374069F7480F8985003740A
:1030CC0006F0900261E0FFC3740A9F7480F8985078
:1030DC0003740AF090025DE0FCA3E0FDA3E0FEA304
:1030EC00E0FFE4FBFAF9F812113C9001D160314099
:1030FC002F74FFF0A37465F0A3743EF090025DE0B2
:10310C00FCA3E0FDA3E0FEA3E0FF9001D412159612
:10311C007B017A027964121D33900263EFF08030E8
:10312C0074FFF0A37465F0A3743EF090025DE0FCB4
:10313C00A3E0FDA3E0FEA3E0FF9001D41215967B63
:10314C00017A027965121D33900263EFF0E004F00E
:10315C00900263E024F9FD900261E0FEC3ED9E1441
:10316C00900286F0900262E0AE052E04900287F089
:10317C00900286E0FF3395E0FED3E49FEE6480F886
:10318C007480984022A3E0FF3395E0FE74642FF521
:10319C008274023EF5837420F0900287E004F09074
:1031AC000286E004F080C990025DE0FCA3E0FDA380
:1031BC00E0FEA3E0FFE4FBFAF9F812113C90028662
:1031CC0060174015E0FF3395E0FE74642FF58274B0
:1031DC00023EF583742DF08013E0FF3395E0FE740E
:1031EC00642FF58274023EF5837420F0900287E020
:1031FC00FF3395E0FE74642FF58274023EF583E490
:10320C00F0900259E0FEA3E0FFA3E0FCA3E0FD7BFD
:08321C00017A027964024FB748
:102DA50090033BEEF0A3EFF0A3ECF0A3EDF0A3EB63
:022DB500F0F933
:102DB700E0FF131313541F90034DF0900343E08F6C
:102DC700F0A424FFFDE5F034FFFC90033BE0FEA3F5
:102DD700E0FF2DFBEE3CFAC002C003C006A3E0FCF7
:102DE700A3E0FDE9FB7A0090033DE0F8A3E02BFBAD
:102DF700EA38CB24FFFEEB34FF900462F0A3CEF059
:102E0700D006D003D0021255E8E4900346F0A3F0B1
:102E170090033FE0FF900346E0FCA3E0FDC39F74EF
:102E270080F8EC6480984003022F37900343E090CA
:102E3700034CF0A3E0FF7E00121310900340E0FB69
:102E4700A3E0FAA3E02FF9EA3E022F1790034CE024
:102E5700FF14F0EF7003022F26E490034AF0A3F06B
:102E670090034DE0FFC390034BE09F7480F89003FD
:102E77004AE06480985076900348E4F0A37408F021
:102E8700900348E0FEA3E0FFD39400EE64809480B3
:102E9700404090034EE0FBA3E0FAA3E0F91212963C
:102EA700FDEF14FFF8ED088002C313D8FC5401604E
:102EB7000A900344E0FEA3E0FF800474FFFFFE12C4
:102EC7005F60900349E024FFF0900348E034FFF08F
:102ED70080AE90034FE475F0011213AD90034BE001
:102EE70004F0700690034AE004F0022E6790034D49
:102EF700E0FFFDA3E0FBA3E0FAA3E0C39DF9EA949A
:102F070000FA90033FE0FEEF8EF0A429F9EA35F0CE
:102F1700FA90034EEBF0A3EAF0A3E9F0022E5390E8
:102F27000347E004F07006900346E004F0022E1712
:012F37002277
:1061C400E4FB7D6B7F681262B67B077D197F6812E2
:1061D40062B6E4FB7D197F68125CCFEF640770F24E
:0161E4002298
:105894007F647E001263AA1261C4E4FB7D6B7F689F
:1058A4001262B67B077D197F681262B67B047D1A8B
:1058B4007F681262B67B187D1B7F681262B67B100C
:1058C4007D1C7F681262B6E4FB7D6A7F681262B653
:0958D4007B027D377F680262B699
:1056D3007B017A0579039004967406F0E4A3F07DC8
:1056E3003B7F68124D64900503E0FEA3E0FDEDFFF0
:1056F3009003B6EEF0A3EFF0900505E0FEA3E0FD06
:10570300EDFF9003B8EEF0A3EFF0900507E0FEA3E2
:0C571300E0FDEDFF9003BAEEF0A3EFF014
:01571F002267
:105720007B017A0579099004967406F0E4A3F07D74
:10573000437F68124D64900509E0FEA3E0FDEDFF94
:105740009003BCEEF0A3EFF090050BE0FEA3E0FDAC
:10575000EDFF9003BEEEF0A3EFF090050DE0FEA389
:0C576000E0FDEDFF9003C0EEF0A3EFF0C1
:01576C00221A
:0A6519002D00200025640025660017
:055F8300F583E493FF2B
:105F88007E08C2A2D2A1C2A5AD061EED6014EF30F4
:105F9800E704D2A38002C2A3D2A5C2A5EF25E0FFE1
:045FA80080E6D2A21B
:015FAC0022D2
:106135007E06C2A2D2A1C2A5AD061EED6014EF3047
:10614500E704D2A38002C2A3D2A5C2A5EF25E0FF32
:0461550080E6D2A26C
:016159002223
:085EA90054F0C4540F4410FF33
:105EB1007E08C2A2C2A1C2A5AD061EED6014EF30DC
:105EC100E704D2A38002C2A3D2A5C2A5EF25E0FFB9
:045ED10080E6D2A2F3
:015ED50022AA
:104CE200900498EEF0A3EFF0A3EBF0A3EAF0A3E9AF
:014CF200F0D1
:104CF30090049E7406F090049AE0FBA3E0FAA3E00C
:104D0300F990049EE0F582758300E4804E90049E42
:104D1300E0604D14F0900498E0FAA3E0FB7C007D82
:104D23000AFFAE0212132290049DEDF07C007D0A6F
:104D3300AF03AE02121322900498EEF0A3EFF090AB
:104D4300049DE02430FF90049AE0FBA3E0FAA3E083
:104D5300F990049EE0F582758300EF1212EE80ADA8
:014D6300222D
:10471E00D2A2D2A5C2A07F327E001263AAD2A07FFF
:10472E00AE125EB1E4FF125EB17F10125EB17F4039
:10473E00125EB17F81125EB17F7F125EB17FA112D8
:10474E005EB17FC8125EB17FA6125EB17FA8125E07
:10475E00B17F3F125EB17FD3125EB1E4FF125EB144
:10476E007FD5125EB17F80125EB17FD9125EB17FAE
:10477E00F1125EB17FDA125EB17F12125EB17FDB93
:10478E00125EB17F40125EB17F20125EB17F0212C7
:10479E005EB17F8D125EB17F14125EB17FA4125E88
:1047AE00B17FA6125EB17FAF125EB1E4FF125D79EA
:0647BE00E4FDFF0263D2DE
:1063D200AC07ED24B0FF125EB1EC125EA9EC540FD3
:0463E200FF025EB1A7
:025D7900AC0775
:105D7B00E4FBEBC39408748094805028EB24B0FFB1
:105D8B00125EB17F01125EB17F10125EB1E4FAEACE
:105D9B00C39480748094805008AF04125F880A808B
:045DAB00EE0B80CEAD
:015DAF0022D1
:10620600AA07A9051263D2E924B0FF125EB1EA1209
:0E6216005EA9EA540FFF125EB1AF03025F886B
:10622400AB07AA051263D2EA24B0FF125EB1EB12E7
:0E6234005EA9EB540FFF125EB1E4FF025F881B
:104A280090049FEFF0A3EDF0A3EBF0A3EAF0A3E965
:014A3800F08D
:104A3900E4A3F0FCA3F09004A1E0FBA3E0FAA3E057
:104A4900F99004A5E0F5827583001212AF605F2426
:104A5900E09004A4F090049FE0D3947E7480948045
:104A69004006E4F0A3E004F090049FE0FFA3E0FD1A
:104A79001263D2E4FCECC3940674809480502090B5
:104A890004A4E075F006A42486F582E5F03406F561
:104A990083E5822CF582E43583125F830C80D690FE
:0E4AA900049FE02406F09004A5E004F080884D
:014AB70022DC
:1042B8009004A6EFF0A3EDF0A3EBF0A3EAF0A3E9D6
:0142C800F005
:1042C900E4A3F0FCA3F09004A8E0FBA3E0FAA3E0C8
:1042D900F99004ACE0F5827583001212AF70030205
:1042E900438324E09004ABF09004A6E0D39478745F
:1042F9008094804006E4F0A3E004F09004A6E0FF77
:10430900A3E0FD1263D2E4FCECC3940874809480AA
:1043190050209004ABE075F010A42CF582E435F040
:10432900F583E58224AEF582E5833408125F830CB8
:1043390080D69004A6E0FFA3E004FD1263D2E4FC5A
:10434900ECC394087480948050209004ABE075F01D
:1043590010A42CF582E435F0F583E58224B6F582C4
:10436900E5833408125F830C80D69004A6E0240804
:0A437900F09004ACE004F00242CF23
:014383002217
:0860C40090043BEFF0A3EDF0A6
:1060CC00AE02AF037B017A04793D124CE290043BA3
:0E60DC00E0FFA3E0FD7B017A04793E024A2832
:0E502D009003D9EFF0A3EDF0A3EAF0A3EBF0AF
:10503B00C3EA6480948050259003DBE0FEA3E0FF7D
:10504B00C3E49FFFE49E9003DBF0A3EFF09003D942
:10505B00E0FFA3E0FD7BFF7A657919800E9003D901
:10506B00E0FFA3E0FD7BFF7A65791B124A289003D2
:10507B00D9E02406F09003DBE0FEA3E0FF7B017A8E
:10508B000379DD124CE29003D9E0FFA3E0FD7B0135
:07509B007A0379DE024A28C6
:0E3D8F0090030FEEF0A3EFF0A3ECF0A3EDF025
:103D9D00900317E0FFC3740A9F7480F89850037462
:103DAD000AF0900317E004F0900313E0FCA3E0FD8C
:103DBD00A3E0FEA3E0FFE4FBFAF9F8D312153C40B3
:103DCD00319001D174FFF0A37465F0A3741DF090D0
:103DDD000313E0FCA3E0FDA3E0FEA3E0FF9001D4FC
:103DED001215960B7A037918121D3390033AEFF0E2
:103DFD0080389003187420F09001D174FFF0A374F3
:103E0D0065F0A3741DF0900313E0FCA3E0FDA3E0A7
:103E1D00FEA3E0FF9001D41215967B017A03791968
:103E2D00121D3390033AEFF0801E900317E0FF90C0
:103E3D00033AE0FEC39F501574182EF582E4340347
:103E4D00F5837420F090033AE004F080DD74182FB0
:103E5D00F582E43403F583E4F090030FA3E0FFA3B0
:0C3E6D00A3E0FD7B017A037918024A28CB
:0E322400900288EEF0A3EFF0A3ECF0A3EDF023
:10323200900291E0FFC374069F7480F89850037463
:1032420006F0900290E0FFC3740A9F7480F89850D1
:1032520003740AF090028CE0FCA3E0FDA3E0FEA35D
:10326200E0FFE4FBFAF9F812113C9001D160314021
:103272002F74FFF0A37465F0A37420F090028CE029
:10328200FCA3E0FDA3E0FEA3E0FF9001D41215969B
:103292007B017A027993121D33900292EFF0803013
:1032A20074FFF0A37465F0A37420F090028CE0FC2C
:1032B200A3E0FDA3E0FEA3E0FF9001D41215967BEC
:1032C200017A027994121D33900292EFF0E004F039
:1032D200900292E024F9FD900290E0FEC3ED9E146C
:1032E2009002B5F0900291E0AE052E049002B6F085
:1032F2009002B5E0FF3395E0FED3E49FEE6480F8E0
:103302007480984022A3E0FF3395E0FE74932FF57A
:103312008274023EF5837420F09002B6E004F090CD
:1033220002B5E004F080C990028CE0FCA3E0FDA3AA
:10333200E0FEA3E0FFE4FBFAF9F812113C9002B5BB
:1033420060174015E0FF3395E0FE74932FF5827409
:10335200023EF583742DF08013E0FF3395E0FE7496
:10336200932FF58274023EF5837420F09002B6E04A
:10337200FF3395E0FE74932FF58274023EF583E4E9
:10338200F0900288A3E0FFA3A3E0FD7B017A02791B
:0433920093024A2830
:10177700900366ECF0A3EDF0A3EBF0A3EAF0A3E986
:09178700F0900364EEF0A3EFF012
:101790007E005407FF900372EEF0A3EFF0701790F5
:1017A0000364E0FEA3E07803CEC313CE13D8F9FFA1
:1017B000900370EE8018900364E0FEA3E07803CEFF
:1017C000C313CE13D8F92401FFE43E900370F0A3B5
:1017D000EFF0E490036CF0A3F0900370E0FEA3E060
:1017E000FF90036CE0FCA3E0FDC39FEE6480F8EC87
:1017F0006480984003021D32E4FF1263D2E4A3F038
:10180000A3F0900366E0FCA3E0FDC390036FE09DAE
:1018100090036EE09C4003021D21E4900374F0905D
:101820000371E024FFFF900370E034FFFE90036C2F
:10183000E0FAA3E0FBC39FEE6480F8EA648098407E
:1018400015900372E0FEA3E0FF4E600AEF9401EEF4
:1018500064809480404D900374E0FFC007AE02EBBB
:101860007803C333CE33CED8F9FF12131090036838
:10187000E0FBA3E0FAA3E02FF9EA3EFA90036EE062
:10188000FEA3E029F9EA3EFA121296FF90036BE0FC
:10189000FEEFD39E40047E0180027E00D0E04E9099
:1018A0000374F0900371E024FFFF900370E034FFB5
:1018B000FE90036CE0FCA3E0FDC39FEE6480F8ECB7
:1018C0006480984015900372E0FEA3E0FF4E600A2A
:1018D000EF9402EE648094804063900374E0FFC054
:1018E00007AE04ED7803C333CE33CED8F9FF9003AF
:1018F00066E0FCA3E0FD121310A3E0FBA3E0FAA353
:10190000E02FF9EA3EFA90036EE0FEA3E029F9EA3F
:101910003EFA900366E0FEA3E029F9EA3EFA1212CD
:1019200096FF90036BE0FEEFD39E40047F018002A0
:101930007F00EF25E0FED0E04E900374F09003713D
:10194000E024FFFF900370E034FFFE90036CE0FCA6
:10195000A3E0FDC39FEE6480F8EC6480984015908E
:101960000372E0FEA3E0FF4E600AEF9403EE648092
:101970009480406C900374E0FFC007AE04ED7803E0
:10198000C333CE33CED8F9FF900366E0FCA3E0FD6D
:10199000121310A3E0FBA3E0FAA3E02FF9EA3EFA4A
:1019A00090036EE0FEA3E029F9EA3EFA900367E0B7
:1019B00025E0FF900366E033FEE92FF9EA3EFA12D4
:1019C0001296FF90036BE0FEEFD39E40047F0180F0
:1019D000027F00EF25E025E0FED0E04E900374F09A
:1019E000900371E024FFFF900370E034FFFE90034A
:1019F0006CE0FCA3E0FDC39FEE6480F8EC6480988B
:101A00004015900372E0FEA3E0FF4E600AEF9404DD
:101A1000EE64809480406A900374E0FFC007AE04D7
:101A2000ED7803C333CE33CED8F9FF900366E0FCE4
:101A3000A3E0FD121310A3E0FBA3E0FAA3E02FF94B
:101A4000EA3EFA90036EE0FEA3E029F9EA3EFA903E
:101A50000366E0FEA3E0F5828E8374031215D312B1
:101A600012AFFF90036BE0FEEFD39E40047F018036
:101A7000027F00EF33333354F8FED0E04E9003740E
:101A8000F0900371E024FFFF900370E034FFFE90BC
:101A9000036CE0FCA3E0FDC39FEE6480F8EC64807F
:101AA000984015900372E0FEA3E0FF4E600AEF94A9
:101AB00005EE64809480406D900374E0FFC007AE33
:101AC00004ED7803C333CE33CED8F9FF900366E03C
:101AD000FCA3E0FD121310A3E0FBA3E0FAA3E02FA8
:101AE000F9EA3EFA90036EE0FEA3E029F9EA3EFA35
:101AF000900366E0FEA3E07802C333CE33CED8F97C
:101B000029F9EA3EFA121296FF90036BE0FEEFD33A
:101B10009E40047F0180027F00EFC454F0FED0E0BD
:101B20004E900374F0900371E024FFFF900370E087
:101B300034FFFE90036CE0FCA3E0FDC39FEE6480E5
:101B4000F8EC6480984015900372E0FEA3E0FF4E2D
:101B5000600AEF9406EE648094804069900374E01C
:101B6000FFC007AE04ED7803C333CE33CED8F9FF00
:101B7000900366E0FCA3E0FD121310A3E0FBA3E0DA
:101B8000FAA3E02FF9EA3EFA90036EE0FEA3E02903
:101B9000F9EA3EFA900366E0FEA3E0F5828E8374D4
:101BA000051215D31212AFFF90036BE0FEEFD39E28
:101BB00040047F0180027F00EFC43354E0FED0E098
:101BC0004E900374F0900371E024FFFF900370E0E7
:101BD00034FFFE90036CE0FCA3E0FDC39FEE648045
:101BE000F8EC6480984015900372E0FEA3E0FF4E8D
:101BF000600AEF9407EE64809480406A900374E07A
:101C0000FFC007AE04ED7803C333CE33CED8F9FF5F
:101C1000900366E0FCA3E0FD121310A3E0FBA3E039
:101C2000FAA3E02FF9EA3EFA90036EE0FEA3E02962
:101C3000F9EA3EFA900366E0FEA3E0F5828E837433
:101C4000061215D31212AFFF90036BE0FEEFD39E86
:101C500040047F0180027F00EFC4333354C0FED0C4
:101C6000E04E900374F0900371E024FFFF90037046
:101C7000E034FFFE90036CE0FCA3E0FDC39FEE6444
:101C800080F8EC6480984015900372E0FEA3E0FFBA
:101C90004E600AEF9408EE64809480406B90037469
:101CA000E0FFC007AE04ED7803C333CE33CED8F9DE
:101CB000FF900366E0FCA3E0FD121310A3E0FBA37A
:101CC000E0FAA3E02FF9EA3EFA90036EE0FEA3E00B
:101CD00029F9EA3EFA900366E0FEA3E0F5828E83DE
:101CE00074071215D31212AFFF90036BE0FEEFD30F
:101CF0009E40047F0180027F00EFC4333333548061
:101D0000FED0E04E900374F0900374E0FF125F8801
:101D100090036FE004F0700690036EE004F0021888
:101D20000290036DE004F0700690036CE004F00292
:021D300017D9C1
:011D3200228E
:0B41E900900385EFF0A3EDF0A3EBF0D6
:1041F400E490038CF0A3F090038BE0FFC390038D55
:10420400E09F7480F890038CE0648098400302423D
:10421400B7E490038EF0A3F0900387E0FF13131329
:10422400541FFD90038EE0FAA3E0FBC39D7480F855
:10423400EA648098506990038CA3E08FF0A4FF9007
:104244000385E02FFFA3E02BFD1263D2E4900390DB
:10425400F0A3F0900388E0FBA3E0FAA3E0F91212C4
:1042640096FF125F88900389E475F0011213AD90F4
:104274000391E004F07006900390E004F0C390030F
:1042840091E09410900390E06480948040C5900382
:104294008FE004F0708290038EE004F002421C90E0
:1042A400038DE004F060030241FB90038CE004F012
:0342B4000241FBC9
:0142B70022E4
:10642100EF1FAA0670011E4A60087D091DED60F08C
:0264310080FAEF
:016433002246
:0B5ED600C2CCEF4480FF125EE1AF057C
:105EE100E4FEEEC39408748094805015EF3392FD64
:105EF100EF25E0FFC2FFD2FFA2FEE4334FFF0E8089
:015F0100E1BE
:015F0200227C
:06654100125ED6D2CC224E
:10639500C2CCEF4440FF125EE1E4FF125EE1EF1272
:0563A50012DCD2CC2245
:1061E500125ED6D2CCC2CCE4FF125EE1AC07E4FF6E
:1061F500125EE1D2CCAF04ED6F60037F01227F0018
:016205002276
:105C1500900538EBF0A3EAF0A3E9F0C2CCEF4440DD
:105C2500FF125EE1E4FF125EE1D2CC7F017E00123D
:105C35006421C2CCE4FF125EE1900538E0FBA3E0ED
:105C4500FAA3E0F9EF1212DCE4FF125EE1D2CC22F6
:10607600AB07AA06C3E49BFB74109AFAEBC4F85468
:106086000FC868FBEAC454F048FAAD03E4FF126196
:08609600E5EAFD7F010261E56E
:10615A00C2CCE4FF125EE1AD07ED7D00FCE4FF1264
:10616A005EE1D2CCAE04EEC4F854F0C868FEEFC4C7
:04617A00540F48FF77
:01617E0022FE
:1063E6007B017A05795F7F06125C1590055FE06494
:0363F6001C70ED2B
:0163F9002281
:10649B001263E6E4FD7F091261E5E4FFFE0260761C
:0E647A00EBF0A3EAF0A3E9F0C2CCEF4440FF40
:0364880002000609
:10630700900560EDF0C2CCEF4480FF1264889005E1
:0963170060E0FF126488D2CC2280
:1062990090053B12647AE4FF125EE190053BE0FB56
:0D62A900A3E0FAA3E0F9EF1212DCD2CC2240
:055C9200900549EDF052
:105C9700C2CCEF4480FF126488900549E0FF12648C
:105CA70088D2CCC2CCE4FF12648890054AEFF0E4B6
:105CB700FF126488D2CC90054AE0FF900549E06F57
:075CC70060037F01227F0052
:015CCE0022B3
:105F2E0090053E12647AE4FF126488D2CCC2CCE4AF
:105F3E00FF12648890053EE0FBA3E0FAA3E0F9EFC0
:0B5F4E001212DCE4FF126488D2CC22A7
:105D0A0090054BEEF0A3EFF0C3E49FF074109E9061
:105D1A00054BF0A3E0C4F8540FC868FF90054BE0A8
:105D2A00C454F048F0A3EFF0FDE4FF125C92900532
:085D3A004BE0FD7F01025C92C9
:105B9400E490054DF0A3F0C2CCFF12648890054D4B
:105BA400E4F0A3EFF0E0F8E4F0E890054DF0E4FF52
:105BB40012648890054DE0F0A3E04FF0D2CC90053C
:105BC4004DE0C4F854F0C868FEA3E0C4540F48FF85
:015BD40022AE
:1063FA007B017A0579617F06125F2E900561E06460
:03640A001C70ED16
:01640D00226C
:1060EA0090047F7422F0E4A3F0A3F0A3F07B217D57
:1060FA00207F0212444F1263FAE4FD7F09125C9278
:06610A00E4FFFE025D0A45
:106320009004771215A20001C20090047B7404F05F
:096330007B117D107F03022A1C81
:104672009004ADEBF0A3EAF0A3E9F0A38062E47F3B
:104682001EFEFDFC9004B0E0F8A3E0F9A3E0FAA35B
:10469200E0FBD3121552404D308702804B9004AD9F
:1046A200E0FBA3E0FAA3E0F99004C5E4F0A3741ED2
:1046B200F07F03125FFE9004AEE475F01E1213AD9C
:1046C2009004B0E0FCA3E0FDA3E0FEA3E0C3941ECF
:1046D200FFEE9400FEED9400FDEC9400FC9004B01B
:1046E200121596809930870F9004B0E0FCA3E0FD8C
:1046F200A3E0FEA3E0FF229004ADE0FBA3E0FAA357
:10470200E0F9A3A3A3E0FFA3E09004C5CFF0A3EFD9
:0C471200F07F03125FFEE4FFFEFDFC22BE
:0E4997009004B4EBF0A3EAF0A3E9F0A3EDF076
:1049A50074FFA3F0A3F0E4A3F09004B7E0FF900434
:1049B500BAE0FEC39F50639004B4E0FBA3E0FAA302
:1049C500E0F98E827583001212AFFF9004B8E0F013
:1049D500A3E06FF0E4FDEDC3940874809480503239
:1049E5009004B8E0FEA3E0FF30E019EEC313FEEF3C
:1049F50013FFEE64A0FEEF6401FF9004B8EEF0A390
:104A0500EFF0800B9004B8E0C313F0A3E013F00DB2
:104A150080C49004BAE004F0808F9004B8E0FEA34F
:024A2500E0FFB0
:014A2700226C
:1047C4009003E6ECF0A3EDF0A3EAF0A3EBF0900382
:0647D400E4EEF0A3EFF09B
:1047DA00E4FC9003ECE0FBA3E0FAA3E0F9EF121289
:1047EA00DC9003E4E0FEEEFF9003ECE0FBA3E0FACA
:1047FA00A3E0F9900001EF1212EE9003E6A3E09015
:10480A0000021212EE9003E6E0FEEE90000312128E
:10481A00EE9003E8A3E09000041212EE9003E8E0A1
:10482A00FEEE9000051212EE9003EAA3E090000655
:10483A001212EE9003EAE0FEEE9000071212EE7DED
:10484A00081249979003ECE0FBA3E0FAA3E0F99081
:0D485A000008EF1212EEEE9000090212EEBF
:102BEF00900200E0FBA3E475F0041213C3A9F0FAFE
:102BFF00121576900225121596900225E0FCA3E09F
:102C0F00FDA3E0FEA3E0FF7B017A027904E49003C9
:062C1F0058F0A37410F050
:102C2500900351121596900355EBF0A3EAF0A3E932
:012C3500F0AE
:102C3600E4900362F0A3F0900358E07003022CF4D2
:102C4600900351E0FCA3E0FDA3E0FEA3E0FF9003A8
:102C56005A12159690035AE0FCA3E0FDA3E0FEA3EA
:102C6600E0FFEC33501090035AA3A3A3E012152EF5
:102C760090035A121596900359E0FBE4FAF9F8A36B
:102C8600E0FCA3E0FDA3E0FEA3E0FF125A8AEB24DA
:102C960030FF900355E0FBA3E0FAA3E0F9EF121230
:102CA600DC90035AE0FCA3E0FDA3E0FEA3E0FFC036
:102CB60007900359E0FBE4FAF9F8D007125A8A9014
:102CC600035A121596900363E004F090035AE0FC51
:102CD600A3E0FDA3E0FEA3E0FFEC4D4E4F70030220
:102CE6002D9F900356E475F0011213AD8088900372
:102CF60051E0FCA3E0FDA3E0FEA3E0FF90035E121B
:102D06001596900359E0FBE4FAF9F890035EE0FCAF
:102D1600A3E0FDA3E0FEA3E0FF12149CAF03900323
:102D260062EFF0D3740A9F7480F8985006E0243757
:102D3600F08007900362E02430F0900362E0FF9099
:102D46000355E0FBA3E0FAA3E0F9EF1212DC9003CF
:102D56005EE0FCA3E0FDA3E0FEA3E0FFC007900356
:102D660059E0FBE4FAF9F8D00712149C90035E12BE
:102D76001596900363E004F090035EE0FCA3E0FD8B
:102D8600A3E0FEA3E0FFEC4D4E4F600D900356E42A
:0E2D960075F0011213AD022D08900363E0FFEB
:012DA400220C
:103ABA00900229EFF07B017A027904E0FFE4FCFD31
:013ACA00FEFD
:0F3ACB009003C2EBF0A3EAF0A3E9F0A312159663
:103ADA009003C91215A200000000E47B02FAF9F86B
:103AEA009003C5E0FCA3E0FDA3E0FEA3E0FF1214EF
:103AFA009C9003C9E0F8A3E0F9A3E0FAA3E0FBC3B2
:103B0A001215524003023BB29003C5A3A3E0FEA3E1
:103B1A00E024FFFBEE34FFFAA3A3A3E0FEA3E0FF39
:103B2A00C3EB9FFDEA9EFC9003C2E0FBA3E0FAA36D
:103B3A00E0F98D828C831212AF9003CDF08F828EC2
:103B4A00831212AFFFC0079003C5A3A3E0FEA3E050
:103B5A0024FFFBEE34FFFAA3A3A3E0FEA3E0FDAC2F
:103B6A0006C3EB9DFFEA9CFE9003C2E0FBA3E0FACA
:103B7A008F828E83D0E01212EE9003CDE0FFEF8D9C
:103B8A00828C831212EE9003C9E0FCA3E0FDA3E04D
:103B9A00FEA3E02401FFE43EFEE43DFDE43CFC908C
:083BAA0003C9121596023AE46A
:013BB20022F0
:0B1D33009001CEEBF0A3EAF0A3E9F072
:101D3E009001FC1215A2000000009002007401F048
:101D4E00A37401F0A374D4F09001D1E0FBA3E0FAE8
:0B1D5E00A3E0F912129670030222BDF0
:101D6900900203F0642560030222699001D1A3E483
:101D790075F0011213ADA9F0FA1212961216042287
:101D890035251E3746210F581DB0631DCC641E37FB
:101D9900661DCC6920946F21DC70216373200E7558
:071DA900210F78000022B0B9
:101DB000900200E0FBA3E475F0041213C3A9F0FA4B
:091DC000121576900204EFF0E028
:031DC9000222777C
:101DCC00900200E0FBA3E475F0041213C3A9F0FA2F
:101DDC00121576900225121596900225E0FCA3E0D0
:101DEC00FDA3E0FEA3E0FF7B017A02790490035887
:101DFC007401F0A3740AF0122C25900229EFF090D4
:101E0C000225E0FCA3A3A3EC335014A3E02404F5B7
:101E1C0082E43402F583742DF0900229E004F07B07
:081E2C00017A027904900229F9
:031E340002205237
:101E3700900200E0FBA3E475F0041213C3A9F0FAC3
:101E4700121576900225121596900225E0FCA3E064
:101E5700FDA3E0FEA3E0FF1211F37B017A027904F0
:101E67009003587401F0A3740AF0122C25900229EC
:101E7700EFF0E4FFFEFDFC900225E0F8A3E0F9A3F4
:101E8700E0FAA3E0FB12113C5016900229E024046B
:101E9700F582E43402F583742DF0900229E004F012
:101EA7007B017A027904900229123AC5900229E04F
:101EB700FF7E009001CEE0FBA3E0FAA3E0F8AC02BE
:101EC700AD037B017A0279041216F6900229E0FF2E
:101ED700FD9001CFE48DF01213AD9001FCE0F8A363
:101EE700E0F9A3E0FAA3E0FBE4FCFDFEEB2FFFEE35
:101EF7003AFEED39FDEC38FC9001FC121596900284
:101F070025E0FCA3E0FDA3E0FEA3E0FF1211F3EC44
:101F17001211B5A804A905AA06AB07900225E0FC93
:101F2700A3E0FDA3E0FEA3E0FF120EA17B007A244D
:101F370079747849120F969002251215969002250A
:101F4700E0FCA3E0FDA3E0FEA3E0FFEC4D4E4F60F5
:101F570024900225A3A3A3E01211F37B017A02794F
:101F6700049003587401F0A3740AF0122C25900210
:101F770029EFF080209002097430F0900208F09069
:101F87000207F0900206F0900205F0900204F0902C
:101F970002297406F0900229E0FFFDD374069D74B0
:101FA70080F898401574042FF582E43402F58374A1
:101FB70030F0900229E004F080DB900229E024044D
:101FC700F582E43402F583742EF0900229E00412BE
:101FD7003ABE900229E0FF7E009001CEE0FBA3E02D
:101FE700FAA3E0F8AC02AD037B017A02790412167A
:101FF700F69001FCE0F8A3E0F9A3E0FAA3E0FB9078
:072007000229E0FF02215154
:10200E00900200E0FBA3E475F0041213C3A9F0FAEA
:10201E00121576900225121596900225E0FCA3E08B
:10202E00FDA3E0FEA3E0FF7B017A027904E49003B6
:10203E0058F0A3740AF0122C25900229EFF07B01C0
:10204E007A027904123AC5900229E0FF7E009001CF
:10205E00CEE0FBA3E0FAA3E0F8AC02AD037B017A7D
:10206E000279041216F6900229E0FFFD9001CFE4EA
:10207E008DF01213AD9001FCE0F8A3E0F9A3E0FAA5
:03208E00A3E0FBD1
:03209100022151D8
:10209400900200E0FBA3E475F0041213C3A9F0FA64
:1020A400121576900225121596900225E0FCA3E005
:1020B400FDA3E0FEA3E0FF7B017A027904E4900330
:1020C40058F0A37408F0122C25123ABA900229E0B1
:1020D400FF7E009001CEE0FBA3E0FAA3E0F8AC029F
:1020E400AD037B017A0279041216F6900229E0FF0F
:1020F400FD9001CFE48DF01213AD9001FCE0F8A344
:08210400E0F9A3E0FAA3E0FBFF
:03210C000221515C
:10210F00122BEF123ABA900229E0FF7E009001CE17
:10211F00E0FBA3E0FAA3E0F8AC02AD037B017A0287
:10212F0079041216F6900229E0FFFD9001CFE48D9D
:10213F00F01213AD9001FCE0F8A3E0F9A3E0FAA3CD
:10214F00E0FBE4FCFDFEEB2FFFEE3AFEED39FDEC7C
:01215F003847
:032160000222A9AF
:10216300900200E0FBA3E475F0031213C3A9F0FA95
:102173001215E4900204EBF0A3EAF0A3E9F0900255
:1021830004E0FBA3E0FAA3E0F91212967003022223
:10219300B0121296FF9001CEE0FBA3E0FAA3E0F9A0
:1021A300EF1212DC9001CFE475F0011213AD900130
:1021B300FCE0FCA3E0FDA3E0FEA3E02401FFE43E7A
:1021C300FEE43DFDE43CFC9001FC121596900205F3
:0921D300E475F0011213AD80A5C2
:1021DC00122BEF900229EFF07B017A0279047F0831
:1021EC007E007D007C00123ACB9001CEE0FBA3E098
:1021FC00FAA3E0F8AC02AD037B017A0279047E000D
:10220C007F081216F69001CFE475F0081213AD900A
:10221C0001FCE0FCA3E0FDA3E0FEA3E02408FFE446
:07222C003EFEE43DFDE43C31
:1022330080749001CEE0FBA3E0FAA3E0F9742512C9
:1022430012DC9001CFE475F0011213AD9001FCE0B4
:10225300FCA3E0FDA3E0FEA3E02401FFE43EFEE4D3
:102263003DFDE43C80409001D1E0FBA3E0FAA3E014
:10227300F9121296FF9001CEE0FBA3E0FAA3E0F976
:10228300EF1212DC9001CFE475F0011213AD90014F
:10229300FCE0FCA3E0FDA3E0FEA3E02401FFE43E99
:1022A300FEE43DFDE43CFC9001FC1215969001D246
:0722B300E475F0011213AD08
:1022BA00021D56900200E4F0A3F0A3F09001FCE0A6
:0A22CA00FCA3E0FDA3E0FEA3E0FF8B
:0122D40022E7
:0300230002531D68
:10531D00C0E0C083C08263A201C083C082C0D075CB
:06532D00D000C005C0071E
:10533300309907C2999001CAE4F030982AC298AF15
:1053430099EFFD647F6005ED64807016900562E05F
:10535300FF04F0D3EF941474809480400A75C760FF
:075363008005900562E4F0F3
:10536A00D007D005D0D0D082D08363A201D082D01A
:04537A0083D0E032CA
:03004300025E1941
:105E1900C0E0C083C08263A201C083C082E59A301A
:105E2900E108539AFD9001CBE4F0E59A30E0035381
:105E39009AFED082D08363A201D082D083D0E0328F
:03008B00025E49C9
:105E4900C0E0C083C08263A201C083C082E5AC30D8
:105E5900E10853ACFD9001CCE4F0E5AC30E003532C
:105E6900ACFED082D08363A201D082D083D0E0324D
:03009300025E7991
:105E7900C0E0C083C08263A201C083C082E58430D0
:105E8900E1085384FD9001CDE4F0E58430E003534B
:105E990084FED082D08363A201D082D083D0E03245
:03003B000250A2CE
:1050A200C0E0C083C08263A201C083C082C0D07549
:1050B200D000C006C00730D822C2D890037DE0FEDF
:1050C200A3E0F5EAEEF5FA900375E0FEA3E0FF90A7
:1050D200037EE02FF090037DE03EF030D922C2D96A
:1050E20090037FE0FEA3E0F5EBEEF5FB900377E0A3
:1050F200FEA3E0FF900380E02FF090037FE03EF0FC
:10510200D007D006D0D0D082D08363A201D082D083
:0451120083D0E03234
:03000300020042B6
:01004200328B
:0300130002005692
:010056003277
:0300530002005751
:010057003276
:03005B0002005848
:010058003275
:030083000200591F
:010059003274
:055FF80042054F00000E
:1063390012003E12525B1200507D1EE4FF12577C80
:096349007F647E001263AA80F05B
:100E9E0002125FE86480F8E933E83360110460F011
:100EAE00ED33EC337009E8FCE9FDEAFEEBFF2204BA
:100EBE0060DED3EB9FEA9EE99DE8C2E78CF0C2F7B5
:100ECE0095F0400CE8CCF8E9CDF9EACEFAEBCFFB81
:100EDE0012122A85D0F05804700320D5B3E804709E
:100EEE00075002B2D502126992D5EC0460F7E4CC39
:100EFE00C0E0C398F8603B94186008400DD0E0FB4A
:100F0E00021241E4FBFAC9FC8028E830E406E4C989
:100F1E00FBE4CAFCE830E305E4C9CACBFCE854079D
:100F2E006010F8C3E913F9EA13FAEB13FBEC13FCA8
:100F3E00D8F130F52FC3E49CFCEF9BFFEE9AFEED4B
:100F4E0099FDD0E0FBEF4E4D4C701222DB030212E6
:100F5E0066EC2CFCEF33FFEE33FEED33FDED30E7A8
:100F6E00EB021241EF2BFFEE3AFEED39FDD0E0FB26
:100F7E0050130BBB0003021269ED13FDEE13FEEFCF
:080F8E0013FFEC13FC021241F9
:100F9600EC4D6011E8497017ED33EC3304600DE455
:100FA600FCFFFEFD22E933E8330470F802125F12FB
:100FB600122A58046009E4CC2481500628500902FC
:100FC6001269284003021266C0E0EB4A7044B980F9
:100FD60006D0E0FB021255EF4E701CBD8008EBFFF9
:100FE600EAFEE9FD80EBE98DF0A4FEE5F002107F54
:100FF600E9CDF9EAFEEBFFEF89F0A4FCE5F0CE8936
:10100600F0A42EFFE435F0CD89F0A42DFEE435F0F2
:101016008067EF4E7005BD80D780C3EF8BF0A4AC20
:10102600F0EE8BF0A42CFCE435F0F8EF8AF0A42C5B
:10103600E5F038FCE433CB8DF0A42CFCE5F03BF86E
:10104600EE8AF0A42CFCE5F038F8E433CF89F0A45E
:101056002CFCE5F038CF3400CE89F0A42FFFE5F064
:101066003EFEE433C98DF0A42EFEE5F039CD8AF0BC
:10107600A42FFFE5F03EFEE43DFD33D0E0FB500734
:101086000BBB000F021269EC2CFCEF33FFEE33FEB4
:06109600ED33FD021241E2
:10109C00021269EC5D046005E85904700302125FEA
:1010AC0012122A580460F6EC4860F2EC7004FDFE53
:1010BC00FF22C860DB2481C85009C3986002500627
:1010CC000212669850CAF582E9294B4A7005AB8228
:1010DC0002125575F0007C1A7880C3EF9BEE9AEDE6
:1010EC0099400DC3EF9BFFEE9AFEED99FDE842F09F
:1010FC00DC23ACF0D0E0FFD0E0FED0E0FDAB8220F2
:10110C00E7101BEB60BAEC2CFCEF33FFEE33FEED7B
:10111C0033FD021241E803F830E705C0F075F0002A
:10112C00EF2FFFEE33FEED33FD40B830E7C280AA5F
:10113C0074F8CC6480CCC86480C8F58204604FC35A
:10114C00EB9FF5F0EA9E42F0E99D42F0E89C45F0F9
:10115C00603C501DE5825FFFE582D313CB5BCBF483
:10116C002B5582FB50280ABA002409B900200880AC
:10117C001DE5825BFBE582D313CF5FCFF4C3132F46
:10118C005582FF50090EBE00050DBD00010CC3EBCE
:10119C009FF5F0EA9E42F0E99D42F0E89C45F06034
:0911AC0007CC4820E701B3EC2256
:1011B50075F020800E75F010800575F0087D007EB5
:1011C500007F003392D530D50312152EEC33401035
:1011D500EF33FFEE33FEED33FDEC33FCD5F0ED22BE
:0E11E500E5F0247EA2D513CC92E7CDCEFF22FA
:1011F300EDD2E7CD33EC3392D524814006E4FFFEF4
:10120300FDFC22FCE4CFCECDCC24E0501174FF8052
:10121300EDC3CC13CCCD13CDCE13CECF13CF0470EF
:07122300F030D5DE02152EAC
:10122A00E9D2E7C933E833F892D5EDD2E7CD33EC0A
:07123A0033FC5002B2D52283
:10124100EC30E7100FBF000C0EBE00080DBD00040E
:101251000BEB6014A2D5EB13FCED92E7FD2274FFBA
:10126100FCFDFEFF22E480F8A2D574FF13FC7D8013
:03127100E480EF27
:03000000024B456B
:0C4B4500787FE4F6D8FD758107024B8CE8
:10127400C2D530F707B2D563F0FF05F030E70CB202
:10128400D5F4048463F0FF05F080018430D502F4C2
:02129400042232
:10129600BB010689828A83E0225002E722BBFE0256
:0912A600E32289828A83E4932289
:1012AF00BB010CE58229F582E5833AF583E02250F4
:1012BF0006E92582F8E622BBFE06E92582F8E2223E
:0D12CF00E58229F582E5833AF583E4932258
:1012DC00BB010689828A83F0225002F722BBFE01F1
:0212EC00F322EB
:1012EE00F8BB010DE58229F582E5833AF583E8F036
:1012FE00225006E92582C8F622BBFE05E92582C8E2
:02130E00F222C9
:10131000EF8DF0A4A8F0CF8CF0A428CE8DF0A42EF1
:02132000FE22AB
:10132200BC000BBE0029EF8DF084FFADF022E4CCAF
:10133200F875F008EF2FFFEE33FEEC33FCEE9DEC78
:10134200984005FCEE9DFE0FD5F0E9E4CEFD22EDBE
:10135200F8F5F0EE8420D21CFEADF075F008EF2F08
:10136200FFED33FD4007985006D5F0F222C398FDF9
:051372000FD5F0EA2296
:10137700C2D5EC30E709B2D5E4C39DFDE49CFCEE91
:1013870030E715B2D5E4C39FFFE49EFE121322C3D4
:10139700E49DFDE49CFC800312132230D507C3E4CF
:0613A7009FFFE49EFE2200
:1013AD00C5F0F8A3E028F0C5F0F8E58215827002CB
:0613BD001583E038F02268
:1013C300A3F8E0C5F025F0F0E582158270021583DD
:0613D300E0C838F0E8223A
:1013D900BB0110E58229F582E5833AF583E0F5F052
:1013E900A3E0225009E92582F886F008E622BBFE2F
:1013F9000AE92582F8E2F5F008E222E5832AF58375
:08140900E993F5F0A3E9932239
:10141100E88FF0A4CC8BF0A42CFCE98EF0A42CFC7A
:101421008AF0EDA42CFCEA8EF0A4CDA8F08BF0A4F8
:101431002DCC3825F0FDE98FF0A42CCD35F0FCEB57
:101441008EF0A4FEA9F0EB8FF0A4CFC5F02ECD391C
:0F145100FEE43CFCEAA42DCE35F0FDE43CFC2289
:1014600075F008758200EF2FFFEE33FECD33CDCC43
:1014700033CCC58233C5829BED9AEC99E5829840C6
:101480000CF582EE9BFEED9AFDEC99FC0FD5F0D6A3
:10149000E4CEFBE4CDFAE4CCF9A88222B800C1B9CD
:1014A0000059BA002DEC8BF084CFCECDFCE5F0CB0B
:1014B000F97818EF2FFFEE33FEED33FDEC33FCEB44
:1014C00033FB10D703994004EB99FB0FD8E5E4F9FF
:1014D000FA227818EF2FFFEE33FEED33FDEC33FCEC
:1014E000C933C910D7059BE99A4007EC9BFCE99AE0
:1014F000F90FD8E0E4C9FAE4CCFB2275F010EF2F25
:10150000FFEE33FEED33FDCC33CCC833C810D70724
:101510009BEC9AE899400AED9BFDEC9AFCE899F85F
:0E1520000FD5F0DAE4CDFBE4CCFAE4C8F922F2
:105A8A00C2D5E830E70FB2D5E4C39BFBE49AFAE447
:105A9A0099F9E498F8EC30E717B2D5125AC0121403
:105AAA009CE4C39BFBE49AFAE499F9E498F880032E
:105ABA0012149C30D50DE4C39FFFE49EFEE49DFDC5
:045ACA00E49CFC223A
:0E152E00C3E49FFFE49EFEE49DFDE49CFC22CE
:10153C00EB9FF5F0EA9E42F0E99D42F0EC6480C826
:06154C0064809845F022C6
:10155200EB9FF5F0EA9E42F0E99D42F0E89C45F0EF
:011562002266
:10156300E8600FECC313FCED13FDEE13FEEF13FF66
:03157300D8F1228A
:10157600BB010789828A830217285005E9F80217FA
:101586001CBBFE05E9F802173489828A83021740DC
:0C159600ECF0A3EDF0A3EEF0A3EFF022C8
:1015A200A8828583F0D083D0821215B91215B912A0
:1015B20015B91215B9E473E493A3C583C5F0C583C5
:1015C200C8C582C8F0A3C583C5F0C583C8C582C893
:0115D20022F6
:1015D300F5F0C582A4C582C5F0C583A42583F58330
:0115E30022E5
:1015E400BB010789828A830217595005E9F802175B
:1015F40050BBFE05E9F802176289828A8302176BE1
:10160400D083D082F8E4937012740193700DA3A375
:1016140093F8740193F5828883E473740293686089
:06162400EFA3A3A380DF89
:10162A00E709F608DFFA8046E709F208DFFA803EA2
:10163A0088828C83E709F0A3DFFA8032E309F6088F
:10164A00DFFA8076E309F208DFFA806E88828C83FB
:10165A00E309F0A3DFFA806289828A83E0A3F608AD
:10166A00DFFA805689828A83E0A3F208DFFA804A89
:10167A0080D280FA80C680D4806580F28031801062
:10168A0080A680EA809A80A880DA80E280CA8031C7
:10169A0089828A8363A20188828C8363A201E4938C
:1016AA00A363A201F0A363A201DFF3DEF1800B8939
:1016BA00828A83E493A3F608DFF9ECFAA9F0EDFB3A
:1016CA002289828A8363A20188828C8363A201E0D1
:1016DA00A363A201F0A363A201DFF4DEF280DB8937
:1016EA00828A83E493A3F208DFF980CE88F0EF6060
:1016FA00010E4E60C588F0ED2402B4040050BBF51B
:10170A0082EB2402B4040050B123234582239016AD
:02171A007A73E0
:104B5100026339E493A3F8E493A34003F68001F2DE
:104B610008DFF48029E493A3F85407240CC8C33365
:104B7100C4540F4420C8834004F456800146F6DF34
:104B8100E4800B0102040810204080905FD6E47E8F
:104B9100019360BCA3FF543F30E509541FFEE49329
:104BA100A360010ECF54C025E060A840B8E493A3F0
:104BB100FAE493A3F8E493A3C8C582C8CAC583CA1B
:104BC100F0A3C8C582C8CAC583CADFE9DEE780BED3
:015FFD0000A3
:0C171C00E6FC08E6FD08E6FE08E6FF22F9
:0C172800E0FCA3E0FDA3E0FEA3E0FF2234
:0C173400E2FC08E2FD08E2FE08E2FF22F1
:10174000E493FC740193FD740293FE740393FF22EF
:09175000E6FB08E6FA08E6F922BE
:09175900E0FBA3E0FAA3E0F92291
:09176200E2FB08E2FA08E2F922B8
:0C176B00E493FB740193FA740293F922DA
:00000001FF
