:100000000210F002000CC2AF22D2AF2232323232E2
:0100100032BD
:0300130002000DDB
:10002300021246AB07AA06EB1BAE0270011A4E6022
:070033000512137180F12298
:03003B0002117C33
:0300430002005E5A
:0300530002000E9A
:10005B0002000FC0E0C083C082E59A30E108539ADA
:10006B00FD9001CBE4F0E59A30E003539AFED08289
:05007B00D083D0E0324B
:0300830002001068
:03008B0002132D30
:1000930002134F020457E86480F8E933E833601130
:1000A3000460F0ED33EC337009E8FCE9FDEAFEEBA4
:1000B300FF220460DED3EB9FEA9EE99DE8C2E78C52
:1000C300F0C2F795F0400CE8CCF8E9CDF9EACEFAA6
:1000D300EBCFFB12042285D0F05804700320D5B374
:1000E300E80470075002B2D502046192D5EC0460B3
:1000F300F7E4CCC0E0C398F8603B94186008400D67
:10010300D0E0FB020439E4FBFAC9FC8028E830E4C0
:1001130006E4C9FBE4CAFCE830E305E4C9CACBFC46
:10012300E854076010F8C3E913F9EA13FAEB13FB79
:10013300EC13FCD8F130F52FC3E49CFCEF9BFFEEEE
:100143009AFEED99FDD0E0FBEF4E4D4C701222DB91
:100153000302045EEC2CFCEF33FFEE33FEED33FDC4
:10016300ED30E7EB020439EF2BFFEE3AFEED39FDFC
:10017300D0E0FB50130BBB0003020461ED13FDEE53
:1001830013FEEF13FFEC13FC020439EC4D6011E88E
:10019300497017ED33EC3304600DE4FCFFFEFD22E0
:1001A300E933E8330470F802045712042258046058
:1001B30009E4CC2481500628500902046128400335
:1001C30002045EC0E0EB4A7044B98006D0E0FB0253
:1001D300044DEF4E701CBD8008EBFFEAFEE9FD8085
:1001E300EBE98DF0A4FEE5F0020277E9CDF9EAFE32
:1001F300EBFFEF89F0A4FCE5F0CE89F0A42EFFE439
:1002030035F0CD89F0A42DFEE435F08067EF4E7014
:1002130005BD80D780C3EF8BF0A4ACF0EE8BF0A4C8
:100223002CFCE435F0F8EF8AF0A42CE5F038FCE47C
:1002330033CB8DF0A42CFCE5F03BF8EE8AF0A42C34
:10024300FCE5F038F8E433CF89F0A42CFCE5F03872
:10025300CF3400CE89F0A42FFFE5F03EFEE433C98E
:100263008DF0A42EFEE5F039CD8AF0A42FFFE5F042
:100273003EFEE43DFD33D0E0FB50070BBB000F0215
:100283000461EC2CFCEF33FFEE33FEED33FD02048F
:1002930039020461EC5D046005E85904700302044B
:1002A30057120422580460F6EC4860F2EC7004FD27
:1002B300FEFF22C860DB2481C85009C39860025046
:1002C3000602045E9850CAF582E9294B4A7005ABD1
:1002D3008202044D75F0007C1A7880C3EF9BEE9A7E
:1002E300ED99400DC3EF9BFFEE9AFEED99FDE842B9
:1002F300F0DC23ACF0D0E0FFD0E0FED0E0FDAB8239
:1003030020E7101BEB60BAEC2CFCEF33FFEE33FE5F
:10031300ED33FD020439E803F830E705C0F075F06A
:1003230000EF2FFFEE33FEED33FD40B830E7C28020
:10033300AA74F8CC6480CCC86480C8F58204604F8A
:10034300C3EB9FF5F0EA9E42F0E99D42F0E89C453D
:10035300F0603C501DE5825FFFE582D313CB5BCB9E
:10036300F42B5582FB50280ABA002409B90020084F
:10037300801DE5825BFBE582D313CF5FCFF4C3130C
:100383002F5582FF50090EBE00050DBD00010CC3A1
:10039300EB9FF5F0EA9E42F0E99D42F0E89C45F0C0
:1003A3006007CC4820E701B3EC2275F020800E757E
:1003B300F010800575F0087D007E007F003392D534
:1003C30030D50312081CEC334010EF33FFEE33FE3D
:1003D300ED33FDEC33FCD5F0ED22E5F0247EA2D520
:1003E30013CC92E7CDCEFF22EDD2E7CD33EC33929F
:1003F300D524814006E4FFFEFDFC22FCE4CFCECDF4
:10040300CC24E0501174FF80EDC3CC13CCCD13CDBD
:10041300CE13CECF13CF0470F030D5DE02081CE923
:10042300D2E7C933E833F892D5EDD2E7CD33EC33D5
:10043300FC5002B2D522EC30E7100FBF000C0EBE09
:1004430000080DBD00040BEB6014A2D5EB13FCED0B
:1004530092E7FD2274FFFCFDFEFF22E480F8A2D5A3
:1004630074FF13FC7D80E480EFE709F608DFFA8070
:1004730046E709F208DFFA803E88828C83E709F0B9
:10048300A3DFFA8032E309F608DFFA8078E309F2A2
:1004930008DFFA807088828C83E309F0A3DFFA8097
:1004A3006489828A83E0A3F608DFFA805889828A06
:1004B30083E0A3F208DFFA804C80D280FA80C68002
:1004C300D4806980F28033801080A680EA809A808D
:1004D300A880DA80E280CA803389828A83ECFAE4D6
:1004E30093A3C8C582C8CCC583CCF0A3C8C582C8B2
:1004F300CCC583CCDFE9DEE7800D89828A83E49370
:10050300A3F608DFF9ECFAA9F0EDFB2289828A83CE
:10051300ECFAE0A3C8C582C8CCC583CCF0A3C8C598
:1005230082C8CCC583CCDFEADEE880DB89828A839C
:10053300E493A3F208DFF980CC88F0EF60010E4E5C
:1005430060C388F0ED2402B4040050B9F582EB24B3
:1005530002B4040050AF23234582239004BC73C22A
:10056300D530F707B2D563F0FF05F030E70CB2D50D
:10057300F4048463F0FF05F080018430D502F404B1
:1005830022BB010689828A83E0225002E722BBFE56
:1005930002E32289828A83E49322BB010CE5822948
:1005A300F582E5833AF583E0225006E92582F8E6F1
:1005B30022BBFE06E92582F8E222E58229F582E5DF
:1005C300833AF583E49322BB010689828A83F0226E
:1005D3005002F722BBFE01F322F8BB010DE582298D
:1005E300F582E5833AF583E8F0225006E92582C8CF
:1005F300F622BBFE05E92582C8F222EF8DF0A4A8FE
:10060300F0CF8CF0A428CE8DF0A42EFE22BC000BDC
:10061300BE0029EF8DF084FFADF022E4CCF875F035
:1006230008EF2FFFEE33FEEC33FCEE9DEC98400514
:10063300FCEE9DFE0FD5F0E9E4CEFD22EDF8F5F0DA
:10064300EE8420D21CFEADF075F008EF2FFFED33E2
:10065300FD4007985006D5F0F222C398FD0FD5F060
:10066300EA22C2D5EC30E709B2D5E4C39DFDE49C90
:10067300FCEE30E715B2D5E4C39FFFE49EFE1206FD
:1006830010C3E49DFDE49CFC800312061030D507E3
:10069300C3E49FFFE49EFE22C5F0F8A3E028F0C563
:1006A300F0F8E582158270021583E038F022A3F892
:1006B300E0C5F025F0F0E582158270021583E0C8ED
:1006C30038F0E822BB0110E58229F582E5833AF58B
:1006D30083E0F5F0A3E0225009E92582F886F008CB
:1006E300E622BBFE0AE92582F8E2F5F008E222E5FC
:1006F300832AF583E993F5F0A3E99322E88FF0A425
:10070300CC8BF0A42CFCE98EF0A42CFC8AF0EDA495
:100713002CFCEA8EF0A4CDA8F08BF0A42DCC3825C8
:10072300F0FDE98FF0A42CCD35F0FCEB8EF0A4FEA8
:10073300A9F0EB8FF0A4CFC5F02ECD39FEE43CFC3D
:10074300EAA42DCE35F0FDE43CFC2275F008758259
:1007530000EF2FFFEE33FECD33CDCC33CCC5823348
:10076300C5829BED9AEC99E58298400CF582EE9B4D
:10077300FEED9AFDEC99FC0FD5F0D6E4CEFBE4CD6B
:10078300FAE4CCF9A88222B800C1B90059BA002D05
:10079300EC8BF084CFCECDFCE5F0CBF97818EF2FBE
:1007A300FFEE33FEED33FDEC33FCEB33FB10D703ED
:1007B300994004EB99FB0FD8E5E4F9FA227818EF96
:1007C3002FFFEE33FEED33FDEC33FCC933C910D7F5
:1007D300059BE99A4007EC9BFCE99AF90FD8E0E402
:1007E300C9FAE4CCFB2275F010EF2FFFEE33FEEDD8
:1007F30033FDCC33CCC833C810D7079BEC9AE899A8
:10080300400AED9BFDEC9AFCE899F80FD5F0DAE489
:10081300CDFBE4CCFAE4C8F922C3E49FFFE49EFED7
:10082300E49DFDE49CFC22EB9FF5F0EA9E42F0E997
:100833009D42F0EC6480C864809845F022EB9FF5FC
:10084300F0EA9E42F0E99D42F0E89C45F022E86020
:100853000FECC313FCED13FDEE13FEEF13FFD8F102
:1008630022BB010789828A830209245005E9F80221
:100873000918BBFE05E9F802093089828A83020957
:100883003CECF0A3EDF0A3EEF0A3EFF022A88285F9
:1008930083F0D083D0821208A71208A71208A712E8
:1008A30008A7E473E493A3C583C5F0C583C8C582D1
:1008B300C8F0A3C583C5F0C583C8C582C822F5F0B7
:1008C300C582A4C582C5F0C583A42583F58322BB55
:1008D300010789828A830209555005E9F802094C08
:1008E300BBFE05E9F802095E89828A83020967D0A3
:1008F30083D082F8E4937012740193700DA3A393D1
:10090300F8740193F5828883E4737402936860EF4B
:10091300A3A3A380DFE6FC08E6FD08E6FE08E6FFE6
:1009230022E0FCA3E0FDA3E0FEA3E0FF22E2FC083B
:10093300E2FD08E2FE08E2FF22E493FC740193FD6A
:10094300740293FE740393FF22E6FB08E6FA08E6BB
:10095300F922E0FBA3E0FAA3E0F922E2FB08E2FAC2
:1009630008E2F922E493FB740193FA740293F922E7
:10097300EF54F0F9FB7A007062ED14601F146030DD
:1009830014604424037054EF540FFEF8740108807C
:1009930002C333D8FCF452935294803FEF540FFEBA
:1009A300F87401088002C333D8FCFEF45293802804
:1009B300EF540FFEF87401088002C333D8FCFE42E3
:1009C30093EEF452948014EF540FFEF874010880F0
:1009D30002C333D8FCFE4293EE4294EB64104A7098
:1009E30062ED14601F14603014604424037054EFEC
:1009F300540FFEF87401088002C333D8FCF45291FB
:100A03005292803FEF540FFEF87401088002C33303
:100A1300D8FCFEF452918028EF540FFEF8740108BD
:100A23008002C333D8FCFE4291EEF452928014EF5D
:100A3300540FFEF87401088002C333D8FCFE4291C0
:100A4300EE4292E964207062ED14601F146030146A
:100A5300604424037054EF540FFEF87401088002BD
:100A6300C333D8FCF452955296803FEF540FFEF8EF
:100A73007401088002C333D8FCFEF452958028EF3A
:100A8300540FFEF87401088002C333D8FCFE42956C
:100A9300EEF452968014EF540FFEF87401088002AE
:100AA300C333D8FCFE4295EE4296E9FB7A006430EC
:100AB3007062ED14601F146030146044240370549A
:100AC300EF540FFEF87401088002C333D8FCF452CC
:100AD300B152B2803FEF540FFEF87401088002C395
:100AE30033D8FCFEF452B18028EF540FFEF87401A2
:100AF300088002C333D8FCFE42B1EEF452B2801434
:100B0300EF540FFEF87401088002C333D8FCFE4291
:100B1300B1EE42B2EB64404A7062ED14601F1460A0
:100B23003014604424037054EF540FFEF87401082A
:100B33008002C333D8FCF452B352B4803FEF540F56
:100B4300FEF87401088002C333D8FCFEF452B3806C
:100B530028EF540FFEF87401088002C333D8FCFE5B
:100B630042B3EEF452B48014EF540FFEF87401084C
:100B73008002C333D8FCFE42B3EE42B4E964507042
:100B830062ED14601F14603014604424037054EF4A
:100B9300540FFEF87401088002C333D8FCF452C921
:100BA30052CA803FEF540FFEF87401088002C3332A
:100BB300D8FCFEF452C98028EF540FFEF8740108E4
:100BC3008002C333D8FCFE42C9EEF452CA8014EF4C
:100BD300540FFEF87401088002C333D8FCFE42C9E7
:100BE300EE42CAE9FB7A0064607062ED14601F1480
:100BF300603014604424037054EF540FFEF8740102
:100C0300088002C333D8FCF452CB52CC803FEF545C
:100C13000FFEF87401088002C333D8FCFEF452CBF4
:100C23008028EF540FFEF87401088002C333D8FC08
:100C3300FE42CBEEF452CC8014EF540FFEF8740155
:100C4300088002C333D8FCFE42CBEE42CCEB647087
:100C53004A7060ED14601E14602F14604224037008
:100C630052EF540FFEF87401088002C333D8FCF42A
:100C730052E152E222EF540FFEF87401088002C3DE
:100C830033D8FCFEF452E18027EF540FFEF87401D1
:100C9300088002C333D8FCFE42E1EEF452E222EFB5
:100CA300540FFEF87401088002C333D8FCFE42E1FE
:100CB300EE42E222900200EFF0A3EDF0A3EBF0A3EB
:100CC300E0F8A3E0F9A3E0FAA3E0FB900210E0FC54
:100CD300A3E0FDA3E0FEA3E0FF12078AE47B04FA8E
:100CE300F9F812078AC3E49FFFE49E900208F0A379
:100CF300EFF0900200E0147003020DBA14700302C7
:100D03000E0D147003020E7D24036003020EF39094
:100D13000207E0FD7C0064017019439850A3E0FED4
:100D2300A3E0F58BEEF58D438E40D28EE49001CA9D
:100D3300F08018ED64024C7012439850900208E062
:100D4300FEA3E0F5D7EEF5D6438E1553A23F9002EE
:100D530001E0700FA3E0640170097D017F31120986
:100D630073804C900201E064027012A3E06403708C
:100D73000C7D017F3712097343A240803290020138
:100D8300E064047012A3E06405700C7D017F171208
:100D9300097343A2808018900201E064067010A3D7
:100DA300E06407700A7D017F4412097343A2C0E423
:100DB3009001CAF0D2AC22900207E06402701043A3
:100DC3009A10A3E0FEA3E0F5D7EEF5D6438E1453B5
:100DD300BAFE900201E06408700FA3E06409700991
:100DE3007D017F111209738018900201E0640A707B
:100DF30010A3E0640B700A7D017F4212097343BAAA
:100E03000143AF01E49001CBF022900207E0FD7CA7
:100E13000064027012439A10A3E0FEA3E0F5D7EE3C
:100E2300F5D6438E148018ED64034C701243AC5016
:100E3300900208E0FEA3E0F5D5EEF5D443D10A53C2
:100E4300BAFD900201E0640C700FA3E0640D700919
:100E53007D017F011209738018900201E0640E7016
:100E630010A3E0640F700A7D017F5112097343BA26
:100E73000243AF08E49001CCF022900207E0FD7C2E
:100E83000064027012438410A3E0FEA3E0F5D7EEE2
:100E9300F5D6438E148018ED64044C7012438450CD
:100EA300900208E0FEA3E0F5D3EEF5D243D1A053C0
:100EB300BAFB900201E06410700FA3E064117009A3
:100EC3007D017F03120973801F900201E064127099
:100ED30017A3E0641370117D017F531209737D0220
:100EE3007F5212097343BA0443AF10E49001CDF06B
:100EF3002243BA8078FBE6FBAF9FC3EF9BFFE494EA
:100F030000FEE49400FDE49400FCE47BF07AD2F963
:100F1300F81206FFE42FFFEE3436FEED346EFDECDF
:100F23003401FC900200120884900200E0FCA3E06C
:100F3300FDA3E0FEA3E0FFC00790FE01E0FBE4FA9F
:100F4300F9F8D00712078A9002001208847FC07E46
:100F5300F67D577C00900200E0F8A3E0F9A3E0FAE5
:100F6300A3E0FBC312084050097F007E607D547CE0
:100F730000227FC07E267D827C00900200E0F8A3E1
:100F8300E0F9A3E0FAA3E0FBC312084050097F8015
:100F93007E8D7D5B7C00227F807EED7DAF7C00902B
:100FA3000200E0F8A3E0F9A3E0FAA3E0FBC3120810
:100FB3004050097F007EC07DA87C00227F807E2D6B
:100FC3007DE87C00900200E0F8A3E0F9A3E0FAA337
:100FD300E0FBC312084050097F007E1B7DB77C00F5
:100FE300227F807E367D257C01900200E0F8A3E01D
:100FF300F9A3E0FAA3E0FBC312084050097F007E87
:10100300407D197C01227F807E567D417C019002C8
:1010130000E0F8A3E0F9A3E0FAA3E0FBC312084061
:1010230050097F007E2D7D317C01227F007EDB7D98
:101033005F7C01900200E0F8A3E0F9A3E0FAA3E0EB
:10104300FBC312084050097F007E807D517C012242
:101053007F607E197D857C01900200E0F8A3E0F9B2
:10106300A3E0FAA3E0FBC312084050097F007E36D9
:101073007D6E7C01227F207EE07DB27C01900200A8
:10108300E0F8A3E0F9A3E0FAA3E0FBC312084050A1
:10109300097FC07EFC7D9B7C01227FE07EA67DE0F4
:1010A3007C01900200E0F8A3E0F9A3E0FAA3E0FBDF
:1010B300C312084050097F807EC37DC97C01227F13
:1010C300607E2B7DFF7C01900200E0F8A3E0F9A392
:1010D300E0FAA3E0FBC312084050097F007E407D85
:1010E300FA7C01227FC07E0E7D167C0222787FE48B
:1010F300F6D8FD75810702113702138EE493A3F826
:10110300E493A34003F68001F208DFF48029E4931B
:10111300A3F85407240CC8C333C4540F4420C88312
:101123004004F456800146F6DFE4800B0102040814
:1011330010204080901306E47E019360BCA3FF540B
:101143003F30E509541FFEE493A360010ECF54C062
:1011530025E060A840B8E493A3FAE493A3F8E493EA
:10116300A3C8C582C8CAC583CAF0A3C8C582C8CAF2
:10117300C583CADFE9DEE780BEC0E0C083C082C0AA
:10118300D075D000C006C00730D822C2D89001D68F
:10119300E0FEA3E0F5EAEEF5FA9001CEE0FEA3E06F
:1011A300FF9001D7E02FF09001D6E03EF030D92236
:1011B300C2D99001D8E0FEA3E0F5EBEEF5FB900178
:1011C300D0E0FEA3E0FF9001D9E02FF09001D8E03A
:1011D3003EF0D007D006D0D0D082D083D0E03212F8
:1011E3000EF4900210120884E4F594F593F592F549
:1011F30091F596F595F5B2F5B1F5B4F5B3F5CAF5F4
:10120300C9F5CCF5CBF5E2F5E1F5D8F5D9F5DEF581
:101213008EF598F59AF5ACF584F5A2F5BAF5AFF528
:1012230089F5E9F5F943BA801212DD900203120839
:10123300900001C2009002077402F07B01E4FDFFFD
:10124300020CB7C0E0C083C082C0D075D000C00517
:10125300C007309907C2999001CAE4F030982AC2B6
:1012630098AF99EFFD647F6005ED6480701690027E
:1012730017E0FF04F0D3EF941474809480400A7550
:10128300C7608005900217E4F0D007D005D0D0D016
:1012930082D083D0E032C2D5E830E70FB2D5E4C3C1
:1012A3009BFBE49AFAE499F9E498F8EC30E717B277
:1012B300D51212CF12078AE4C39BFBE49AFAE4998E
:1012C300F9E498F8800312078A30D50DE4C39FFF31
:1012D300E49EFEE49DFDE49CFC22E47BE07A2EF98F
:1012E300F8900210E0FCA3E0FDA3E0FEA3E0FF12F0
:1012F300078A900214EEF0A3EFF075DD48E4F5D908
:10130300D2DE22440210000000004801D600000093
:1013130000000000004801CE0000000000000000B3
:1013230042021400004102160000C0E0C083C082E4
:10133300E5AC30E10853ACFD9001CCE4F0E5AC3012
:10134300E00353ACFED082D083D0E032C0E0C08350
:10135300C082E58430E1085384FD9001CDE4F0E5DB
:101363008430E0035384FED082D083D0E032AFF9DF
:10137300EFFEADE9EDFF900215E02FFF900214E0C0
:101383003E8FEDF5FD30DBFDC2DB221200061211AC
:0F139300E21200097FF47E01120026B2CA80F533
:00000001FF
