:1055BB00E4F594F593F592F591F596F595F5B2F52D
:1055CB00B1F5B4F5B3F5CAF5C9F5CCF5CBF5E2F504
:1055DB00E1F5D8F5D9F5DEF58EF598F59AF5ACF53C
:1055EB0084F5A2F5BAF5AFF589F5E9F5F91265D8A9
:1055FB0090022D1216CD0001C2007B01E4FDFF02CB
:02560B003596D2
:1065060090025AEFF0FDE4FF12583E90025AE0FF67
:016516002262
:03002000C2AF224A
:03003E00D2AF221C
:105B490053A2F3EF14601214601714601C2403703D
:105B59001E5392C35391C380165396C35395C38062
:105B69000E53E20F53E10F800653B2C353B1C390F2
:105B790004E9E042CE9004E8E0700643CE8043CECB
:055B89001043CE402294
:1057E40053A2F3EF14600A14600C14600E240380B7
:1057F4000D43A204800843A208800343A20C53CEA5
:10580400FCED14600A14600C14600E2403800D4334
:10581400CE01800843CE02800343CE03AF038FCF73
:0B582400E5CD30E7FB75CDC0AFCF2213
:1064BB00EF1FAA0670011E4A60087D091DED60F0F2
:0264CB0080FA55
:0164CD0022AC
:105E0900E4900562F0A3F0FC90FE82E020E61E7F9C
:105E1900017E001264BB900562E475F001121575EC
:105E2900FEC3E5F0941EEE940040DD7C0190FE82F5
:065E3900E054BFF0AF04CD
:015E3F002240
:0965BD0090FE817401F0025E09F8
:0863FE00AF01EF25E04401FFAF
:0E64060090FE86EFF090FE817402F0025E09B7
:0965C60090FE817403F0025E09ED
:0F65770090FE817404F0125E0990FE87E0FF220F
:0F6307009004AFE0FBA3E0FAA3E0F9EF12148ECD
:0E63160090FE82E4F090FE817405F0025E09B4
:0F65860090FE827401F090FE817405F0025E09B0
:0965CF0090FE817406F0025E09E1
:105A750053BACF43BA80EF14600A14600C14600E59
:105A85002403800D43BA10800843BA20800343BA2B
:105A95003090FE80E04440F0E04480F0C083C08256
:105AA500E0FB9004A8A3A3A3E0FFEB4FD082D08333
:075AB500F090FE82E4F022F4
:104E5200A90553BACFEF14600A14600C14600E2433
:104E620003800D43BA10800843BA20800343BA304E
:104E72001265BDEF60037F0122AF01EF25E0FF1253
:104E82006406EF60037F01221265C6EF60037F01B3
:104E920022AF03126406EF60037F01221265C6EFA0
:104EA20060037F012290054BE0FF126406EF60036E
:104EB2007F01221265C6EF60037F01221265CFEFE8
:084EC20060037F01227F002242
:104CDF00A90553BACFEF14600A14600C14600E24A8
:104CEF0003800D43BA10800843BA20800343BA30C3
:104CFF001265BDEF60037F0122E925E0FF12640614
:104D0F00EF60037F01221265C6EF60037F0122AFC0
:104D1F0003126406EF60037F01221265C6EF600382
:104D2F007F01221263FEEF60037F01221265C6EF3F
:104D3F0060037F01221265779004ED12630AEF6022
:104D4F00037F01221265CFEF60037F01227F0022D4
:104A1300A90553BACFEF14600A14600C14600E2476
:104A230003800D43BA10800843BA20800343BA3091
:104A33001265BDEF60037F0122E925E0FF126406E2
:104A4300EF60037F01221265C6EF60037F0122AF8F
:104A530003126406EF60037F01221265C6EF600351
:104A63007F01221263FEEF60037F01221265C6EF0E
:104A730060037F01229004B2E014F060181265779E
:104A8300126307EF60037F01229004B0E475F00125
:104A930012155F80E0126577126307EF60037F01F1
:0D4AA300221265CFEF60037F01227F002209
:0B35960090022AEFF0A3EDF0A3EBF091
:1035A100A3E0F8A3E0F9A3E0FAA3E0FB7FC07EFC6F
:1035B1007D9B7C011215C7E47B04FAF9F81215C74B
:1035C100C3E49FFFE49EAD07FC90022AE014607201
:1035D10014700302367F1470030236BB24036003A8
:1035E1000236FA4398508D8BECF58D438E4053A2F1
:1035F1003F90022BE0F9FF7E007008A3E0640170A8
:10360100028035EF64024E700D90022CE06403706D
:103611000543A2408022E96404700D90022CE0640D
:1036210005700543A2808010E96406700B90022C9E
:10363100E06407700343A2C0D28EE49001CAF00295
:1036410036FA439A108DD7ECF5D6438E1453BAFE51
:1036510090022BE0FF7E0064087008A3E06409700B
:10366100028011EF640A4E700B90022CE0640B7023
:103671000343BA0143AF01E49001CBF0807B43AC3B
:10368100508DD5ECF5D443D10A53BAFD90022BE00D
:10369100FF7E00640C7008A3E0640D70028011EFDE
:1036A100640E4E700B90022CE0640F700343BA025B
:1036B10043AF08E49001CCF0803F4384508DD3ECBC
:1036C100F5D243D1A053BAFB90022BE0FF7E0064F8
:1036D100107008A3E0641170028016EF64124E703E
:1036E1001090022CE064137008F5CA75C90443BA3E
:0B36F1000443AF10E49001CDF0D2AC18
:0136FC0022AB
:0F582F00A3E475F001121575A9F0FA121448FDE3
:10583E00EF14601514601D1460252403702D900163
:10584E00CAE070FA04F08D99229001CBE070FA0450
:10585E00F08D9B229001CCE070FA04F08DAD229079
:0C586E0001CDE070FA04F0AF058F852238
:1060A3009004F1EBF0A3EAF0A3E9F0AE079004F457
:1060B30074FFF5F012157545F0600CAF069004F10E
:0860C300E0FB12582F80E622D9
:1060CB00900550EBF0A3EAF0A3E9F0AE0790055072
:1060DB00E0FBA3E0FAA3E0F9121448600AAF0690C4
:0860EB00055012582F80E62237
:10587A0043BC80EF131313541FFB7A0064017017A3
:10588A00EF5407FEF87401088002C333D8FCFEF413
:10589A005294EE42938019EB4A7015EF5407FEF8C2
:1058AA007401088002C333D8FCFEF45292EE42918E
:0958BA00ED540F42DE43DE202212
:025FFA00A905F7
:105FFC0053BCF0EF42BC43BC40E5BC30E5FB53BCAA
:10600C00DFAFBDEFFEADBEEDFFAD01A8050880050D
:08601C00CEC313CE13D8F9FF27
:016024002259
:105BD200EF14601814602014602614602C240470E2
:105BE20030E4F58AF58C438904D28C22E4F58BF5F6
:105BF2008D438940D28E22E4F5D7F5D6438E182202
:105C0200E4F5D5F5D443D10C22E4F5D3F5D243D152
:025C1200C022AE
:105B0300EF14601714601E14602514602C240470B5
:105B130030AF8CEFFCAF8AEFFD8026AF8DEFFCAF8B
:105B23008BEFFD801CAFD6EFFCAFD7EFFD8012AF3C
:105B3300D4EFFCAFD5EFFD8008AFD2EFFCAFD3EFCE
:055B4300FDAF05AE04FA
:015B4800223A
:1058C300EF14601714601E146027146030240470F2
:1058D30037C28CE4F58CF58AD28C22C28EE4F58D26
:1058E300F58BD28E22538EEFE4F5D6F5D7438E1087
:1058F3002253D1F7E4F5D4F5D543D1082253D17F10
:09590300E4F5D2F5D343D1802272
:053CED00900420EFF03F
:103CF200E4900429F043BA80900420E0FF54F024B9
:103D020004FDE434FF8D82F583E054E7F0E0FEEF3A
:103D1200540333333354F8FFEE4FF0900421E0F8AC
:103D2200A3E0F9A3E0FAA3E0FB7FC07EFC7D9B7CCD
:103D3200011215C7780F12168E900429EFF0900425
:103D420021E0F8A3E0F9A3E0FAA3E0FB7FC07EFC48
:103D52007D9B7C011215C7C006C007900429E02490
:103D620001FFE433AB07FA3395E0F9F8D007D00648
:103D72001215C7900427EEF0A3EFF0900425E0FCA3
:103D8200A3E0FDE41211BA7B007A40791C78461256
:103D9200109FC004C005C006C007900427E0FCA322
:103DA200E0FDE41211BAD003D002D001D000120F0C
:103DB200961211F3900429E090FFF2F0900427E0AC
:103DC200FDA3E090FFF0CDF0A3EDF0900420E054CD
:103DD200F0FD7C002400FBEC34FF8B82F583EEF0D7
:103DE200A3EFF0ED2404FFEC34FF8F82F583E0446F
:083DF20080F053BA7F75FE80DA
:013DFA0022A6
:05551200900572EFF0AE
:1055170043BA80AE04AF05E41211BA7B007A407932
:105527001C784612109FC004C005C006C00790FF34
:10553700F0E0FCA3E0FDE41211BAD003D002D001E1
:10554700D000120F961211F3900572E054F0240068
:10555700FDE434FF8D82F583EEF0A3EFF053BA7FBD
:015567002221
:064D5F0090053E1216C192
:104D6500E4900542F043BA8090053EE0F8A3E0F9EF
:104D7500A3E0FAA3E0FB7FC07EFC7D9B7C011215BE
:104D8500C7780F12168E900542EFF090053EE0F8B9
:104D9500A3E0F9A3E0FAA3E0FB7FC07EFC7D9B7C4A
:104DA500011215C7C006C007900542E02401FFE4C3
:104DB50033AB07FA3395E0F9F8D007D0061215C7DB
:104DC500900542E090FFF2F090FFF0EEF0A3EFF0D7
:034DD50053BA7F4F
:014DD80022B8
:106247004803AE00000000000000004803A600005D
:0662570000000000000041
:1053FC00E4F5D875D906EF64017054EDB40A005089
:10540C004E905414F8282873025432025436025425
:10541C003A02543E02544202544602544A02544E3A
:10542C00025452025458E4F5DA2275DA422275DA43
:10543C00632275DA532275DA732275DA202275DA53
:10544C00102275DA302275DA49D2DE2275DA4C2256
:1064F400EF64017008AFFAEFFCAFEAEFFDAF05AE51
:016504000492
:016505002273
:0A001600EF64017004F5F9F5E9222A
:05386100900553EFF09B
:10386600C2DEAFF9EFFFABE9EBA3CFF0A3EFF09029
:103876000553E0705A7E037FE81214D47C007D0C59
:103886001214C2AB07AA06E4F9F87FC07EFC7D9B42
:103896000C125B8EAC06AD079003A6ECF0A3EDF020
:1038A60075DA4985E9EA85F9FA9003A6E0FEA3E010
:1038B600FF9003AFE02FFF9003AEE03EFE9005556C
:1038C600E02FFF900554E03E9003AEF0A3EFF0909A
:1038D6000553E06401705A7E037FE81214D47C001D
:1038E6007D0C1214C2AB07AA06E4F9F87FC07EFC71
:1038F6007D9B0C125B8EAC06AD079003A8ECF0A383
:10390600EDF075DB4985E9EB85F9FB9003A8E0FE50
:10391600A3E0FF9003B1E02FFF9003B0E03EFE90DE
:103926000555E02FFF900554E03E9003B0F0A3EF5D
:10393600F0900553E06402704E7E037FE81214D4C3
:103946007C007D0C1214C2AB07AA06E4F9F87FC00E
:103956007EFC7D9B0C125B8E9003AAEEF0A3EFF02B
:1039660075DC4985E9EC85F9FC9003B3E02FFF90FF
:1039760003B2E03EFE900555E02FFF900554E03E71
:093986009003B2F0A3EFF0D2DED1
:01398F002215
:105EAC00EF7007ED24FF9288D2A8EF64017007ED24
:105EBC0024FF928AD2AAEFFD7C0064027003758FD6
:105ECC0010ED64034C7003758F20ED64044C70036B
:045EDC00758F40225C
:05625D0042056408CABF
:0965D80075DD48E4F5D9D2DE229C
:10632400AFF9EFFEADE9EDFF900565E02FFF9005B5
:0C63340064E03E8FEDF5FD30DBFDC2DBC8
:01634000223A
:10646B00AB07AA06EB1BAE0270011A4E6005126356
:04647B002480F12266
:10545C00EDFB7A0064017025EFC4540F2410FDE4B9
:10546C0034FE8D82F583C083C082E0FEEF540FFFC3
:10547C00F87401088002C333D8FC4E8028EB4A70C4
:10548C0029EFC4540F2410FDE434FE8D82F583C043
:10549C0083C082E0FEEF540FFFF87401088002C352
:0B54AC0033D8FCF45ED082D083F022E5
:1028A300EF54F0F9FB7A007062ED14601F1460308E
:1028B30014604424037054EF540FFEF8740108802D
:1028C30002C333D8FCF452935294803FEF540FFE6B
:1028D300F87401088002C333D8FCFEF452938028B5
:1028E300EF540FFEF87401088002C333D8FCFE4294
:1028F30093EEF452948014EF540FFEF874010880A1
:1029030002C333D8FCFE4293EE4294EB64104A7048
:1029130062ED14601F14603014604424037054EF9C
:10292300540FFEF87401088002C333D8FCF45291AB
:102933005292803FEF540FFEF87401088002C333B4
:10294300D8FCFEF452918028EF540FFEF87401086E
:102953008002C333D8FCFE4291EEF452928014EF0E
:10296300540FFEF87401088002C333D8FCFE429171
:10297300EE4292E964207062ED14601F146030141B
:10298300604424037054EF540FFEF874010880026E
:10299300C333D8FCF452955296803FEF540FFEF8A0
:1029A3007401088002C333D8FCFEF452958028EFEB
:1029B300540FFEF87401088002C333D8FCFE42951D
:1029C300EEF452968014EF540FFEF874010880025F
:1029D300C333D8FCFE4295EE4296E9FB7A0064309D
:1029E3007062ED14601F146030146044240370544B
:1029F300EF540FFEF87401088002C333D8FCF4527D
:102A0300B152B2803FEF540FFEF87401088002C345
:102A130033D8FCFEF452B18028EF540FFEF8740152
:102A2300088002C333D8FCFE42B1EEF452B28014E4
:102A3300EF540FFEF87401088002C333D8FCFE4242
:102A4300B1EE42B2EB64404A7062ED14601F146051
:102A53003014604424037054EF540FFEF8740108DB
:102A63008002C333D8FCF452B352B4803FEF540F07
:102A7300FEF87401088002C333D8FCFEF452B3801D
:102A830028EF540FFEF87401088002C333D8FCFE0C
:102A930042B3EEF452B48014EF540FFEF8740108FD
:102AA3008002C333D8FCFE42B3EE42B4E9645070F3
:102AB30062ED14601F14603014604424037054EFFB
:102AC300540FFEF87401088002C333D8FCF452C9D2
:102AD30052CA803FEF540FFEF87401088002C333DB
:102AE300D8FCFEF452C98028EF540FFEF874010895
:102AF3008002C333D8FCFE42C9EEF452CA8014EFFD
:102B0300540FFEF87401088002C333D8FCFE42C997
:102B1300EE42CAE9FB7A0064607062ED14601F1430
:102B2300603014604424037054EF540FFEF87401B2
:102B3300088002C333D8FCF452CB52CC803FEF540D
:102B43000FFEF87401088002C333D8FCFEF452CBA5
:102B53008028EF540FFEF87401088002C333D8FCB9
:102B6300FE42CBEEF452CC8014EF540FFEF8740106
:102B7300088002C333D8FCFE42CBEE42CCEB647038
:102B83004A7060ED14601E14602F146042240370B9
:102B930052EF540FFEF87401088002C333D8FCF4DB
:102BA30052E152E222EF540FFEF87401088002C38F
:102BB30033D8FCFEF452E18027EF540FFEF8740182
:102BC300088002C333D8FCFE42E1EEF452E222EF66
:102BD300540FFEF87401088002C333D8FCFE42E1AF
:042BE300EE42E222BA
:0665E100256400256600A0
:10651700C2A2C2A1AB07E4FD7F011257E4D2A222B7
:10652700C2A2D2A1AB07E4FD7F011257E4D2A22297
:02607A00AC0672
:10607C00EC900566F0A3EFF0C2A2D2A1900566E009
:10608C00FBE4FD7F011257E4900567E0FBE4FD7F24
:06609C00011257E4D2A23C
:0160A20022DB
:10533A00900475EEF0A3EFF0A3ECF0A3EDF0A3EA6E
:10534A00F0A3EBF07F2A126517E4FF126527900499
:10535A0075A3E02402FF126527E4FF126527900473
:10536A0079A3E02402FF1265277F2B126517E4FF59
:10537A00126527900477A3E004FF126527E4FF1261
:10538A00652790047BA3E004FF1265277F2C026542
:01539A0017FB
:0854B70090054CEEF0A3EFF0AC
:1054BF0090047BE4F0A3749FF07B7F7A00E4FDFC03
:1054CF00FFFE12533AE490054EF090054EE0C39460
:1054DF00A074809480502BE4A3F090054FE0C39408
:1054EF008074809480501390054CE0FEA3E0FF126F
:1054FF00607A90054FE004F080E090054EE004F0F4
:02550F0080C852
:015511002277
:102BE7009004E77412F0E4A3F0A3F07B117D107F4B
:102BF70001125B49C2A07F0A7E0012646BD2A07FDC
:102C0700787E0012646B7F111265177F787E001241
:102C1700646B7FB11265177F011265277F2C1265E0
:102C2700277F2D1265277FB21265177F011265274F
:102C37007F2C1265277F2D1265277FB31265177FBB
:102C4700011265277F2C1265277F2D1265277F01CB
:102C57001265277F2C1265277F2D1265277FB412F7
:102C670065177F071265277FC01265177FA2126558
:102C7700277F021265277F841265277FC112651798
:102C87007FC51265277FC21265177F0A126527E481
:102C9700FF1265277FC31265177F8A1265277F2A70
:102CA7001265277FC41265177F8A1265277FEE1288
:102CB70065277FC51265177F0E1265277F36126558
:102CC70017E4701E14600E14600F14601024037054
:102CD700117FC0800AE4FF80067FA080027F601218
:102CE70065277FE01265177F0F1265277F1A126528
:102CF700277F0F1265277F181265277F2F126527F9
:102D07007F281265277F201265277F221265277F7C
:102D17001F1265277F1B1265277F231265277F37C1
:102D2700126527E4FF1265277F071265277F0212C6
:102D370065277F101265277FE11265177F0F1265E0
:102D4700277F1B1265277F0F1265277F17126527BD
:102D57007F331265277F2C1265277F291265277F0E
:102D67002E1265277F301265277F301265277F393E
:102D77001265277F3F126527E4FF1265277F071239
:102D870065277F031265277F101265277F2A126543
:102D970017E4FF1265277F02126527E4FF126527F4
:102DA7007F821265277F2B126517E4FF1265277F45
:102DB70003126527E4FF1265277F831265277FF0DB
:102DC7001265177F011265277FF6126517E4FF1258
:102DD70065277F3A1265177F051265277F291265D8
:082DE7001774FFFFFE0254B750
:105C14009004F6EEF0A3EFF09004FAEAF0A3EBF0B0
:105C24009004F8ECF0A3EDF09004F6E0FAA3E0FBA6
:105C3400FFAE02C007A3E0FFA3E090047BCFF0A374
:105C4400EFF0D00712533A9004FAE0FEA3E0FF020B
:025C5400607A74
:0645E900F583E02430FB25
:1045EF0090047DEEF0A3EFF0A3ECF0A3EDF0A3EBBE
:0145FF00F0CB
:10460000E4A3F0900482E0F9C39410748094804095
:10461000030246B3E9FF900480E02FFD90047FE0A1
:104620003400FC90047EE02407FB90047DE034001D
:10463000FA7E0090047FE0F8A3E02FFFEE389004AC
:104640007BF0A3EFF090047DE0FEA3E0FF12533A6D
:10465000900482E0FF900481E075F010A42496F5A8
:1046600082E5F034FEF583E5822FF582E43583F5AB
:1046700083E493900484F0E4900483F0900483E056
:10468000C39408748094805021A3E030E0067F003A
:104690007EF8800474FFFFFE12607A900484E0C309
:1046A00013F0900483E004F080D2900482E004F0E0
:0346B000024603BC
:0146B30022E4
:104FB800900448EEF0A3EFF0A3ECF0A3EDF0A3EB20
:074FC800F0A3EAF0A3E9F0F9
:104FCF00E4A3F0A3F090044CE0FBA3E0FAA3E0F914
:104FDF00A3E0FEA3E0FFF5828E83121461FB603E17
:104FEF00EF7803C333CE33CED8F9FF900449E02FC7
:104FFF00FF900448E03EFE90044BE0C4F8540FC805
:10500F0068FD90044AE0C454F048FC1245EF900448
:0E501F0050E004F070AF90044FE004F080A762
:01502D002260
:10429A00900451EEF0A3EFF0A3ECF0A3EDF0A3EB42
:0142AA00F023
:1042AB003395E0C364809480900454E0C4F8540FB9
:1042BB00C868FD900453E0C454F048FC900451E0EE
:1042CB00FEA3E0FF40077B201245EF800C7B2D12F5
:1042DB0045EF900455E0F404F0900455E0FF75F0C1
:1042EB0064121426900456F0EF75F00A121426FF90
:1042FB0075F00A121426AFF0900457EFF0900455A6
:10430B00E0FF75F00A121426AFF0900458EFF0E4BA
:10431B00A3F0900459E0FBFF7E00C39403748094D8
:10432B00805045EF2401FFEE33FEEF7803C333CE0D
:10433B0033CED8F9FF900452E02FFF900451E03EAA
:10434B00FE900454E0C4F8540FC868FD900453E089
:10435B00C454F048FC74562BF582E434041245E93E
:08436B00900459E004F080AA5F
:014373002227
:0E4ECA00900485EEF0A3EFF0A3ECF0A3EDF062
:104ED800EB75F06484A3F0EB75F00A8475F00A842E
:104EE800A3E5F0F0EB75F00A84A3E5F0F0E4A3F095
:104EF80090048CE0C3940374809480503BE0FB756D
:104F0800F008A4FF900486E02FFF900485E035F0B8
:104F1800FE900488E0C4F8540FC868FD900487E048
:104F2800C454F048FC74892BF582E434041245E932
:084F380090048CE004F080B845
:014F4000224E
:103990009003C3EEF0A3EFF0A3ECF0A3EDF0A3EAE5
:0439A000F0A3EBF0B5
:1039A400C3EA648094809003C6E0C4F8540FC868E6
:1039B400FD9003C5E0C454F048FC9003C3E0FEA3AB
:1039C400E0FF501C7B2D1245EF9003C7E0FEA3E0FF
:1039D400FFC3E49FFFE49E9003C7F0A3EFF08005CC
:1039E4007B201245EF9003C7E0FAA3E0FB7C277D20
:1039F40010FFAE02121529A3EFF07C037DE8AF039C
:103A0400AE021215297C007D0A121529A3EDF0904F
:103A140003C7A3E07C007D64FFAE021215297C007D
:103A24007D0A1215299003CBEDF07C007D0AAF03CB
:103A3400AE021215297C007D0A121529A3EDF0901F
:103A440003C7E0FEA3E0FF7C007D0A121529900362
:103A5400CDEDF0E4A3F09003CEE0FBFF7E00C39431
:103A640005748094805045EF2401FFEE33FEEF7817
:103A740003C333CE33CED8F9FF9003C4E02FFF90B5
:103A840003C3E03EFE9003C6E0C4F8540FC868FDCB
:103A94009003C5E0C454F048FC74C92BF582E434A7
:0C3AA400031245E99003CEE004F080AA74
:013AB00022F3
:0E46B40090042AEEF0A3EFF0A3ECF0A3EDF0DB
:1046C2007C277D10AF03AE021214D4A3EFF07C035B
:1046D2007DE8AF03AE021214D47C007D0A1214D41A
:1046E200A3EDF07C007D64AF03AE021214D47C0013
:1046F2007D0A1214D4A3EDF07C007D0AAF03AE0252
:104702001214D47C007D0A1214D4A3EDF0AE02AFD1
:10471200037C007D0A1214D4A3EDF0E4A3F090040C
:1047220033E0C3940574809480503BE0FB75F0083D
:10473200A4FF90042BE02FFF90042AE035F0FE90B6
:10474200042DE0C4F8540FC868FD90042CE0C45452
:10475200F048FC742E2BF582E434041245E99004EF
:0647620033E004F080B812
:01476800222E
:0E3EF4009002E8EEF0A3EFF0A3ECF0A3EDF0E7
:103F02009002F0E0FFC3740A9F7480F89850037423
:103F12000AF09002F0E004F09002ECE0FCA3E0FD75
:103F2200A3E0FEA3E0FFE4FBFAF9F8D31216674020
:103F3200319001D174FFF0A37465F0A374E1F090A5
:103F420002ECE0FCA3E0FDA3E0FEA3E0FF9001D4BD
:103F52001216C10B7A0279F1121E7E900313EFF052
:103F620080389002F17420F09001D174FFF0A374B4
:103F720065F0A374E1F09002ECE0FCA3E0FDA3E0A5
:103F8200FEA3E0FF9001D41216C17B017A0279F2FE
:103F9200121E7E900313EFF0801E9002F0E0FF905D
:103FA2000313E0FEC39F501574F12EF582E4340230
:103FB200F5837420F0900313E004F080DD74F12F98
:103FC200F582E43402F583E4F09002E8E0FEA3E037
:103FD200FFA3E0FCA3E0FD7B017A0279F1024FB876
:0E31380090025BEEF0A3EFF0A3ECF0A3EDF03D
:10314600900264E0FFC374069F7480F8985003747D
:1031560006F0900263E0FFC3740A9F7480F89850EB
:1031660003740AF090025FE0FCA3E0FDA3E0FEA377
:10317600E0FFE4FBFAF9F812113C9001D16031400E
:103186002F74FFF0A37465F0A374E4F090025FE07F
:10319600FCA3E0FDA3E0FEA3E0FF9001D41216C15C
:1031A6007B017A027966121E7E900265EFF080300E
:1031B60074FFF0A37465F0A374E4F090025FE0FC82
:1031C600A3E0FDA3E0FEA3E0FF9001D41216C17BAD
:1031D600017A027967121E7E900265EFF0E004F034
:1031E600900265E024F9FD900263E0FEC3ED9E14B3
:1031F600900288F0900264E0AE052E04900289F0F9
:10320600900288E0FF3395E0FED3E49FEE6480F8F9
:103216007480984022A3E0FF3395E0FE74662FF594
:103226008274023EF5837420F0900289E004F090E7
:103236000288E004F080C990025FE0FCA3E0FDA3F1
:10324600E0FEA3E0FFE4FBFAF9F812113C900288D5
:1032560060174015E0FF3395E0FE74662FF5827423
:10326600023EF583742DF08013E0FF3395E0FE7483
:10327600662FF58274023EF5837420F0900289E091
:10328600FF3395E0FE74662FF58274023EF583E403
:10329600F090025BE0FEA3E0FFA3E0FCA3E0FD7B71
:0832A600017A027966024FB8BB
:0B3BD2009003FFEBF0A3EAF0A3E9F082
:103BDD0074FFFFFE1254B7E4900406F0A3F0E490D6
:103BED000404F0A3F0900404E0FAA3E0FB7C007D54
:103BFD0028FFAE021214C2C006C007A3E0FEA3E068
:103C0D00FF1214C2C006C007AF03AE021214C2EFFA
:103C1D002427FBE43EFA900406E0FEA3E0FF121415
:103C2D00C2EF2427FFE43E90047BF0A3EFF0D00514
:103C3D00D004D007D00612533AE4900402F0A3F05A
:103C4D00900403E025E0FF900402E033FE9003FFB3
:103C5D00E0FBA3E0FAA3E0F98F828E83121461904A
:103C6D000409F0E92FF9EA3EFA900001121461906F
:103C7D000408F0FEA3E0FDEDFF12607A900403E06E
:103C8D0004F07006900402E004F0C3900403E09485
:103C9D0040900402E06480948640A5900405E00401
:103CAD00F07006900404E004F0C3900405E0940362
:103CBD00900404E0648094805003023BF29004076A
:103CCD00E004F07006900406E004F0C3900407E0F1
:0F3CDD009404900406E0648094805003023BEB53
:013CEC0022B5
:10009600000000000000000000000000000000005A
:1000A6000000000808080808080800000808000002
:1000B6000048242412000000000000000000000098
:1000C6000000004848487E2424247E24242400007E
:1000D6000000103C5252121C30505052523C10102C
:1000E600000000222515150D2A58545452220000EE
:1000F6000000000C1212120A76252919916E0000D2
:1001060000060404020000000000000000000000D9
:1001160000402010100808080808081010204000A9
:10012600000204080810101010101008080402003D
:100136000000000008086B1C1C6B0808000000008B
:100146000000000000101010FE101010000000004B
:100156000000000000000000000000000604040289
:1001660000000000000000007E000000000000000B
:10017600000000000000000000000000060600006D
:100186000000402020201010080808040402020085
:100196000000001824424242424242422418000013
:1001A600000000101C10101010101010107C000021
:1001B6000000003C4242424020100804427E0000FB
:1001C6000000003C4242402018204042423C0000D1
:1001D60000000020303028242422FE2020F80000D1
:1001E6000000007E0202021E22404042221C000045
:1001F600000000182402023A4642424244380000F7
:100206000000007E422020101008080808080000A0
:100216000000003C4242422418244242423C000074
:100226000000001C22424242625C4040241800004A
:100236000000000000001818000000001818000058
:100246000000000000000008000000000008080888
:10025600000000402010080402040810204000009E
:100266000000000000007E00007E0000000000008C
:1002760000000002040810204020100804020000BC
:100286000000003C424246201010100018180000E2
:100296000000001C225A55555555553A423C00005F
:1002A6000000000808181414243C224242E700000B
:1002B6000000001F2222221E22424242221F00006C
:1002C6000000007C4242010101010142221C0000A3
:1002D6000000001F2242424242424242221F0000C8
:1002E6000000003F4212121E12120242423F00005C
:1002F6000000003F4212121E121202020207000004
:100306000000003C2222010101712122221C000072
:10031600000000E7424242427E42424242E700007B
:100326000000003E0808080808080808083E000003
:100336000000007C10101010101010101010110F7B
:100346000000007722120A0E0A12122222770000FB
:10035600000000070202020202020202427F0000BF
:100366000000007736363636362A2A2A2A6B0000EF
:10037600000000E346464A4A525252626247000073
:100386000000001C2241414141414141221C000024
:100396000000003F424242423E02020202070000C3
:1003A6000000001C224141414141414D321C600088
:1003B6000000003F4242423E1212222242C7000083
:1003C6000000007C4242020418204042423E0000E7
:1003D6000000007F4908080808080808081C0000F3
:1003E600000000E74242424242424242423C000092
:1003F600000000E7424222242414141808080000D2
:100406000000006B2A2A2A2A2A3614141414000023
:10041600000000E7422424181818242442E70000AC
:10042600000000772222141408080808081C00009F
:100436000000007E2120101008040442423F000004
:100446000078080808080808080808080808780056
:100456000000020404040808081010202020404070
:10046600001E1010101010101010101010101E008A
:10047600001824000000000000000000000000003A
:1004860000000000000000007E00000000000000E8
:100496000006080000000000000000000000000048
:1004A600000000000000001C22302C22326C0000EC
:1004B600000000000302021A26424242261A0000E9
:1004C6000000000000000038440202024438000028
:1004D600000000006040407C4242424262DC000074
:1004E600000000000000003C42427E02423C000048
:1004F600000000003048083E08080808083E0000D2
:10050600000000000000007C22221C023C42423C0B
:10051600000000000302023A4642424242E700005F
:100526000000000C0C00000E08080808083E000039
:100536000000003030000038202020202020221E1D
:100546000000000003020272120A0E122277000057
:10055600000000080E08080808080808083E000001
:10056600000000000000007F9292929292B7000075
:10057600000000000000003B4642424242E7000005
:10058600000000000000003C42424242423C0000A3
:10059600000000000000001B26424242261A020705
:1005A600000000000000005864424242645840E0E7
:1005B60000000000000000774C040404041F000043
:1005C600000000000000007C42023C40423E000069
:1005D600000000000008083E08080808483000002F
:1005E60000000000000000634242424262DC00005C
:1005F6000000000000000077222214140808000002
:1006060000000000000000DB91525A2A242400005A
:10061600000000000000006E241818182476000060
:1006260000000000000000E742242418180808060D
:10063600000000000000007E22100808447E000032
:1006460000C0202020202020102020202020C000B4
:100656001010101010101010101010101010101094
:10066600000304040404040408040404040403004A
:10067600045A2000000000000000000000000000F6
:100686000000000000000000002F0000000007002E
:10069600070000147F147F1400242A7F2A120062A8
:1006A6006408132300364955225000000503000054
:1006B60000001C224100000041221C000014083EDC
:1006C60008140008083E0808000000A060000008A2
:1006D60008080808000060600000002010080402F6
:1006E600003E5149453E0000427F400000426151B4
:1006F6004946002141454B31001814127F1000274E
:1007060045454539003C4A49493000017109050310
:1007160000364949493600064949291E0000363641
:1007260000000000563600000008142241000014A4
:100736001414141400004122140800020151090681
:1007460000324959513E007C1211127C007F494902
:100756004936003E41414122007F4141221C007F33
:1007660049494941007F09090901003E4149497A41
:10077600007F0808087F0000417F410000204041BB
:100786003F01007F08142241007F40404040007F27
:10079600020C027F007F0408107F003E4141413E6B
:1007A600007F09090906003E4151215E007F0919B3
:1007B60029460046494949310001017F0101003FB0
:1007C6004040403F001F2040201F003F4038403F30
:1007D6000063140814630007087008070061514994
:1007E600454300007F41410000552A552A55000027
:1007F60041417F00000402010204004040404040A5
:10080600000001020400002054545478007F48443C
:10081600443800384444442000384444487F003873
:100826005454541800087E0901020018A4A4A47C9C
:10083600007F080404780000447D40000040808466
:100846007D00007F102844000000417F4000007CAE
:1008560004180478007C08040478003844444438BA
:1008660000FC242424180018242418FC007C080406
:10087600040800485454542000043F444020003CDF
:100886004040207C001C2040201C003C4030403C66
:10089600004428102844001CA0A0A07C00446454F6
:1008A6004C4414141414141400000000000000003A
:1008B6000000000000000000000000F8000000003A
:1008C600000000333000000000100C06100C06007B
:1008D600000000000000000040C07840C0784000E2
:1008E600043F04043F040400007088FC0830000044
:1008F600001820FF211E0000F008F000E01800009C
:1009060000211C031E211E0000F008887000000054
:100916001E2123241927211010160E0000000000A6
:100926000000000000000000000000E018040200C3
:10093600000000071820400000020418E000000034
:100946000040201807000000404080F08040400032
:100956000202010F01020200000000F00000000088
:100966000101011F0101010000000000000000005C
:1009760080B07000000000000000000000000000D1
:10098600000101010101010100000000000000005A
:1009960000303000000000000000000080601804F5
:1009A600006018060100000000E010080810E000D2
:1009B600000F102020100F00001010F8000000009B
:1009C6000020203F202000000070080808887000E2
:1009D6000030282422213000003008888848300062
:1009E6000018202020110E000000C02010F8000082
:1009F60000070424243F240000F80888880808001B
:100A06000019212020110E0000E01088881800002F
:100A1600000F112020110E0000380808C838080001
:100A26000000003F00000000007088080888700081
:100A3600001C222121221C0000E010080810E00002
:100A46000000312222110F00000000C0C00000008B
:100A560000000030300000000000008000000000B0
:100A660000008060000000000000804020100800A8
:100A76000001020408102000404040404040400071
:100A8600040404040404040000081020408000004C
:100A96000020100804020100007048080808F00051
:100AA6000000003036010000C030C828E810E00021
:100AB6000718272423140B000000C038E0000000AC
:100AC600203C23020227382008F888888870000016
:100AD600203F202020110E00C030080808083800EA
:100AE600071820202010080008F808080810E00061
:100AF600203F202020100F0008F88888E808100002
:100B0600203F20202320180008F88888E8081000D5
:100B1600203F200003000000C0300808083800000D
:100B260007182020221E020008F808000008F8080E
:100B3600203F210101213F20000808F80808000095
:100B46000020203F2020000000000808F8080800C8
:100B5600C08080807F00000008F888C02818080040
:100B6600203F20012638200008F808000000000079
:100B7600203F20202020300008F8F800F8F8080070
:100B8600203F003F003F200008F830C00008F8086A
:100B9600203F200007183F00E01008080810E0007A
:100BA6000F10202020100F0008F808080808F00091
:100BB600203F210101010000E01008080810E000B4
:100BC6000F18242438504F0008F888888888700049
:100BD600203F2000030C30200070880808083800E9
:100BE6000038202121221C00180808F808081800DF
:100BF6000000203F2000000008F808000008F80860
:100C0600001F202020201F000878880000C8380810
:100C1600000007380E010000F80800F80008F80088
:100C2600033C0700073C0300081868808068180822
:100C360020302C03032C30200838C800C8380800A0
:100C46000000203F2000000010080808C8380800EF
:100C56002038262120201800000000FE0202020093
:100C66000000007F40404000000C30C00000000043
:100C7600000000010638C00000020202FE0000006B
:100C8600004040407F000000000004020202040011
:100C9600000000000000000000000000000000004E
:100CA6008080808080808080000202040000000036
:100CB600000000000000000000008080808000002E
:100CC6000019242222223F2008F80080800000001C
:100CD600003F112020110E000000008080800000DF
:100CE600000E112020201100000000808088F800EE
:100CF600000E112020103F20000080808080000020
:100D0600001F222222221300008080F08888881883
:100D16000020203F2020000000008080808080008E
:100D2600006B94949493600008F800808080000023
:100D3600203F210000203F200080989800000000FE
:100D46000020203F2020000000000080989800002E
:100D560000C08080807F000008F80000808080004E
:100D6600203F24022D302000000808F80000000073
:100D76000020203F2020000080808080808080002E
:100D8600203F20003F20003F8080008080800000C0
:100D9600203F210000203F2000008080808000004E
:100DA600001F202020201F0080800080800000007F
:100DB60080FFA12020110E000000008080808000AE
:100DC600000E112020A0FF8080808000808080009F
:100DD60020203F21200001000000808080808000CC
:100DE6000033242424241900008080E08080000041
:100DF6000000001F2020000080800000008080008E
:100E0600001F202020103F208080800000808080EE
:100E160000010E300806010080800080008080807E
:100E26000F300C030C300F000080800080808000A3
:100E36000020312E0E3120008080800000808080CE
:100E460080818E701806010000808080808080007E
:100E56000021302C2221300000000000807C02029C
:100E660000000000003F404000000000FF000000BE
:100E760000000000FF0000000002027C800000006D
:100E86000040403F00000000000601010202040489
:080E9600000000000000000054
:10005E00E4900573F0900573E064126017E4FB7D85
:10006E00757F69125D96900573EFF07F0A7E001220
:04007E00646B80E14E
:01008200225B
:105270007F0A7E0012646B12005E7B807D6B7F690B
:105280001263987F027E0012646BE4FB7D6B7F6982
:10529000125D96EF20E7F37B017D6B7F69126398C7
:1052A000E4FB7D6C7F691263987B017D1A7F691234
:1052B00063987B077D197F691263987B187D1B7F3C
:1052C000691263987B107D1C7F691263987B037D54
:0652D0001D7F69026398D6
:1056B0007B017A0479FC9004BF7406F0E4A3F07DCA
:1056C0003B7F69124DD99004FCE0FEA3E0FDEDFFA5
:1056D0009003CFEEF0A3EFF09004FEE0FEA3E0FD18
:1056E000EDFF9003D1EEF0A3EFF0900500E0FEA3F4
:0C56F000E0FDEDFF9003D3EEF0A3EFF01F
:0156FC00228B
:1056FD007B017A0579029004BF7406F0E4A3F07D76
:10570D00437F69124DD9900502E0FEA3E0FDEDFF48
:10571D009003D5EEF0A3EFF0900504E0FEA3E0FDBD
:10572D00EDFF9003D7EEF0A3EFF0900506E0FEA39A
:0C573D00E0FDEDFF9003D9EEF0A3EFF0CB
:01574900223D
:0660F300C292EF4480FFA1
:1060F900E4FEEEC39408748094805015EF339293B4
:10610900EF25E0FFC295D295A294E4334FFF0E80AC
:01611900E1A4
:01611A002262
:0D000600C2921260F9AF051260F9D2922289
:0F6595001260F3E4FF1260F9EF12148ED292221B
:0B5CD900900544EBF0A3EAF0A3E9F013
:105CE4001260F3E4FDFC900547E0FFC3ED9FEC94E4
:105CF40000501FE4FF1260F9900544E0FBA3E0FAB2
:105D0400A3E0F98D828C83EF1214A00DBD00010C69
:045D140080D4D292D3
:015D18002268
:10647F007B017A0579747F75126595900574E064D8
:03648F001270ED9B
:0164920022E7
:1055680012647F7D807F6B1200067F027E001264CA
:105578006B7B017A0579757F6B126595900575E0EF
:10558800644170ED7D017F6B1200061D7F6C120077
:10559800060D7F1A1200067D077F191200067D1876
:1055A8007F1B1200067D107F1C1200067D037F1DE5
:0355B800020006E8
:105955007B017A0579089005477406F07F3B125C58
:10596500D9900508E0FEA3E0FDEDFF9003CFEEF032
:10597500A3EFF090050AE0FEA3E0FDEDFF9003D153
:10598500EEF0A3EFF090050CE0FEA3E0FDEDFF9037
:0759950003D3EEF0A3EFF0D5
:01599C0022E8
:10599D007B017A05790E9005477406F07F43125C02
:1059AD00D990050EE0FEA3E0FDEDFF9003D5EEF0DE
:1059BD00A3EFF0900510E0FEA3E0FDEDFF9003D7FF
:1059CD00EEF0A3EFF0900512E0FEA3E0FDEDFF90E9
:0759DD0003D9EEF0A3EFF087
:0159E40022A0
:0E641400EBF0A3EAF0A3E9F0C292EF4480FFA0
:08642200AB07E4FDFF0257E4A3
:10002600900576EDF0C292126422900576E0FF12FA
:050036006422D29222B9
:10634100900556126414E4FF126422900556E0FB96
:0D635100A3E0FAA3E0F9EF12148ED292221D
:03560D009004B452
:10561000126414E49004B8F0A3F09004B7E0FFC360
:105620009004B9E09F9004B8E09400502FE4FF127A
:1056300064229004B4E0FBA3E0FAA3E0F99004B87C
:10564000E0FCA3E0F5828C83EF1214A09004B9E093
:0E56500004F070C69004B8E004F080BED29260
:01565E002229
:10622500E4900577F0900577E0641260147B017ABD
:106235000579777F751263417F0A7E0012646B8052
:01624500E474
:016246002235
:10518D00E4900578F07F0AFE12646B9004E77402D8
:10519D00F0E4A3F0A3F07B01FDFF125B4912622541
:1051AD007D807F6B1200267F027E0012646B7B0177
:1051BD007A0579787F6B126341900578E0644170D0
:1051CD00ED7D017F6B120026E4FD7F6C1200267DC4
:1051DD00017F1A1200267D077F191200267D187F88
:1051ED001B1200267D107F1C1200267D037F1D02E1
:0251FD0000268A
:1059E5007B017A0579149004B77406F07F3B125653
:1059F5000D900514E0FEA3E0FDEDFF9003CFEEF062
:105A0500A3EFF0900516E0FEA3E0FDEDFF9003D1B6
:105A1500EEF0A3EFF0900518E0FEA3E0FDEDFF909A
:075A250003D3EEF0A3EFF044
:015A2C002257
:105A2D007B017A05791A9004B77406F07F431256FC
:105A3D000D90051AE0FEA3E0FDEDFF9003D5EEF00D
:105A4D00A3EFF090051CE0FEA3E0FDEDFF9003D762
:105A5D00EEF0A3EFF090051EE0FEA3E0FDEDFF904C
:075A6D0003D9EEF0A3EFF0F6
:015A7400220F
:01004100229C
:07642A00C295126431D29506
:0E6431007F647E00EF1FAC0670011E4C70F6FB
:01643F00223A
:0F65A400D293D295126431C293126431C2952200
:0A004600C29312642AD293026431BF
:1063B400AD07C295126431ED6004C2938002D2939A
:0A63C400D295126431C295026431D3
:1064400012642A309306C295E4FEFF22C2951264BC
:06645000317E007F0122F5
:04616B00E025E0FF4C
:02616F00AD077A
:106171007B08AF031BEF6015ED30E704D29380027B
:10618100C293ED25E0FD12642CC29580E5026440C6
:025E7700AD0775
:105E7900E4FBC295126431D293E4FAEAC39408743C
:105E8900809480501112643112642AEB25E0FB30B2
:105E990093010B0A80E5C295126431AF051263B410
:025EA900AF0345
:015EAB0022D4
:10639800900579EFF0AA03A9051265A412616BAF05
:0C63A8000112616FAF0212616F0200462B
:095D960090057AEDF0AA07A903BB
:105D9F001265A4EA25E0FF12616FE0FF12616FE95F
:105DAF00640170031200461265A4AF02EF25E044B0
:105DBF0001FF12616FE4FF125E77AD07120046AF6D
:015DCF0005CE
:015DD00022B0
:104DD9009004BAEFF0A3EDF0A3EBF0A3EAF0A3E996
:104DE900F01265A49004BA12616BA3E0FF12616F1F
:104DF9009004C0E0640170031200461265A4900497
:104E0900BAE025E04401FF12616F9004BFE014F09D
:104E190060207F01125E779004BCE0FBA3E0FAA357
:104E2900E0F9EF12148E9004BDE475F00112155FDC
:104E390080D8E4FF125E779004BCE0FBA3E0FAA3FC
:094E4900E0F9EF12148E0200469C
:10653700E4FD7F0D12587A7D0A7C00E4FF02386182
:1052D600E490057BF0FDFF12583E7DFFE4FF125877
:1052E6003E7D01E4FF12583EE4FDFF12583EE49075
:1052F600057BF090057BE0FFC3948074809480501A
:1053060032EF25E02401F582E43400F583E0FDE484
:10531600FF12583E90057BE025E02401F582E43437
:1053260000F583A3E0FDE4FF12583E90057BE00400
:03533600F080C044
:015339002251
:105ABC00E490057CF0D2B6C2B7C2B6D2B7D2B6C2A9
:105ACC00B7F090057CE0C39480748094805027C21A
:105ADC00B67D027F0D125FFA90057CE025E0240173
:105AEC00F582E43400F583EEF0A3EFF0D2B6900526
:065AFC007CE004F080CC08
:015B02002280
:0665E7002564002566009A
:10654700C2A2C2A1AB07E4FD7F011257E4D2A22287
:10655700C2A2D2A1AB07E4FD7F011257E4D2A22267
:075EE0002428FFE03400FE5E
:025EE700AC0607
:105EE900EC900568F0A3EFF0C2A2D2A1900568E09A
:105EF900FBE4FD7F011257E4900569E0FBE4FD7FB7
:065F0900011257E4D2A2D0
:015F0F00226F
:1036FD009004E77412F0E4A3F0A3F07B117D107F2A
:10370D0001125B49D2A4C2A1C2A07FC87E0012647F
:10371D006BD2A07F647E0012646B7F361265477F8B
:10372D00A01265577F3A1265477F051265577FB224
:10373D001265477F0C1265577F0C126557E4FF1217
:10374D0065577F331265577F331265577FB7126503
:10375D00477F351265577FBB1265477F3712655717
:10376D007FC01265477F2C1265577FC21265477F58
:10377D00011265577FC31265477F121265577FC4CB
:10378D001265477F201265577FC61265477F0F125E
:10379D0065577FD01265477FA41265577FA11265CB
:1037AD00577FE01265477FD01265577F041265572A
:1037BD007F0D1265577F111265577F131265577F65
:1037CD002B1265577F3F1265577F541265577F4CFB
:1037DD001265577F181265577F0D1265577F0B12B3
:1037ED0065577F1F1265577F231265577FE112655D
:1037FD00477FD01265577F041265577F0C126557AE
:10380D007F111265577F131265577F2C1265577FF5
:10381D003F1265577F441265577F511265577F2FB1
:10382D001265577F1F1265577F1F1265577F201234
:10383D0065577F231265577F211265477F111265EA
:10384D00477F787E0012646B7F2912654774FFFFF6
:04385D00FE0251FF17
:10565F0090048DEEF0A3EFF0A3ECF0A3EDF0A3EA2E
:10566F00F0A3EBF07F2A12654790048EE090048D33
:10567F00125EE0900492E0900491125EE07F2B1294
:10568F006547900490E02434FF90048F125EE390FE
:10569F000494E02434FF900493125EE37F2C0265A0
:0156AF0047B3
:0851FF00900526EEF0A3EFF08D
:10520700900493E4F0A37486F07BEF7A00E4FDFC4E
:10521700FFFE12565FE4900528F0A3F0E490052AFC
:10522700F0A3F0900526E0FEA3E0FF125EE79005ED
:105237002BE004F0700690052AE004F0C390052BDC
:10524700E0948790052AE0940040D8900529E0046F
:10525700F07006900528E004F0C3900529E094F06B
:08526700900528E0940040B41A
:01526F00221C
:105C560090052CEEF0A3EFF0900530EAF0A3EBF000
:105C660090052EECF0A3EDF090052CE0FAA3E0FBF6
:105C7600FFAE02C007A3E0FFA3E0900493CFF0A31A
:105C8600EFF0D00712565F900530E0FEA3E0FF026A
:025C96005EE7C7
:0641BA00F583E02430FB58
:1041C000900495EEF0A3EFF0A3ECF0A3EDF0A3EBD9
:0141D000F0FE
:1041D100E4A3F090049AE0F9C394107480948040B1
:1041E10003024299E9FF900498E02FFD900497E0C3
:1041F1003400FC900496E02407FB900495E0340021
:10420100FA7E00900497E0F8A3E02FFFEE389004C7
:1042110093F0A3EFF0900495E0FEA3E0FF12565F48
:10422100900499E0FF3395E0FEEFC4F8540FC8689D
:10423100FFEEC454F048FE74962FF58274FE3EF5ED
:1042410083C083C08290049AE0D082D0832582F516
:1042510082E43583F583E49390049CF0E490049B1D
:10426100F090049BE0C39408748094805021A3E0F3
:1042710030E0067F007EF8800474FFFFFE125EE7E7
:1042810090049CE0C313F090049BE004F080D29072
:08429100049AE004F00241D49C
:014299002202
:10502E0090045AEEF0A3EFF0A3ECF0A3EDF0A3EB97
:07503E00F0A3EAF0A3E9F082
:10504500E4A3F0A3F090045EE0FBA3E0FAA3E0F98B
:10505500A3E0FEA3E0FFF5828E83121461FB603EA0
:10506500EF7803C333CE33CED8F9FF90045BE02F3E
:10507500FF90045AE03EFE90045DE0C4F8540FC86A
:1050850068FD90045CE0C454F048FC1241C09004F3
:0E50950062E004F070AF900461E004F080A7C8
:0150A30022EA
:10437400900463EEF0A3EFF0A3ECF0A3EDF0A3EB55
:01438400F048
:104385003395E0C364809480900466E0C4F8540FCC
:10439500C868FD900465E0C454F048FC900463E0EF
:1043A500FEA3E0FF500E7B2D1241C0900467E0F4A0
:1043B50004F080057B201241C0900467E0FF75F092
:1043C50064121426900468F0EF75F00A121426FFA3
:1043D50075F00A121426AFF0900469EFF0900467A7
:1043E500E0FF75F00A121426AFF090046AEFF0E4CE
:1043F500A3F090046BE0FBFF7E00C39403748094EC
:10440500805045EF2401FFEE33FEEF7803C333CE32
:1044150033CED8F9FF900464E02FFF900463E03EAB
:10442500FE900466E0C4F8540FC868FD900465E08A
:10443500C454F048FC74682BF582E434041241BA84
:0844450090046BE004F080AA72
:01444D00224C
:0E4F410090049DEEF0A3EFF0A3ECF0A3EDF0D2
:104F4F00EB75F06484A3F0EB75F00A8475F00A84B6
:104F5F00A3E5F0F0EB75F00A84A3E5F0F0E4A3F01D
:104F6F009004A4E0C3940374809480503BE0FB75DD
:104F7F00F008A4FF90049EE02FFF90049DE035F011
:104F8F00FE9004A0E0C4F8540FC868FD90049FE0A1
:104F9F00C454F048FC74A12BF582E434041241BAD6
:084FAF009004A4E004F080B8B6
:014FB70022D7
:103AB1009003DBEEF0A3EFF0A3ECF0A3EDF0A3EAAB
:043AC100F0A3EBF093
:103AC500C3EA648094809003DEE0C4F8540FC868AC
:103AD500FD9003DDE0C454F048FC9003DBE0FEA359
:103AE500E0FF501C7B2D1241C09003DFE0FEA3E0F8
:103AF500FFC3E49FFFE49E9003DFF0A3EFF0800592
:103B05007B201241C09003DFE0FAA3E0FB7C277D18
:103B150010FFAE02121529A3EFF07C037DE8AF0379
:103B2500AE021215297C007D0A121529A3EDF0902D
:103B350003DFA3E07C007D64FFAE021215297C0043
:103B45007D0A1215299003E3EDF07C007D0AAF0391
:103B5500AE021215297C007D0A121529A3EDF090FD
:103B650003DFE0FEA3E0FF7C007D0A121529900328
:103B7500E5EDF0E4A3F09003E6E0FBFF7E00C394DF
:103B850005748094805045EF2401FFEE33FEEF78F5
:103B950003C333CE33CED8F9FF9003DCE02FFF907B
:103BA50003DBE03EFE9003DEE0C4F8540FC868FD79
:103BB5009003DDE0C454F048FC74E12BF582E43455
:0C3BC500031241BA9003E6E004F080AA6D
:013BD10022D1
:0E476900900434EEF0A3EFF0A3ECF0A3EDF01B
:104777007C277D10AF03AE021214D4A3EFF07C03A5
:104787007DE8AF03AE021214D47C007D0A1214D464
:10479700A3EDF07C007D64AF03AE021214D47C005D
:1047A7007D0A1214D4A3EDF07C007D0AAF03AE029C
:1047B7001214D47C007D0A1214D4A3EDF0AE02AF1C
:1047C700037C007D0A1214D4A3EDF0E4A3F0900457
:1047D7003DE0C3940574809480503BE0FB75F0087E
:1047E700A4FF900435E02FFF900434E035F0FE90ED
:1047F7000437E0C4F8540FC868FD900436E0C45489
:10480700F048FC74382BF582E434041241BA900462
:064817003DE004F080B852
:01481D002278
:0E3FE200900314EEF0A3EFF0A3ECF0A3EDF0CB
:103FF00090031CE0FFC3740A9F7480F89850037408
:104000000AF090031CE004F0900318E0FCA3E0FD2C
:10401000A3E0FEA3E0FFE4FBFAF9F8D31216674031
:104020003190022D74FFF0A37465F0A374E7F09053
:104030000318E0FCA3E0FDA3E0FEA3E0FF90023044
:104040001216C10B7A03791D12248590033FEFF0FD
:10405000803890031D7420F090022D74FFF0A3743B
:1040600065F0A374E7F0900318E0FCA3E0FDA3E083
:10407000FEA3E0FF9002301216C17B017A03791E85
:1040800012248590033FEFF0801E90031CE0FF9008
:10409000033FE0FEC39F5015741D2EF582E43403E8
:1040A000F5837420F090033FE004F080DD741D2F51
:1040B000F582E43403F583E4F0900314E0FEA3E01A
:1040C000FFA3E0FCA3E0FD7B017A03791D02502EE3
:0E32AE0090028AEEF0A3EFF0A3ECF0A3EDF097
:1032BC00900293E0FFC374069F7480F898500374D7
:1032CC0006F0900292E0FFC3740A9F7480F8985045
:1032DC0003740AF090028EE0FCA3E0FDA3E0FEA3D1
:1032EC00E0FFE4FBFAF9F812113C90022D6031403A
:1032FC002F74FFF0A37465F0A374EAF090028EE0D3
:10330C00FCA3E0FDA3E0FEA3E0FF9002301216C187
:10331C007B017A027995122485900294EFF080302B
:10332C0074FFF0A37465F0A374EAF090028EE0FCD5
:10333C00A3E0FDA3E0FEA3E0FF9002301216C17BD8
:10334C00017A027996122485900294EFF0E004F051
:10335C00900294E024F9FD900292E0FEC3ED9E14DD
:10336C009002B7F0900293E0AE052E049002B8F0F4
:10337C009002B7E0FF3395E0FED3E49FEE6480F853
:10338C007480984022A3E0FF3395E0FE74952FF5EE
:10339C008274023EF5837420F09002B8E004F09041
:1033AC0002B7E004F080C990028EE0FCA3E0FDA31C
:1033BC00E0FEA3E0FFE4FBFAF9F812113C9002B72F
:1033CC0060174015E0FF3395E0FE74952FF582747D
:1033DC00023EF583742DF08013E0FF3395E0FE740C
:1033EC00952FF58274023EF5837420F09002B8E0BC
:1033FC00FF3395E0FE74952FF58274023EF583E45D
:10340C00F090028AE0FEA3E0FFA3E0FCA3E0FD7BCA
:08341C00017A02799502502E9D
:102FA50090036CEEF0A3EFF0A3ECF0A3EDF0A3EB30
:022FB500F0F931
:102FB700E0FF131313541F90037EF0900374E08F08
:102FC700F0A424FFFDE5F034FFFC90036CE0FEA3C2
:102FD700E0FF2DFBEE3CFAC002C003C006A3E0FCF5
:102FE700A3E0FDE9FB7A0090036EE0F8A3E02BFB7A
:102FF700EA38CB24FFFEEB34FF900493F0A3CEF026
:10300700D006D003D00212565FE4900377F0A3F006
:10301700900370E0FF900377E0FCA3E0FDC39F748B
:1030270080F8EC6480984003023137900374E09095
:10303700037DF0A3E0FF7E001214C2900371E0FB52
:10304700A3E0FAA3E02FF9EA3E02311790037DE0EF
:10305700FF14F0EF7003023126E490037BF0A3F036
:1030670090037EE0FFC390037CE09F7480F8900399
:103077007BE06480985076900379E4F0A37408F0BD
:10308700900379E0FEA3E0FFD39400EE6480948080
:10309700404090037FE0FBA3E0FAA3E0F912144855
:1030A700FDEF14FFF8ED088002C313D8FC5401604C
:1030B7000A900375E0FEA3E0FF800474FFFFFE1291
:1030C7005EE790037AE024FFF0900379E034FFF0A5
:1030D70080AE900380E475F00112155F90037CE0E9
:1030E70004F0700690037BE004F002306790037EE3
:1030F700E0FFFDA3E0FBA3E0FAA3E0C39DF9EA9498
:1031070000FA900370E0FEEF8EF0A429F9EA35F09B
:10311700FA90037FEBF0A3EAF0A3E9F002305390B3
:103127000378E004F07006900377E004F0023017AC
:013137002275
:10626800E4FB7D6B7F681263987B077D197F68125A
:106278006398E4FB7D197F68125D96EF640770F2FE
:0162880022F3
:10590C007F647E0012646B126268E4FB7D6B7F68BF
:10591C001263987B077D197F681263987B047D1A4C
:10592C007F681263987B187D1B7F681263987B10CD
:10593C007D1C7F68126398E4FB7D6A7F6812639814
:09594C007B027D377F680263983D
:10574A007B017A0579329004BF7406F0E4A3F07DF8
:10575A003B7F68124DD9900532E0FEA3E0FDEDFFD4
:10576A009003E7EEF0A3EFF0900534E0FEA3E0FD2E
:10577A00EDFF9003E9EEF0A3EFF0900536E0FEA30B
:0C578A00E0FDEDFF9003EBEEF0A3EFF06C
:0157960022F0
:105797007B017A0579389004BF7406F0E4A3F07DA5
:1057A700437F68124DD9900538E0FEA3E0FDEDFF79
:1057B7009003EDEEF0A3EFF090053AE0FEA3E0FDD5
:1057C700EDFF9003EFEEF0A3EFF090053CE0FEA3B2
:0C57D700E0FDEDFF9003F1EEF0A3EFF019
:0157E30022A3
:0A65B3002D0020002564002566007D
:05605000F583E493FF5D
:106055007E08C2A2D2A1C2A5AD061EED6014EF3026
:10606500E704D2A38002C2A3D2A5C2A5EF25E0FF13
:0460750080E6D2A24D
:016079002204
:1061B7007E06C2A2D2A1C2A5AD061EED6014EF30C5
:1061C700E704D2A38002C2A3D2A5C2A5EF25E0FFB0
:0461D70080E6D2A2EA
:0161DB0022A1
:085FA00054F0C4540F4410FF3B
:105FA8007E08C2A2C2A1C2A5AD061EED6014EF30E4
:105FB800E704D2A38002C2A3D2A5C2A5EF25E0FFC1
:045FC80080E6D2A2FB
:015FCC0022B2
:104C5D009004C1EEF0A3EFF0A3EBF0A3EAF0A3E90B
:014C6D00F056
:104C6E009004C77406F09004C3E0FBA3E0FAA3E03F
:104C7E00F99004C7E0F582758300E4804E9004C776
:104C8E00E0604D14F09004C1E0FAA3E0FB7C007DDF
:104C9E000AFFAE021214D49004C6EDF07C007D0A19
:104CAE00AF03AE021214D49004C1EEF0A3EFF09055
:104CBE0004C6E02430FF9004C3E0FBA3E0FAA3E0B7
:104CCE00F99004C7E0F582758300EF1214A080AD51
:014CDE0022B3
:1048CA00D2A2D2A5C2A07F327E0012646BD2A07F90
:1048DA00AE125FA8E4FF125FA87F10125FA87F40A4
:1048EA00125FA87F81125FA87F7F125FA87FA11243
:1048FA005FA87FC8125FA87FA6125FA87FA8125F71
:10490A00A87F3F125FA87FD3125FA8E4FF125FA8B7
:10491A007FD5125FA87F80125FA87FD9125FA87F18
:10492A00F1125FA87FDA125FA87F12125FA87FDBFD
:10493A00125FA87F40125FA87F20125FA87F021231
:10494A005FA87F8D125FA87F14125FA87FA4125FF1
:10495A00A87FA6125FA87FAF125FA8E4FF125E408D
:06496A00E4FDFF0264936E
:10649300AC07ED24B0FF125FA8EC125FA0EC540F21
:0464A300FF025FA8ED
:025E4000AC07AD
:105E4200E4FBEBC39408748094805028EB24B0FFE9
:105E5200125FA87F01125FA87F10125FA8E4FAEA1E
:105E6200C39480748094805008AF041260550A80F5
:045E7200EE0B80CEE5
:015E76002209
:1062CB00AA07A905126493E924B0FF125FA8EA128A
:0E62DB005FA0EA540FFF125FA8AF03026055E8
:1062E900AB07AA05126493EA24B0FF125FA8EB1268
:0E62F9005FA0EB540FFF125FA8E4FF02605598
:104B41009004C8EFF0A3EDF0A3EBF0A3EAF0A3E922
:014B5100F073
:104B5200E4A3F0FCA3F09004CAE0FBA3E0FAA3E014
:104B6200F99004CEE0F582758300121461605F242F
:104B7200E09004CDF09004C8E0D3947E74809480D9
:104B82004006E4F0A3E004F09004C8E0FFA3E0FDD7
:104B9200126493E4FCECC3940674809480502090D9
:104BA20004CDE075F006A42486F582E5F03406F51E
:104BB20083E5822CF582E435831260500C80D69016
:0E4BC20004C8E02406F09004CEE004F08088E1
:014BD00022C2
:10451D009004CFEFF0A3EDF0A3EBF0A3EAF0A3E945
:01452D00F09D
:10452E00E4A3F0FCA3F09004D1E0FBA3E0FAA3E037
:10453E00F99004D5E0F582758300121461700302C0
:10454E0045E824E09004D4F09004CFE0D39478743E
:10455E008094804006E4F0A3E004F09004CFE0FFE6
:10456E00A3E0FD126493E4FCECC394087480948081
:10457E0050209004D4E075F010A42CF582E435F0B0
:10458E00F583E58224AEF582E58334081260500C83
:10459E0080D69004CFE0FFA3E004FD126493E4FC08
:1045AE00ECC394087480948050209004D4E075F08D
:1045BE0010A42CF582E435F0F583E58224B6F5825D
:1045CE00E58334081260500C80D69004CFE02408A6
:0A45DE00F09004D5E004F00245342B
:0145E80022B0
:0861910090046CEFF0A3EDF0A7
:10619900AE02AF037B017A04796E124C5D90046CF8
:0E61A900E0FFA3E0FD7B017A04796F024B4119
:0E50A40090040AEFF0A3EDF0A3EAF0A3EBF006
:1050B200C3EA64809480502590040CE0FEA3E0FFD4
:1050C200C3E49FFFE49E90040CF0A3EFF090040A67
:1050D200E0FFA3E0FD7BFF7A6579B3800E90040ABE
:1050E200E0FFA3E0FD7BFF7A6579B5124B419004A6
:1050F2000AE02406F090040CE0FEA3E0FF7B017AB4
:1051020004790E124C5D90040AE0FFA3E0FD7B01DE
:075112007A04790F024B4102
:0E40D000900340EEF0A3EFF0A3ECF0A3EDF0B0
:1040DE00900348E0FFC3740A9F7480F898500374ED
:1040EE000AF0900348E004F0900344E0FCA3E0FDE6
:1040FE00A3E0FEA3E0FFE4FBFAF9F8D31216674043
:10410E00319001D174FFF0A37465F0A374B7F090F1
:10411E000344E0FCA3E0FDA3E0FEA3E0FF9001D486
:10412E001216C10B7A037949121E7E90036BEFF0C3
:10413E0080389003497420F09001D174FFF0A3747D
:10414E0065F0A374B7F0900344E0FCA3E0FDA3E098
:10415E00FEA3E0FF9001D41216C17B017A03794AC7
:10416E00121E7E90036BEFF0801E900348E0FF90CE
:10417E00036BE0FEC39F501574492EF582E43403A1
:10418E00F5837420F090036BE004F080DD74492F0A
:10419E00F582E43403F583E4F0900340A3E0FFA33B
:0C41AE00A3E0FD7B017A037949024B413C
:0E3424009002B9EEF0A3EFF0A3ECF0A3EDF0F0
:103432009002C2E0FFC374069F7480F89850037430
:1034420006F09002C1E0FFC3740A9F7480F898509E
:1034520003740AF09002BDE0FCA3E0FDA3E0FEA32A
:10346200E0FFE4FBFAF9F812113C9001D16031401F
:103472002F74FFF0A37465F0A374BAF09002BDE05C
:10348200FCA3E0FDA3E0FEA3E0FF9001D41216C16D
:103492007B017A0279C4121E7E9002C3EFF0803063
:1034A20074FFF0A37465F0A374BAF09002BDE0FC5F
:1034B200A3E0FDA3E0FEA3E0FF9001D41216C17BBE
:1034C200017A0279C5121E7E9002C3EFF0E004F089
:1034D2009002C3E024F9FD9002C1E0FEC3ED9E1408
:1034E2009002E6F09002C2E0AE052E049002E7F0F0
:1034F2009002E6E0FF3395E0FED3E49FEE6480F8AD
:103502007480984022A3E0FF3395E0FE74C42FF547
:103512008274023EF5837420F09002E7E004F0909A
:1035220002E6E004F080C99002BDE0FCA3E0FDA346
:10353200E0FEA3E0FFE4FBFAF9F812113C9002E688
:1035420060174015E0FF3395E0FE74C42FF58274D6
:10355200023EF583742DF08013E0FF3395E0FE7494
:10356200C42FF58274023EF5837420F09002E7E0E6
:10357200FF3395E0FE74C42FF58274023EF583E4B6
:10358200F09002B9A3E0FFA3A3E0FD7B017A0279E8
:04359200C4024B41E3
:1018C200900397ECF0A3EDF0A3EBF0A3EAF0A3E909
:0918D200F0900395EEF0A3EFF095
:1018DB007E005407FF9003A3EEF0A3EFF070179078
:1018EB000395E0FEA3E07803CEC313CE13D8F9FF24
:1018FB009003A1EE8018900395E0FEA3E07803CE51
:10190B00C313CE13D8F92401FFE43E9003A1F0A337
:10191B00EFF0E490039DF0A3F09003A1E0FEA3E0B1
:10192B00FF90039DE0FCA3E0FDC39FEE6480F8EC09
:10193B006480984003021E7DE4FF126493E4A3F0DD
:10194B00A3F0900397E0FCA3E0FDC39003A0E09D00
:10195B0090039FE09C4003021E6CE49003A5F09063
:10196B0003A2E024FFFF9003A1E034FFFE90039D50
:10197B00E0FAA3E0FBC39FEE6480F8EA6480984032
:10198B00159003A3E0FEA3E0FF4E600AEF9401EE77
:10199B0064809480404D9003A5E0FFC007AE02EB3E
:1019AB007803C333CE33CED8F9FF1214C290039908
:1019BB00E0FBA3E0FAA3E02FF9EA3EFA90039FE0E5
:1019CB00FEA3E029F9EA3EFA121448FF90039CE0CB
:1019DB00FEEFD39E40047E0180027E00D0E04E904D
:1019EB0003A5F09003A2E024FFFF9003A1E034FFD6
:1019FB00FE90039DE0FCA3E0FDC39FEE6480F8EC3A
:101A0B0064809840159003A3E0FEA3E0FF4E600AAC
:101A1B00EF9402EE6480948040639003A5E0FFC0D6
:101A2B0007AE04ED7803C333CE33CED8F9FF900362
:101A3B0097E0FCA3E0FD1214C2A3E0FBA3E0FAA322
:101A4B00E02FF9EA3EFA90039FE0FEA3E029F9EAC2
:101A5B003EFA900397E0FEA3E029F9EA3EFA12144E
:101A6B0048FF90039CE0FEEFD39E40047F01800271
:101A7B007F00EF25E0FED0E04E9003A5F09003A28F
:101A8B00E024FFFF9003A1E034FFFE90039DE0FCF8
:101A9B00A3E0FDC39FEE6480F8EC64809840159042
:101AAB0003A3E0FEA3E0FF4E600AEF9403EE648015
:101ABB009480406C9003A5E0FFC007AE04ED780363
:101ACB00C333CE33CED8F9FF900397E0FCA3E0FDF0
:101ADB001214C2A3E0FBA3E0FAA3E02FF9EA3EFA4B
:101AEB0090039FE0FEA3E029F9EA3EFA900398E009
:101AFB0025E0FF900397E033FEE92FF9EA3EFA1257
:101B0B001448FF90039CE0FEEFD39E40047F0180BE
:101B1B00027F00EF25E025E0FED0E04E9003A5F01C
:101B2B009003A2E024FFFF9003A1E034FFFE90039B
:101B3B009DE0FCA3E0FDC39FEE6480F8EC6480980D
:101B4B0040159003A3E0FEA3E0FF4E600AEF940460
:101B5B00EE64809480406A9003A5E0FFC007AE045A
:101B6B00ED7803C333CE33CED8F9FF900397E0FC67
:101B7B00A3E0FD1214C2A3E0FBA3E0FAA3E02FF94C
:101B8B00EA3EFA90039FE0FEA3E029F9EA3EFA90C1
:101B9B000397E0FEA3E0F5828E8374031216FE1208
:101BAB001461FF90039CE0FEEFD39E40047F018005
:101BBB00027F00EF33333354F8FED0E04E9003A591
:101BCB00F09003A2E024FFFF9003A1E034FFFE900E
:101BDB00039DE0FCA3E0FDC39FEE6480F8EC648002
:101BEB009840159003A3E0FEA3E0FF4E600AEF942C
:101BFB0005EE64809480406D9003A5E0FFC007AEB6
:101C0B0004ED7803C333CE33CED8F9FF900397E0BE
:101C1B00FCA3E0FD1214C2A3E0FBA3E0FAA3E02FA8
:101C2B00F9EA3EFA90039FE0FEA3E029F9EA3EFAB7
:101C3B00900397E0FEA3E07802C333CE33CED8F9FE
:101C4B0029F9EA3EFA121448FF90039CE0FEEFD309
:101C5B009E40047F0180027F00EFC454F0FED0E071
:101C6B004E9003A5F09003A2E024FFFF9003A1E0A8
:101C7B0034FFFE90039DE0FCA3E0FDC39FEE648068
:101C8B00F8EC64809840159003A3E0FEA3E0FF4EB0
:101C9B00600AEF9406EE6480948040699003A5E09F
:101CAB00FFC007AE04ED7803C333CE33CED8F9FFB4
:101CBB00900397E0FCA3E0FD1214C2A3E0FBA3E0AA
:101CCB00FAA3E02FF9EA3EFA90039FE0FEA3E02986
:101CDB00F9EA3EFA900397E0FEA3E0F5828E837457
:101CEB00051216FE121461FF90039CE0FEEFD39ECB
:101CFB0040047F0180027F00EFC43354E0FED0E04C
:101D0B004E9003A5F09003A2E024FFFF9003A1E007
:101D1B0034FFFE90039DE0FCA3E0FDC39FEE6480C7
:101D2B00F8EC64809840159003A3E0FEA3E0FF4E0F
:101D3B00600AEF9407EE64809480406A9003A5E0FC
:101D4B00FFC007AE04ED7803C333CE33CED8F9FF13
:101D5B00900397E0FCA3E0FD1214C2A3E0FBA3E009
:101D6B00FAA3E02FF9EA3EFA90039FE0FEA3E029E5
:101D7B00F9EA3EFA900397E0FEA3E0F5828E8374B6
:101D8B00061216FE121461FF90039CE0FEEFD39E29
:101D9B0040047F0180027F00EFC4333354C0FED078
:101DAB00E04E9003A5F09003A2E024FFFF9003A167
:101DBB00E034FFFE90039DE0FCA3E0FDC39FEE64C7
:101DCB0080F8EC64809840159003A3E0FEA3E0FF3D
:101DDB004E600AEF9408EE64809480406B9003A5EC
:101DEB00E0FFC007AE04ED7803C333CE33CED8F992
:101DFB00FF900397E0FCA3E0FD1214C2A3E0FBA34A
:101E0B00E0FAA3E02FF9EA3EFA90039FE0FEA3E08D
:101E1B0029F9EA3EFA900397E0FEA3E0F5828E8360
:101E2B0074071216FE121461FF90039CE0FEEFD3B1
:101E3B009E40047F0180027F00EFC4333333548014
:101E4B00FED0E04E9003A5F09003A5E0FF12605585
:101E5B009003A0E004F0700690039FE004F00219D9
:101E6B004D90039EE004F0700690039DE004F00299
:021E7B00192428
:011E7D002242
:0B444E009003B6EFF0A3EDF0A3EBF03D
:10445900E49003BDF0A3F09003BCE0FFC39003BE5A
:10446900E09F7480F89003BDE064809840030245A2
:104479001CE49003BFF0A3F09003B8E0FF131313FB
:10448900541FFD9003BFE0FAA3E0FBC39D7480F8BD
:10449900EA64809850699003BDA3E08FF0A4FF906F
:1044A90003B6E02FFFA3E02BFD126493E49003C150
:1044B900F0A3F09003B9E0FBA3E0FAA3E0F912142A
:1044C90048FF1260559003BAE475F00112155F9028
:1044D90003C2E004F070069003C1E004F0C3900346
:1044E900C2E094109003C1E06480948040C59003B9
:1044F900C0E004F070829003BFE004F002448190B0
:1045090003BEE004F060030244609003BDE004F0E0
:03451900024460F9
:01451C00227C
:1064CE00EF1FAA0670011E4A60087D091DED60F0DF
:0264DE0080FA42
:0164E0002299
:0B5FCD00C2CCEF4480FF125FD8AF058C
:105FD800E4FEEEC39408748094805015EF3392FD6C
:105FE800EF25E0FFC2FFD2FFA2FEE4334FFF0E8091
:015FF800E1C7
:015FF9002285
:0665ED00125FCDD2CC22AA
:10645600C2CCEF4440FF125FD8E4FF125FD8EF12C0
:05646600148ED2CC22CF
:10628900125FCDD2CCC2CCE4FF125FD8AC07E4FFD9
:10629900125FD8D2CCAF04ED6F60037F01227F007B
:0162A90022D2
:105D1900900559EBF0A3EAF0A3E9F0C2CCEF4440B7
:105D2900FF125FD8E4FF125FD8D2CC7F017E001248
:105D390064CEC2CCE4FF125FD8900559E0FBA3E022
:105D4900FAA3E0F9EF12148EE4FF125FD8D2CC2245
:10611B00AB07AA06C3E49BFB74109AFAEBC4F854C2
:10612B000FC868FBEAC454F048FAAD03E4FF1262EF
:08613B0089EAFD7F010262897F
:1061DC00C2CCE4FF125FD8AD07ED7D00FCE4FF12EA
:1061EC005FD8D2CCAE04EEC4F854F0C868FEEFC44D
:0461FC00540F48FFF5
:01620000227B
:1064A7007B017A05797D7F06125D1990057DE06491
:0364B7001C70ED69
:0164BA0022BF
:106567001264A7E4FD7F09126289E4FFFE02611B42
:0E63E700EBF0A3EAF0A3E9F0C2CCEF4440FFD4
:0963F500AB07E4FD7F020257E44E
:1063CE0090057EEDF0C2CCEF4480FF1263F5900590
:0963DE007EE0FF1263F5D2CC222F
:10635E0090055C1263E7E4FF125FD890055CE0FBEA
:0D636E00A3E0FAA3E0F9EF12148ED2CC22C6
:055D590090056AEDF069
:105D5E00C2CCEF4480FF1263F590056AE0FF126338
:105D6E00F5D2CCC2CCE4FF1263F590056BEFF0E4F4
:105D7E00FF1263F5D2CC90056BE0FF90056AE06FE1
:075D8E0060037F01227F008A
:015D950022EB
:1060250090055F1263E7E4FF1263F5D2CCC2CCE4BE
:10603500FF1263F590055FE0FBA3E0FAA3E0F9EF3B
:0B60450012148EE4FF1263F5D2CC228F
:105DD10090056CEEF0A3EFF0C3E49FF074109E9079
:105DE100056CF0A3E0C4F8540FC868FF90056CE09F
:105DF100C454F048F0A3EFF0FDE4FF125D599005A3
:085E01006CE0FD7F01025D5918
:105C9800E490056EF0A3F0C2CCFF1263F590056E98
:105CA800E4F0A3EFF0E0F8E4F0E890056EF0E4FF2C
:105CB8001263F590056EE0F0A3E04FF0D2CC9005AA
:105CC8006EE0C4F854F0C868FEA3E0C4540F48FF5F
:015CD80022A9
:1062AA007B017A05797F7F0612602590057FE0FBE6
:1062BA00E4FDFCFFFE124F4190057FE0641C70E094
:0162CA0022B1
:106201009004E77422F0E4A3F0A3F07B217D207FCA
:1062110002125B491262AAE4FD7F09125D59E4FF93
:04622100FE025DD14B
:1064E10090022D1216CD0001C2007B117D107F0399
:0364F100023596DB
:10481E009004D6EBF0A3EAF0A3E9F0A38062E47F64
:10482E001EFEFDFC9004D9E0F8A3E0F9A3E0FAA384
:10483E00E0FBD312167D404D308402804B9004D69F
:10484E00E0FBA3E0FAA3E0F99004F4E4F0A3741EF5
:10485E00F07F031260A39004D7E475F01E12155F6B
:10486E009004D9E0FCA3E0FDA3E0FEA3E0C3941EF8
:10487E00FFEE9400FEED9400FDEC9400FC9004D944
:10488E001216C1809930840F9004D9E0FCA3E0FD8C
:10489E00A3E0FEA3E0FF229004D6E0FBA3E0FAA380
:1048AE00E0F9A3A3A3E0FFA3E09004F4CFF0A3EFFD
:0C48BE00F07F031260A3E4FFFEFDFC226B
:0E4AB0009004DDEBF0A3EAF0A3E9F0A3EDF033
:104ABE0074FFA3F0A3F0E4A3F09004E0E0FF9004F1
:104ACE00E3E0FEC39F50639004DDE0FBA3E0FAA396
:104ADE00E0F98E82758300121461FF9004E1E0F01C
:104AEE00A3E06FF0E4FDEDC394087480948050321F
:104AFE009004E1E0FEA3E0FF30E019EEC313FEEFF9
:104B0E0013FFEE64A0FEEF6401FF9004E1EEF0A34C
:104B1E00EFF0800B9004E1E0C313F0A3E013F00D6F
:104B2E0080C49004E3E004F0808F9004E1E0FEA3E3
:024B3E00E0FF96
:014B40002252
:10497000900417ECF0A3EDF0A3EAF0A3EBF09004A1
:0649800015EEF0A3EFF0BC
:10498600E4FC90041DE0FBA3E0FAA3E0F9EF1214A7
:104996008E900415E0FEEEFF90041DE0FBA3E0FA06
:1049A600A3E0F9900001EF1214A0900417A3E09081
:1049B60000021214A0900417E0FEEE9000031214F9
:1049C600A0900419A3E09000041214A0900419E02A
:1049D600FEEE9000051214A090041BA3E0900006C2
:1049E6001214A090041BE0FEEE9000071214A07DA6
:1049F60008124AB090041DE0FBA3E0FAA3E0F99088
:0D4A06000008EF1214A0EE9000090214A0A9
:102DEF00900200E0FBA3E475F004121575A9F0FA48
:102DFF001216A19002251216C1900225E0FCA3E045
:102E0F00FDA3E0FEA3E0FF7B017A027904E49003C7
:062E1F0089F0A37410F01D
:102E25009003821216C1900386EBF0A3EAF0A3E9A2
:012E3500F0AC
:102E3600E4900393F0A3F0900389E07003022EF46C
:102E4600900382E0FCA3E0FDA3E0FEA3E0FF900375
:102E56008B1216C190038BE0FCA3E0FDA3E0FEA35A
:102E6600E0FFEC33501090038BA3A3A3E012165996
:102E760090038B1216C190038AE0FBE4FAF9F8A3DB
:102E8600E0FCA3E0FDA3E0FEA3E0FF125B8EEB24D3
:102E960030FF900386E0FBA3E0FAA3E0F9EF1214FB
:102EA6008E90038BE0FCA3E0FDA3E0FEA3E0FFC051
:102EB6000790038AE0FBE4FAF9F8D007125B8E90DC
:102EC600038B1216C1900394E004F090038BE0FC90
:102ED600A3E0FDA3E0FEA3E0FFEC4D4E4F7003021E
:102EE6002F9F900387E475F00112155F8088900389
:102EF60082E0FCA3E0FDA3E0FEA3E0FF90038F12B7
:102F060016C190038AE0FBE4FAF9F890038FE0FC1F
:102F1600A3E0FDA3E0FEA3E0FF1215C7AF039003F5
:102F260093EFF0D3740A9F7480F8985006E0243724
:102F3600F08007900393E02430F0900393E0FF9035
:102F46000386E0FBA3E0FAA3E0F9EF12148E9003E8
:102F56008FE0FCA3E0FDA3E0FEA3E0FFC007900323
:102F66008AE0FBE4FAF9F8D0071215C790038F122E
:102F760016C1900394E004F090038FE0FCA3E0FDFB
:102F8600A3E0FEA3E0FFEC4D4E4F600D900387E4F7
:0E2F960075F00112155F022F08900394E0FF02
:012FA400220A
:103DFB00900229EFF07B017A027904E0FFE4FCFDED
:013E0B00FEB8
:0F3E0C009003F3EBF0A3EAF0A3E9F0A31216C1C1
:103E1B009003FA1216CD00000000E47B02FAF9F8C9
:103E2B009003F6E0FCA3E0FDA3E0FEA3E0FF121578
:103E3B00C79003FAE0F8A3E0F9A3E0FAA3E0FBC311
:103E4B0012167D4003023EF39003F6A3A3E0FEA3FC
:103E5B00E024FFFBEE34FFFAA3A3A3E0FEA3E0FFF5
:103E6B00C3EB9FFDEA9EFC9003F3E0FBA3E0FAA3F8
:103E7B00E0F98D828C831214619003FEF08F828E99
:103E8B0083121461FFC0079003F6A3A3E0FEA3E027
:103E9B0024FFFBEE34FFFAA3A3A3E0FEA3E0FDACEB
:103EAB0006C3EB9DFFEA9CFE9003F3E0FBA3E0FA55
:103EBB008F828E83D0E01214A09003FEE0FFEF8D73
:103ECB00828C831214A09003FAE0FCA3E0FDA3E024
:103EDB00FEA3E02401FFE43EFEE43DFDE43CFC9048
:083EEB0003FA1216C1023E2584
:013EF30022AC
:0B1E7E009001CEEBF0A3EAF0A3E9F026
:101E89009001FC1216CD000000009002007401F0D0
:101E9900A37401F0A374D4F09001D1E0FBA3E0FA9C
:0B1EA900A3E0F91214487003022408A3
:101EB400900203F0642560030223B49001D1A3E4EB
:101EC40075F00112155FA9F0FA12144812174F2386
:101ED40080251F8246225A581EFB631F17641F82E7
:101EE400661F176921DF6F23277022AE732159758E
:071EF400225A78000023FBD5
:101EFB00900200E0FBA3E475F004121575A9F0FA4B
:091F0B001216A1900204EFF0E0AF
:031F14000223C2E3
:101F1700900200E0FBA3E475F004121575A9F0FA2E
:101F27001216A19002251216C1900225E0FCA3E02B
:101F3700FDA3E0FEA3E0FF7B017A02790490038909
:101F47007401F0A3740AF0122E25900229EFF09085
:101F57000225E0FCA3A3A3EC335014A3E02404F56B
:101F670082E43402F583742DF0900229E004F07BBB
:081F7700017A027904900229AD
:031F7F0002219D9F
:101F8200900200E0FBA3E475F004121575A9F0FAC3
:101F92001216A19002251216C1900225E0FCA3E0C0
:101FA200FDA3E0FEA3E0FF1211F37B017A027904A4
:101FB2009003897401F0A3740AF0122E259002296D
:101FC200EFF0E4FFFEFDFC900225E0F8A3E0F9A3A8
:101FD200E0FAA3E0FB12113C5016900229E024041F
:101FE200F582E43402F583742DF0900229E004F0C6
:101FF2007B017A027904900229123E06900229E0BE
:10200200FF7E009001CEE0FBA3E0FAA3E0F8AC0271
:10201200AD037B017A027904121841900229E0FF94
:10202200FD9001CFE48DF012155F9001FCE0F8A362
:10203200E0F9A3E0FAA3E0FBE4FCFDFEEB2FFFEEE8
:102042003AFEED39FDEC38FC9001FC1216C190020B
:1020520025E0FCA3E0FDA3E0FEA3E0FF1211F3ECF8
:102062001211B5A804A905AA06AB07900225E0FC47
:10207200A3E0FDA3E0FEA3E0FF120EA17B007A2401
:1020820079747849120F969002251216C190022592
:10209200E0FCA3E0FDA3E0FEA3E0FFEC4D4E4F60A9
:1020A20024900225A3A3A3E01211F37B017A027903
:1020B200049003897401F0A3740AF0122E25900291
:1020C20029EFF080209002097430F0900208F0901D
:1020D2000207F0900206F0900205F0900204F090E0
:1020E20002297406F0900229E0FFFDD374069D7464
:1020F20080F898401574042FF582E43402F5837455
:1021020030F0900229E004F080DB900229E0240400
:10211200F582E43402F583742EF0900229E0041271
:102122003DFF900229E0FF7E009001CEE0FBA3E09C
:10213200FAA3E0F8AC02AD037B017A02790412182B
:10214200419001FCE0F8A3E0F9A3E0FAA3E0FB90E0
:072152000229E0FF02229CBC
:10215900900200E0FBA3E475F004121575A9F0FAEA
:102169001216A19002251216C1900225E0FCA3E0E7
:10217900FDA3E0FEA3E0FF7B017A027904E490036A
:1021890089F0A3740AF0122E25900229EFF07B0141
:102199007A027904123E06900229E0FF7E0090013E
:1021A900CEE0FBA3E0FAA3E0F8AC02AD037B017A31
:1021B900027904121841900229E0FFFD9001CFE451
:1021C9008DF012155F9001FCE0F8A3E0F9A3E0FAA5
:0321D900A3E0FB85
:0321DC0002229C40
:1021DF00900200E0FBA3E475F004121575A9F0FA64
:1021EF001216A19002251216C1900225E0FCA3E061
:1021FF00FDA3E0FEA3E0FF7B017A027904E49003E4
:10220F0089F0A37408F0122E25123DFB900229E0ED
:10221F00FF7E009001CEE0FBA3E0FAA3E0F8AC0252
:10222F00AD037B017A027904121841900229E0FF75
:10223F00FD9001CFE48DF012155F9001FCE0F8A343
:08224F00E0F9A3E0FAA3E0FBB3
:0322570002229CC4
:10225A00122DEF123DFB900229E0FF7E009001CE85
:10226A00E0FBA3E0FAA3E0F8AC02AD037B017A023B
:10227A007904121841900229E0FFFD9001CFE48D04
:10228A00F012155F9001FCE0F8A3E0F9A3E0FAA3CD
:10229A00E0FBE4FCFDFEEB2FFFEE3AFEED39FDEC30
:0122AA0038FB
:0322AB000223F417
:1022AE00900200E0FBA3E475F003121575A9F0FA95
:1022BE0012172F900204EBF0A3EAF0A3E9F09002BC
:1022CE0004E0FBA3E0FAA3E0F91214487003022322
:1022DE00FB121448FF9001CEE0FBA3E0FAA3E0F955
:1022EE00EF12148E9001CFE475F00112155F90017C
:1022FE00FCE0FCA3E0FDA3E0FEA3E02401FFE43E2E
:10230E00FEE43DFDE43CFC9001FC1216C19002057A
:09231E00E475F00112155F80A5C1
:10232700122DEF900229EFF07B017A0279047F08E2
:102337007E007D007C00123E0C9001CEE0FBA3E006
:10234700FAA3E0F8AC02AD037B017A0279047E00C0
:102357007F081218419001CFE475F00812155F90BD
:1023670001FCE0FCA3E0FDA3E0FEA3E02408FFE4FA
:072377003EFEE43DFDE43CE5
:10237E0080749001CEE0FBA3E0FAA3E0F97425127D
:10238E00148E9001CFE475F00112155F9001FCE000
:10239E00FCA3E0FDA3E0FEA3E02401FFE43EFEE487
:1023AE003DFDE43C80409001D1E0FBA3E0FAA3E0C8
:1023BE00F9121448FF9001CEE0FBA3E0FAA3E0F976
:1023CE00EF12148E9001CFE475F00112155F90019B
:1023DE00FCE0FCA3E0FDA3E0FEA3E02401FFE43E4D
:1023EE00FEE43DFDE43CFC9001FC1216C19001D2CE
:0723FE00E475F00112155F08
:10240500021EA1900200E4F0A3F0A3F09001FCE00D
:0A241500FCA3E0FDA3E0FEA3E0FF3E
:01241F00229A
:0300230002539BEA
:10539B00C0E0C083C08263A201C083C082C0D0754D
:0653AB00D000C005C007A0
:1053B100309907C2999001CAE4F030982AC298AF97
:1053C10099EFFD647F6005ED64807016900580E0C3
:1053D100FF04F0D3EF941474809480400A75C76081
:0753E1008005900580E4F057
:1053E800D007D005D0D0D082D08363A201D082D09C
:0453F80083D0E0324C
:03004300025F1049
:105F1000C0E0C083C08263A201C083C082E59A3022
:105F2000E108539AFD9001CBE4F0E59A30E0035389
:105F30009AFED082D08363A201D082D083D0E03297
:03008B00025F40D1
:105F4000C0E0C083C08263A201C083C082E5AC30E0
:105F5000E10853ACFD9001CCE4F0E5AC30E0035334
:105F6000ACFED082D08363A201D082D083D0E03255
:03009300025F7099
:105F7000C0E0C083C08263A201C083C082E58430D8
:105F8000E1085384FD9001CDE4F0E58430E0035353
:105F900084FED082D08363A201D082D083D0E0324D
:03003B0002511956
:10511900C0E0C083C08263A201C083C082C0D075D1
:10512900D000C006C00730D822C2D89003AEE0FE36
:10513900A3E0F5EAEEF5FA9003A6E0FEA3E0FF90FE
:1051490003AFE02FF09003AEE03EF030D922C2D990
:105159009003B0E0FEA3E0F5EBEEF5FB9003A8E0C9
:10516900FEA3E0FF9003B1E02FF09003B0E03EF022
:10517900D007D006D0D0D082D08363A201D082D00C
:0451890083D0E032BD
:03000300020042B6
:01004200328B
:0300130002005098
:01005000327D
:0300530002005157
:01005100327C
:03005B000200524E
:01005200327B
:0300830002005622
:010056003277
:106143005345454B46524545205072696E7466204F
:10615300546573740D0A0042415544203D2031318A
:0861630035323030200D0A0036
:05626200420570000080
:10637B001200201255BB12003E7BFF7A617943124B
:0D638B00248B7BFF7A61795A12248B80EC01
:100E9E0002125FE86480F8E933E83360110460F011
:100EAE00ED33EC337009E8FCE9FDEAFEEBFF2204BA
:100EBE0060DED3EB9FEA9EE99DE8C2E78CF0C2F7B5
:100ECE0095F0400CE8CCF8E9CDF9EACEFAEBCFFB81
:100EDE0012122A85D0F05804700320D5B3E804709E
:100EEE00075002B2D502126992D5EC0460F7E4CC39
:100EFE00C0E0C398F8603B94186008400DD0E0FB4A
:100F0E00021241E4FBFAC9FC8028E830E406E4C989
:100F1E00FBE4CAFCE830E305E4C9CACBFCE854079D
:100F2E006010F8C3E913F9EA13FAEB13FBEC13FCA8
:100F3E00D8F130F52FC3E49CFCEF9BFFEE9AFEED4B
:100F4E0099FDD0E0FBEF4E4D4C701222DB030212E6
:100F5E0066EC2CFCEF33FFEE33FEED33FDED30E7A8
:100F6E00EB021241EF2BFFEE3AFEED39FDD0E0FB26
:100F7E0050130BBB0003021269ED13FDEE13FEEFCF
:080F8E0013FFEC13FC021241F9
:100F9600EC4D6011E8497017ED33EC3304600DE455
:100FA600FCFFFEFD22E933E8330470F802125F12FB
:100FB600122A58046009E4CC2481500628500902FC
:100FC6001269284003021266C0E0EB4A7044B980F9
:100FD60006D0E0FB021255EF4E701CBD8008EBFFF9
:100FE600EAFEE9FD80EBE98DF0A4FEE5F002107F54
:100FF600E9CDF9EAFEEBFFEF89F0A4FCE5F0CE8936
:10100600F0A42EFFE435F0CD89F0A42DFEE435F0F2
:101016008067EF4E7005BD80D780C3EF8BF0A4AC20
:10102600F0EE8BF0A42CFCE435F0F8EF8AF0A42C5B
:10103600E5F038FCE433CB8DF0A42CFCE5F03BF86E
:10104600EE8AF0A42CFCE5F038F8E433CF89F0A45E
:101056002CFCE5F038CF3400CE89F0A42FFFE5F064
:101066003EFEE433C98DF0A42EFEE5F039CD8AF0BC
:10107600A42FFFE5F03EFEE43DFD33D0E0FB500734
:101086000BBB000F021269EC2CFCEF33FFEE33FEB4
:06109600ED33FD021241E2
:10109C00021269EC5D046005E85904700302125FEA
:1010AC0012122A580460F6EC4860F2EC7004FDFE53
:1010BC00FF22C860DB2481C85009C3986002500627
:1010CC000212669850CAF582E9294B4A7005AB8228
:1010DC0002125575F0007C1A7880C3EF9BEE9AEDE6
:1010EC0099400DC3EF9BFFEE9AFEED99FDE842F09F
:1010FC00DC23ACF0D0E0FFD0E0FED0E0FDAB8220F2
:10110C00E7101BEB60BAEC2CFCEF33FFEE33FEED7B
:10111C0033FD021241E803F830E705C0F075F0002A
:10112C00EF2FFFEE33FEED33FD40B830E7C280AA5F
:10113C0074F8CC6480CCC86480C8F58204604FC35A
:10114C00EB9FF5F0EA9E42F0E99D42F0E89C45F0F9
:10115C00603C501DE5825FFFE582D313CB5BCBF483
:10116C002B5582FB50280ABA002409B900200880AC
:10117C001DE5825BFBE582D313CF5FCFF4C3132F46
:10118C005582FF50090EBE00050DBD00010CC3EBCE
:10119C009FF5F0EA9E42F0E99D42F0E89C45F06034
:0911AC0007CC4820E701B3EC2256
:1011B50075F020800E75F010800575F0087D007EB5
:1011C500007F003392D530D503121659EC33401009
:1011D500EF33FFEE33FEED33FDEC33FCD5F0ED22BE
:0E11E500E5F0247EA2D513CC92E7CDCEFF22FA
:1011F300EDD2E7CD33EC3392D524814006E4FFFEF4
:10120300FDFC22FCE4CFCECDCC24E0501174FF8052
:10121300EDC3CC13CCCD13CDCE13CECF13CF0470EF
:07122300F030D5DE02165980
:10242000E508242DF582E43402F583E005082290C6
:10243000022A30070390022DE475F00112170F02F3
:1024400014482000E97F2ED2008018EF540F24900A
:10245000D43440D4FF30040BEF24BFB41A0050032F
:102460002461FFE50960021509050CE50C70020501
:102470000B30070E90022AE475F00112170FEF02DD
:10248000148E0265067403D2078003E4C207F508C0
:1024900090022A121726E4F509F50BF50CE5096000
:1024A000077F2012246380F5750AFFC201C200C2B3
:1024B00002C203C205C206C20812242FFF700D30EB
:1024C00007057F00122474AF0CAE0B22B4255FC247
:1024D000D5C20412242FFF24D0B40A00501A75F07C
:1024E0000A780930D50508B6FF0106C6A426F620ED
:1024F000D5047002D20380D924CFB41A00EF50045F
:10250000C2E5D204022766D20180C6D20080C0D2C2
:102510000280BCD2D580BAD20580B47F2012246359
:102520002002077401B5090040F1122420FF122493
:102530006302249DD208D2068095122420FB122427
:1025400020FA122420F94A4B700679647A287BFF1E
:1025500020022EE509602A7E008E82758300121407
:102560006160060EEE650A70F0C2D5EBC0E0EAC00D
:10257000E0E9C0E0EE1227C7D0E0F9D0E0FAD0E001
:10258000FB121448FF60AAEBC0E0EAC0E0E9C0E03B
:10259000122463D0E02401F9D0E03400FAD0E0FB4B
:1025A000E50A0460DCD50AD98087D20280A212270E
:1025B000A960F7E50A700104121274A90A600DE51A
:1025C0000A600914F50A122851EF60F3EA30E702B5
:1025D000F404C3995079EAF4250A0430E701E404CD
:1025E000F50A800D1227A960C1EA050A250A121210
:1025F00074EA900259F030E701E4250A04D50A0490
:10260000200501141227C7E4C0E012285190025996
:10261000E0601320E70714F012244B802204F0D06E
:10262000E014C0E07F0012244BE50A600712244248
:10263000150A800B300503122442D0E002249DD0FD
:10264000E00480C41227A9609EE50A041212749067
:102650000259EAF0E50A2005026001042404122769
:01266000C7B2
:1026610074FF04C0E012285112244BE50A20050230
:102671006003122442D0E0B50AE87F451224559048
:102681000259E07F2B30E7047F2DF404C0E01224CF
:1026910063D0E075F00A84C0F012244CD0E012241B
:1026A1004C02249D791080027908C206C208800874
:1026B100D2D5790A8004790AC2D5E50A047002F5F7
:1026C1000AE4FAFDFEFF122420FC7B08200113120C
:1026D1002420FD7B1030000A122420FE122420FF4A
:1026E1007B20EC3382D592D55013C3E43000069F92
:1026F100FFE49EFEE42001039DFDE49CFCE4CBF895
:10270100C201EC700CCFCECDCCE824F8F870F38088
:1027110017C3EF33FFEE33FEED33FDEC33FCEB3348
:10272100FB994002FB0FD8E9EB300105F8D0E0C47A
:1027310048B201C0E00AEC4D4E4F78207B0070C2D8
:10274100EAB50A0040BCC0E01227C9D0F0D0E020B1
:102751000104C4C0E0C4B201C0F012244CD0F0D5D1
:10276100F0EB02249D12174F253A5326A558250B4D
:102771004C25074226A94F26B14426B149252043BD
:1027810026B75525E44626444525AE4728845025DD
:102791000F2D25132E25362B251723253420286DA3
:1027A1002A24CF480000252EE50AB4FF03750A0646
:1027B100122420FC122420FD122420FE122420FFCA
:1027C1009002520212B1790AA2D5200314300509F0
:1027D100B910020404B9080104A2D520060250016F
:1027E100042002689202B509005034C0E07F203015
:1027F10003197F30A20272067205500F122820C2FF
:1028010002C206C205C2087F30800F300503E9C04D
:10281100E0122463300503D0E0F9D0E0B509CC30F3
:1028210005177F30B9100C1224637F583004077FDD
:10283100788003B908031224633002057F2D022436
:10284100637F202008F87F2B2006F322920280CF9D
:102851007F00B40700500B2452F582E43402F58363
:10286100E0FF22286E756C6C2900D2011224203001
:1028710001F8C201780930D50108F60224CF2D50A4
:102881004349581224202403B405004001E4902850
:102891007F93122454743A122454D203750904020A
:0228A10026A56A
:10122A00E9D2E7C933E833F892D5EDD2E7CD33EC0A
:07123A0033FC5002B2D52283
:10124100EC30E7100FBF000C0EBE00080DBD00040E
:101251000BEB6014A2D5EB13FCED92E7FD2274FFBA
:10126100FCFDFEFF22E480F8A2D574FF13FC7D8013
:03127100E480EF27
:10127400F920E73624F950037907E4F42402FBE566
:1012840082158270021583DBF6E024FB501BE960B3
:1012940014E4F0E582158270021583E004F0B40AC8
:0D12A40008E4F0D9EE7401F00A22C2D52250
:1012B100ED33EC3392D5FA602AB4FF33EDC2E77B0C
:1012C100FF60067A1279D6E4227A1279DF20D504FA
:1012D1007A1279DA224E614E002B494E46002D4991
:1012E1004E4600E47A08F0A3DAFC7B00740722C0C2
:1012F10083C082ECC0E0EDC0E0EEC0E0EFC0E0EA08
:1013010075F010A4CAABF075F04DA42BFBE435F0D9
:10131100FCEA2410FAEB34C5FBEC34D9FCEDC2E74E
:10132100FF75F056A4F42411C5F0F434C58FF0A470
:101331002AE5F03BE43CF020E7141213E6D0E0FF8D
:10134100D0E0FED0E0FDD0E0FC12109F8014F40448
:101351001213E6D0E0FFD0E0FED0E0FDD0E0FC12B9
:101361000F96D082D083E0FAEDD2E7CD33EC33246F
:1013710082FBE4C3CF33CFCE33CECD33CD33DBF3DA
:101381007B0775F00A846004F0A31B0AE5F0F0A363
:101391008FF0740AA4FFACF08EF0740AA42CFEAC9A
:1013A100F050010C8DF0740AA42CFDE435F0F0A38B
:0513B100DBDE740722E1
:1013B6003F8000004120000042C80000447A00003F
:1013C600461C400047C35000497424004B189680C1
:1013D6004CBEBC205A0E1BCA6753C21C749DC5AEB8
:1013E600FB60065407601C2323121414EB54386068
:1013F6000912140012140F120F96ECF8EDF9EEFA1A
:10140600EFCB22EB12140F80F1543803241C9013F7
:10141600B6FE93FC0EEE93FD0EEE930ECE93FF22D8
:03000000024BD1DF
:0C4BD100787FE4F6D8FD758121024C18B5
:10142600C2D530F707B2D563F0FF05F030E70CB24E
:10143600D5F4048463F0FF05F080018430D502F40E
:0214460004227E
:10144800BB010689828A83E0225002E722BBFE02A2
:09145800E32289828A83E49322D5
:10146100BB010CE58229F582E5833AF583E0225040
:1014710006E92582F8E622BBFE06E92582F8E2228A
:0D148100E58229F582E5833AF583E49322A4
:10148E00BB010689828A83F0225002F722BBFE013D
:02149E00F32237
:1014A000F8BB010DE58229F582E5833AF583E8F082
:1014B000225006E92582C8F622BBFE05E92582C82E
:0214C000F22216
:1014C200EF8DF0A4A8F0CF8CF0A428CE8DF0A42E3E
:0214D200FE22F8
:1014D400BC000BBE0029EF8DF084FFADF022E4CCFC
:1014E400F875F008EF2FFFEE33FEEC33FCEE9DECC5
:1014F400984005FCEE9DFE0FD5F0E9E4CEFD22ED0B
:10150400F8F5F0EE8420D21CFEADF075F008EF2F54
:10151400FFED33FD4007985006D5F0F222C398FD45
:051524000FD5F0EA22E2
:10152900C2D5EC30E709B2D5E4C39DFDE49CFCEEDD
:1015390030E715B2D5E4C39FFFE49EFE1214D4C36D
:10154900E49DFDE49CFC80031214D430D507C3E468
:061559009FFFE49EFE224C
:10155F00C5F0F8A3E028F0C5F0F8E5821582700217
:06156F001583E038F022B4
:10157500A3F8E0C5F025F0F0E58215827002158329
:06158500E0C838F0E82286
:10158B0075F008758200EF2FFFEE33FECD33CDCC17
:10159B0033CCC58233C5829BED9AEC99E58298409A
:1015AB000CF582EE9BFEED9AFDEC99FC0FD5F0D677
:1015BB00E4CEFBE4CDFAE4CCF9A88222B800C1B9A1
:1015CB000059BA002DEC8BF084CFCECDFCE5F0CBDF
:1015DB00F97818EF2FFFEE33FEED33FDEC33FCEB18
:1015EB0033FB10D703994004EB99FB0FD8E5E4F9D3
:1015FB00FA227818EF2FFFEE33FEED33FDEC33FCC0
:10160B00C933C910D7059BE99A4007EC9BFCE99AB3
:10161B00F90FD8E0E4C9FAE4CCFB2275F010EF2FF8
:10162B00FFEE33FEED33FDCC33CCC833C810D707F8
:10163B009BEC9AE899400AED9BFDEC9AFCE899F833
:0E164B000FD5F0DAE4CDFBE4CCFAE4C8F922C6
:105B8E00C2D5E830E70FB2D5E4C39BFBE49AFAE442
:105B9E0099F9E498F8EC30E717B2D5125BC41215F8
:105BAE00C7E4C39BFBE49AFAE499F9E498F88003FE
:105BBE001215C730D50DE4C39FFFE49EFEE49DFD94
:045BCE00E49CFC2235
:0E165900C3E49FFFE49EFEE49DFDE49CFC22A2
:10166700EB9FF5F0EA9E42F0E99D42F0EC6480C8FA
:0616770064809845F0229A
:10167D00EB9FF5F0EA9E42F0E99D42F0E89C45F0C3
:01168D00223A
:10168E00E8600FECC313FCED13FDEE13FEEF13FF3A
:03169E00D8F1225E
:1016A100BB010789828A830218735005E9F8021881
:1016B10067BBFE05E9F802187F89828A8302188BCD
:0C16C100ECF0A3EDF0A3EEF0A3EFF0229C
:1016CD00A8828583F0D083D0821216E41216E4121C
:1016DD0016E41216E4E473E493A3C583C5F0C58341
:1016ED00C8C582C8F0A3C583C5F0C583C8C582C867
:0116FD0022CA
:1016FE00F5F0C582A4C582C5F0C583A42583F58304
:01170E0022B8
:10170F00F8E0FBA3A3E0F925F0F0E5821582700263
:07171F001583E0FA38F02207
:09172600EBF0A3EAF0A3E9F022C4
:10172F00BB010789828A830218A45005E9F80218C1
:10173F009BBBFE05E9F80218AD89828A830218B6B1
:10174F00D083D082F8E4937012740193700DA3A329
:10175F0093F8740193F5828883E47374029368603D
:06176F00EFA3A3A380DF3D
:10177500E709F608DFFA8046E709F208DFFA803E56
:1017850088828C83E709F0A3DFFA8032E309F60843
:10179500DFFA8076E309F208DFFA806E88828C83AF
:1017A500E309F0A3DFFA806289828A83E0A3F60861
:1017B500DFFA805689828A83E0A3F208DFFA804A3D
:1017C50080D280FA80C680D4806580F28031801016
:1017D50080A680EA809A80A880DA80E280CA80317B
:1017E50089828A8363A20188828C8363A201E49340
:1017F500A363A201F0A363A201DFF3DEF1800B89ED
:10180500828A83E493A3F608DFF9ECFAA9F0EDFBED
:101815002289828A8363A20188828C8363A201E084
:10182500A363A201F0A363A201DFF4DEF280DB89EA
:10183500828A83E493A3F208DFF980CE88F0EF6013
:10184500010E4E60C588F0ED2402B4040050BBF5CE
:1018550082EB2402B4040050B12323458223901760
:02186500C57349
:104BDD0002637BE493A3F8E493A34003F68001F210
:104BED0008DFF48029E493A3F85407240CC8C333D9
:104BFD00C4540F4420C8834004F456800146F6DFA8
:104C0D00E4800B0102040810204080906247E47E8E
:104C1D00019360BCA3FF543F30E509541FFEE4939C
:104C2D00A360010ECF54C025E060A840B8E493A363
:104C3D00FAE493A3F8E493A3C8C582C8CAC583CA8E
:104C4D00F0A3C8C582C8CAC583CADFE9DEE780BE46
:016267000036
:0C186700E6FC08E6FD08E6FE08E6FF22AD
:0C187300E0FCA3E0FDA3E0FEA3E0FF22E8
:0C187F00E2FC08E2FD08E2FE08E2FF22A5
:10188B00E493FC740193FD740293FE740393FF22A3
:09189B00E6FB08E6FA08E6F92272
:0918A400E0FBA3E0FAA3E0F92245
:0918AD00E2FB08E2FA08E2F9226C
:0C18B600E493FB740193FA740293F9228E
:00000001FF
