:10507700E4F594F593F592F591F596F595F5B2F576
:10508700B1F5B4F5B3F5CAF5C9F5CCF5CBF5E2F54D
:10509700E1F5D8F5D9F5DEF58EF598F59AF5ACF585
:1050A70084F5A2F5BAF5AFF589F5E9F5F912613B93
:1050B7009004771215530001C20090047B7401F02D
:0750C700FBE4FDFF0227D20C
:10606900900554EFF0FDE4FF1253B0900554E0FFA2
:016079002204
:03002000C2AF224A
:03003E00D2AF221C
:055DCE00420544000045
:1056BB0053A2F3EF14601214601714601C240370D0
:1056CB001E5392C35391C380165396C35395C380F5
:1056DB000E53E20F53E10F800653B2C353B1C39085
:1056EB0004C0E042CE9004BFE0700643CE8043CEB0
:0556FB001043CE402227
:104F010053A2F3EF14600A14600C14600E240380A2
:104F11000D43A204800843A208800343A20CEDFFC5
:104F2100900544E07003A3E06F602653CEF7ED24B3
:104F3100FE600C14600E2402700D43CE0480084301
:104F4100CE08800343CE0CAF05900544E4F0A3EFF7
:0F4F5100F0AF038FCFE5CD30E7FB75CDC0AFCF0D
:014F6000222E
:10603100EF1FAA0670011E4A60087D091DED60F080
:0260410080FAE3
:01604300223A
:1059B800E4900546F0A3F0FC90FE82E020E61E7F0E
:1059C800017E00126031900546E475F0011213C3A0
:1059D800FEC3E5F0941EEE940040DD7C0190FE824B
:0659E800E054BFF0AF0423
:0159EE002296
:0961200090FE817401F00259B8EF
:085F6000AF01EF25E04401FF51
:0E5F680090FE86EFF090FE817402F00259B8B0
:0961290090FE817403F00259B8E4
:0F60DA0090FE817404F01259B890FE87E0FF2207
:0F5E6D00900486E0FBA3E0FAA3E0F9EF1212DC49
:0E5E7C0090FE82E4F090FE817405F00259B8A9
:0F60E90090FE827401F090FE817405F00259B8A8
:0961320090FE817406F00259B8D8
:1055E70053BACF43BA80EF14600A14600C14600EEC
:1055F7002403800D43BA10800843BA20800343BABE
:105607003090FE80E04440F0E04480F0C083C082E8
:10561700E0FB90047FA3A3A3E0FFEB4FD082D083EE
:07562700F090FE82E4F02286
:1049BB00A90553BACFEF14600A14600C14600E24CF
:1049CB0003800D43BA10800843BA20800343BA30EA
:1049DB00126120EF60037F0122AF01EF25E0FF1290
:1049EB005F68EF60037F0122126129EF60037F0193
:1049FB0022AF03125F68EF60037F0122126129EF80
:104A0B0060037F012290052DE0FF125F68EF6003CA
:104A1B007F0122126129EF60037F0122126132EFC5
:084A2B0060037F01227F0022DD
:10484800A90553BACFEF14600A14600C14600E2443
:1048580003800D43BA10800843BA20800343BA305E
:10486800126120EF60037F0122E925E0FF125F68F3
:10487800EF60037F0122126129EF60037F0122AFFD
:1048880003125F68EF60037F0122126129EF600362
:104898007F0122125F60EF60037F0122126129EF1E
:1048A80060037F01221260DA9004C4125E70EF6028
:1048B800037F0122126132EF60037F01227F002211
:10445F00A90553BACFEF14600A14600C14600E2430
:10446F0003800D43BA10800843BA20800343BA304B
:10447F00126120EF60037F0122E925E0FF125F68E0
:10448F00EF60037F0122126129EF60037F0122AFEA
:10449F0003125F68EF60037F0122126129EF60034F
:1044AF007F0122125F60EF60037F0122126129EF0B
:1044BF0060037F0122900489E014F060181260DA23
:1044CF00125E6DEF60037F0122900487E475F001A7
:1044DF001213AD80E01260DA125E6DEF60037F01A0
:0D44EF0022126132EF60037F01227F002264
:0B27D200900474EFF0A3EDF0A3EBF017
:1027DD00A3E0F8A3E0F9A3E0FAA3E0FB7FC07EFC41
:1027ED007D9B7C0112144DE47B04FAF9F812144D13
:1027FD00C3E49FFFE49EAD07FC900474E0147003E6
:10280D000228A51470030228E8147003022941243C
:10281D0003600302299E90047BE0FB7A0064017043
:10282D00144398508D8BECF58D438E40D28EE490F1
:10283D0001CAF08011EB64024A700B4398508DD79A
:10284D00ECF5D6438E1553A23F900475E0F9FF7E4B
:10285D00007008A3E0640170028035EF64024E70D1
:10286D000D900476E06403700543A2408022E96474
:10287D0004700D900476E06405700543A28080100D
:10288D00E96406700B900476E06407700343A2C000
:10289D00E49001CAF0D2AC2290047BE06402700B8C
:1028AD00439A108DD7ECF5D6438E1453BAFE90048F
:1028BD0075E0FF7E0064087008A3E0640970028073
:1028CD0011EF640A4E700B900476E0640B700343B5
:1028DD00BA0143AF01E49001CBF02290047BE0FB01
:1028ED007A006402700D439A108DD7ECF5D6438EA5
:1028FD00148011EB64034A700B43AC508DD5ECF58D
:10290D00D443D10A53BAFD900475E0FF7E00640CE8
:10291D007008A3E0640D70028011EF640E4E700B11
:10292D00900476E0640F700343BA0243AF08E4905D
:10293D0001CCF02290047BE0FB7A006402700D4321
:10294D0084108DD7ECF5D6438E148011EB64044AB8
:10295D00700B4384508DD3ECF5D243D1A053BAFB09
:10296D00900475E0FF7E0064107008A3E0641170A0
:10297D00028016EF64124E7010900476E0641370AE
:10298D0008F5CA75C90443BA0443AF10E49001CDEC
:01299D00F049
:01299E002216
:0F53A100A3E475F0011213C3A9F0FA121296FDDE
:1053B000EF14601514601D1460252403702D9001F6
:1053C000CAE070FA04F08D99229001CBE070FA04E3
:1053D000F08D9B229001CCE070FA04F08DAD22900C
:0C53E00001CDE070FA04F0AF058F8522CB
:105C52009004C8EBF0A3EAF0A3E9F0AE079004CBFE
:105C620074FFF5F01213C345F0600CAF069004C840
:085C7200E0FB1253A180E622C1
:105C7A00900532EBF0A3EAF0A3E9F0AE0790053203
:105C8A00E0FBA3E0FAA3E0F9121296600AAF0690CD
:085C9A0005321253A180E6223D
:1053EC0043BC80EF131313541FFB7A006401701736
:1053FC00EF5407FEF87401088002C333D8FCFEF4A6
:10540C005294EE42938019EB4A7015EF5407FEF854
:10541C007401088002C333D8FCFEF45292EE429120
:09542C00ED540F42DE43DE2022A4
:025BA900A9054C
:105BAB0053BCF0EF42BC43BC40E5BC30E5FB53BCFF
:105BBB00DFAFBDEFFEADBEEDFFAD01A80508800563
:085BCB00CEC313CE13D8F9FF7D
:015BD30022AF
:10574400EF14601814602014602614602C24047074
:1057540030E4F58AF58C438904D28C22E4F58BF588
:105764008D438940D28E22E4F5D7F5D6438E182294
:10577400E4F5D5F5D443D10C22E4F5D3F5D243D1E5
:02578400C02241
:10567500EF14601714601E14602514602C24047048
:1056850030AF8CEFFCAF8AEFFD8026AF8DEFFCAF1E
:105695008BEFFD801CAFD6EFFCAFD7EFFD8012AFCF
:1056A500D4EFFCAFD5EFFD8008AFD2EFFCAFD3EF61
:0556B500FDAF05AE048D
:0156BA0022CD
:10543500EF14601714601E14602714603024047084
:1054450037C28CE4F58CF58AD28C22C28EE4F58DB8
:10545500F58BD28E22538EEFE4F5D6F5D7438E1019
:105465002253D1F7E4F5D4F5D543D1082253D17FA2
:09547500E4F5D2F5D343D1802205
:05474000900555EFF0AB
:104745007E037FE81213227C007D0C121310AB0749
:10475500AA06E4F9F87FC07EFC7D9B0C125700C3C6
:10476500E49FFFE49EFE900555E0F9FD7C00700A8C
:104775008F8AEEF58CD28CD2A922ED64014C700A99
:104785008F8BEEF58DD28ED2AB22E9FD7C006402D3
:10479500700C8FD7EEF5D6438E1043AF0422ED642F
:1047A500034C700C8FD5EEF5D443D10843AF2022CE
:1047B500E96404700B8FD3EEF5D243D18043AF404B
:0147C50022D1
:1058CB00EF5403FD7C0070089005567420F0801A8D
:1058DB00ED64014C70089005567410F0800CED646B
:1058EB00024C70069005567460F0900556E0FEEF82
:0D58FB00C4540FFFEE4FFFF07D0102228626
:053736009003EFEFF02D
:10373B00E49003F8F01258CB43BA809003EFE0FF0C
:10374B0054F02404FDE434FF8D82F583E054E7F05C
:10375B00E0FEEF540333333354F8FFEE4FF0900396
:10376B00F0E0F8A3E0F9A3E0FAA3E0FB7FC07EFC56
:10377B007D9B7C0112144D780F1215149003F8EFFA
:10378B00F09003F0E0F8A3E0F9A3E0FAA3E0FB7FED
:10379B00C07EFC7D9B7C0112144DC006C0079003BC
:1037AB00F8E02401FFE433AB07FA3395E0F9F8D0E6
:1037BB0007D00612144D9003F6EEF0A3EFF0900332
:1037CB00F4E0FCA3E0FDE41211BA7B007A40791C13
:1037DB00784612109FC004C005C006C0079003F6C0
:1037EB00E0FCA3E0FDE41211BAD003D002D001D06B
:1037FB0000120F961211F39003F8E090FFF2F09085
:10380B0003F6E0FDA3E090FFF0CDF0A3EDF0900305
:10381B00EFE054F0FD7C002400FBEC34FF8B82F5D1
:10382B0083EEF0A3EFF0ED2404FFEC34FF8F82F571
:0B383B0083E04480F053BA7F75FE80EC
:01384600225F
:0550CE00900557EFF012
:1050D30043BA80AE04AF05E41211BA7B007A40797B
:1050E3001C784612109FC004C005C006C00790FF7D
:1050F300F0E0FCA3E0FDE41211BAD003D002D0012A
:10510300D000120F961211F3900557E054F02400CB
:10511300FDE434FF8D82F583EEF0A3EFF053BA7F05
:015123002269
:0648C80090051B121547CC
:1048CE00E490051FF043BA8090051BE0F8A3E0F9D1
:1048DE00A3E0FAA3E0FB7FC07EFC7D9B7C0112145B
:1048EE004D780F12151490051FEFF090051BE0F890
:1048FE00A3E0F9A3E0FAA3E0FB7FC07EFC7D9B7CE6
:10490E000112144DC006C00790051FE02401FFE4FC
:10491E0033AB07FA3395E0F9F8D007D00612144DF1
:10492E0090051FE090FFF2F090FFF0EEF0A3EFF095
:03493E0053BA7FEA
:014941002253
:105DD30048037D0000000000000000480375000038
:065DE300000000000000BA
:104F6100E4F5D875D906EF64017054EDB40A005028
:104F71004E904F79F8282873024F97024F9B024FAA
:104F81009F024FA3024FA7024FAB024FAF024FB395
:104F9100024FB7024FBDE4F5DA2275DA422275DA23
:104FA100632275DA532275DA732275DA202275DAF3
:104FB100102275DA302275DA49D2DE2275DA4C22F6
:10605700EF64017008AFFAEFFCAFEAEFFDAF05AEF2
:016067000434
:016068002215
:0A001600EF64017004F5F9F5E9222A
:0532AA00900535EFF076
:1032AF00C2DEAFF9EFFFABE9EBA3CFF0A3EFF090E6
:1032BF000535E0705A7E037FE81213227C007D0CE7
:1032CF00121310AB07AA06E4F9F87FC07EFC7D9BB2
:1032DF000C125700AC06AD07900375ECF0A3EDF0A0
:1032EF0075DA4985E9EA85F9FA900375E0FEA3E0FE
:1032FF00FF90037EE02FFF90037DE03EFE900537A9
:10330F00E02FFF900536E03E90037DF0A3EFF090A5
:10331F000535E06401705A7E037FE81213227C00AA
:10332F007D0C121310AB07AA06E4F9F87FC07EFCE0
:10333F007D9B0C125700AC06AD07900377ECF0A302
:10334F00EDF075DB4985E9EB85F9FB900377E0FE3E
:10335F00A3E0FF900380E02FFF90037FE03EFE90FD
:10336F000537E02FFF900536E03E90037FF0A3EF87
:10337F00F0900535E06402704E7E037FE812132251
:10338F007C007D0C121310AB07AA06E4F9F87FC07E
:10339F007EFC7D9B0C125700900379EEF0A3EFF0AB
:1033AF0075DC4985E9EC85F9FC900382E02FFF90ED
:1033BF000381E03EFE900537E02FFF900536E03E9B
:0933CF00900381F0A3EFF0D2DEBF
:0133D80022D2
:105A5B00EF7007ED24FF9288D2A8EF64017007ED79
:105A6B0024FF928AD2AAEFFD7C0064027003758F2B
:105A7B0010ED64034C7003758F20ED64044C7003C0
:045A8B00758F4022B1
:055DE90042054808CA54
:09613B0075DD48E4F5D9D2DE223D
:105E8A00AFF9EFFEADE9EDFF900549E02FFF900570
:0C5E9A0048E03E8FEDF5FD30DBFDC2DB83
:015EA60022D9
:105FCD00AB07AA06EB1BAE0270011A4E6005125EFE
:045FDD008A80F122A3
:104FC100EDFB7A0064017025EFC4540F2410FDE459
:104FD10034FE8D82F583C083C082E0FEEF540FFF63
:104FE100F87401088002C333D8FC4E8028EB4A7064
:104FF10029EFC4540F2410FDE434FE8D82F583C0E3
:1050010083C082E0FEEF540FFFF87401088002C3F1
:0B50110033D8FCF45ED082D083F02284
:10228600EF54F0F9FB7A007062ED14601F146030B1
:1022960014604424037054EF540FFEF87401088050
:1022A60002C333D8FCF452935294803FEF540FFE8E
:1022B600F87401088002C333D8FCFEF452938028D8
:1022C600EF540FFEF87401088002C333D8FCFE42B7
:1022D60093EEF452948014EF540FFEF874010880C4
:1022E60002C333D8FCFE4293EE4294EB64104A706C
:1022F60062ED14601F14603014604424037054EFC0
:10230600540FFEF87401088002C333D8FCF45291CE
:102316005292803FEF540FFEF87401088002C333D7
:10232600D8FCFEF452918028EF540FFEF874010891
:102336008002C333D8FCFE4291EEF452928014EF31
:10234600540FFEF87401088002C333D8FCFE429194
:10235600EE4292E964207062ED14601F146030143E
:10236600604424037054EF540FFEF8740108800291
:10237600C333D8FCF452955296803FEF540FFEF8C3
:102386007401088002C333D8FCFEF452958028EF0E
:10239600540FFEF87401088002C333D8FCFE429540
:1023A600EEF452968014EF540FFEF8740108800282
:1023B600C333D8FCFE4295EE4296E9FB7A006430C0
:1023C6007062ED14601F146030146044240370546E
:1023D600EF540FFEF87401088002C333D8FCF452A0
:1023E600B152B2803FEF540FFEF87401088002C369
:1023F60033D8FCFEF452B18028EF540FFEF8740176
:10240600088002C333D8FCFE42B1EEF452B2801407
:10241600EF540FFEF87401088002C333D8FCFE4265
:10242600B1EE42B2EB64404A7062ED14601F146074
:102436003014604424037054EF540FFEF8740108FE
:102446008002C333D8FCF452B352B4803FEF540F2A
:10245600FEF87401088002C333D8FCFEF452B38040
:1024660028EF540FFEF87401088002C333D8FCFE2F
:1024760042B3EEF452B48014EF540FFEF874010820
:102486008002C333D8FCFE42B3EE42B4E964507016
:1024960062ED14601F14603014604424037054EF1E
:1024A600540FFEF87401088002C333D8FCF452C9F5
:1024B60052CA803FEF540FFEF87401088002C333FE
:1024C600D8FCFEF452C98028EF540FFEF8740108B8
:1024D6008002C333D8FCFE42C9EEF452CA8014EF20
:1024E600540FFEF87401088002C333D8FCFE42C9BB
:1024F600EE42CAE9FB7A0064607062ED14601F1454
:10250600603014604424037054EF540FFEF87401D5
:10251600088002C333D8FCF452CB52CC803FEF5430
:102526000FFEF87401088002C333D8FCFEF452CBC8
:102536008028EF540FFEF87401088002C333D8FCDC
:10254600FE42CBEEF452CC8014EF540FFEF8740129
:10255600088002C333D8FCFE42CBEE42CCEB64705B
:102566004A7060ED14601E14602F146042240370DC
:1025760052EF540FFEF87401088002C333D8FCF4FE
:1025860052E152E222EF540FFEF87401088002C3B2
:1025960033D8FCFEF452E18027EF540FFEF87401A5
:1025A600088002C333D8FCFE42E1EEF452E222EF89
:1025B600540FFEF87401088002C333D8FCFE42E1D2
:0425C600EE42E222DD
:0661440025640025660041
:10607A00C2A2C2A1AB07E4FD7F01124F01D2A22244
:10608A00C2A2D2A1AB07E4FD7F01124F01D2A22224
:025C2900AC06C7
:105C2B00EC90054AF0A3EFF0C2A2D2A190054AE096
:105C3B00FBE4FD7F01124F0190054BE0FBE4FD7F80
:065C4B0001124F01D2A27C
:015C51002230
:104E3F00900444EEF0A3EFF0A3ECF0A3EDF0A3EA9F
:104E4F00F0A3EBF07F2A12607AE4FF12608A9004DD
:104E5F0044A3E02402FF12608AE4FF12608A9004E8
:104E6F0048A3E02402FF12608A7F2B12607AE4FFCE
:104E7F0012608A900446A3E004FF12608AE4FF12D6
:104E8F00608A90044AA3E004FF12608A7F2C0260BC
:014E9F007A98
:08501C0090052EEEF0A3EFF069
:1050240090044AE4F0A3749FF07B7F7A00E4FDFCD3
:10503400FFFE124E3FE4900530F0900530E0C3943B
:10504400A074809480502BE4A3F0900531E0C394C5
:105054008074809480501390052EE0FEA3E0FF122C
:105064005C29900531E004F080E0900530E004F024
:0250740080C8F2
:015076002217
:1025CA009004BE7412F0E4A3F0A3F07B117D107F97
:1025DA00011256BBC2A07F0A7E00125FCDD2A07F35
:1025EA00787E00125FCD7F1112607A7F787E0012AA
:1025FA005FCD7FB112607A7F0112608A7F2C1260F0
:10260A008A7F2D12608A7FB212607A7F0112608AF5
:10261A007F2C12608A7F2D12608A7FB312607A7FC4
:10262A000112608A7F2C12608A7F2D12608A7F01D4
:10263A0012608A7F2C12608A7F2D12608A7FB41200
:10264A00607A7F0712608A7FC012607A7FA2126066
:10265A008A7F0212608A7F8412608A7FC112607A3E
:10266A007FC512608A7FC212607A7F0A12608AE48A
:10267A00FF12608A7FC312607A7F8A12608A7F2A79
:10268A0012608A7FC412607A7F8A12608A7FEE1291
:10269A00608A7FC512607A7F0E12608A7F36126066
:1026AA007AE4701E14600E14600F14601024037014
:1026BA00117FC0800AE4FF80067FA080027F60123B
:1026CA00608A7FE012607A7F0F12608A7F1A126036
:1026DA008A7F0F12608A7F1812608A7F2F12608A9F
:1026EA007F2812608A7F2012608A7F2212608A7F86
:1026FA001F12608A7F1B12608A7F2312608A7F37CB
:10270A0012608AE4FF12608A7F0712608A7F0212CF
:10271A00608A7F1012608A7FE112607A7F0F1260EE
:10272A008A7F1B12608A7F0F12608A7F1712608A63
:10273A007F3312608A7F2C12608A7F2912608A7F17
:10274A002E12608A7F3012608A7F3012608A7F3947
:10275A0012608A7F3F12608AE4FF12608A7F071242
:10276A00608A7F0312608A7F1012608A7F2A126051
:10277A007AE4FF12608A7F0212608AE4FF12608A9A
:10278A007F8212608A7F2B12607AE4FF12608A7F4E
:10279A000312608AE4FF12608A7F8312608A7FF0E4
:1027AA0012607A7F0112608A7FF612607AE4FF1261
:1027BA00608A7F3A12607A7F0512608A7F291260E6
:0827CA007A74FFFFFE02501CAF
:105786009004CDEEF0A3EFF09004D1EAF0A3EBF095
:105796009004CFECF0A3EDF09004CDE0FAA3E0FB8B
:1057A600FFAE02C007A3E0FFA3E090044ACFF0A338
:1057B600EFF0D007124E3F9004D1E0FEA3E0FF02C7
:0257C6005C295C
:06403500F583E02430FBDE
:10403B0090044CEEF0A3EFF0A3ECF0A3EDF0A3EBA8
:01404B00F084
:10404C00E4A3F0900451E0F9C39410748094804080
:10405C00030240FFE9FF90044FE02FFD90044EE077
:10406C003400FC90044DE02407FB90044CE0340039
:10407C00FA7E0090044EE0F8A3E02FFFEE38900497
:10408C004AF0A3EFF090044CE0FEA3E0FF124E3F89
:10409C00900451E0FF900450E075F010A42496F5C4
:1040AC0082E5F034FEF583E5822FF582E43583F565
:1040BC0083E493900453F0E4900452F0900452E0A3
:1040CC00C39408748094805021A3E030E0067F00F4
:1040DC007EF8800474FFFFFE125C29900453E0C349
:1040EC0013F0900452E004F080D2900451E004F0FC
:0340FC0002404F30
:0140FF00229E
:104B2100900417EEF0A3EFF0A3ECF0A3EDF0A3EBEC
:074B3100F0A3EAF0A3E9F094
:104B3800E4A3F0A3F090041BE0FBA3E0FAA3E0F9E0
:104B4800A3E0FEA3E0FFF5828E831212AFFB603E66
:104B5800EF7803C333CE33CED8F9FF900418E02F93
:104B6800FF900417E03EFE90041AE0C4F8540FC802
:104B780068FD900419E0C454F048FC12403B9004CE
:0E4B88001FE004F070AF90041EE004F080A760
:014B960022FC
:103CE600900420EEF0A3EFF0A3ECF0A3EDF0A3EB2D
:013CF600F0DD
:103CF7003395E0C364809480900423E0C4F8540FA4
:103D0700C868FD900422E0C454F048FC900420E009
:103D1700FEA3E0FF40077B2012403B800C7B2D1267
:103D2700403B900424E0F404F0900424E0FF75F095
:103D370064121274900425F0EF75F00A121274FFE2
:103D470075F00A121274AFF0900426EFF090042475
:103D5700E0FF75F00A121274AFF0900427EFF0E459
:103D6700A3F0900428E0FBFF7E00C39403748094C3
:103D7700805045EF2401FFEE33FEEF7803C333CEC7
:103D870033CED8F9FF900421E02FFF900420E03EC6
:103D9700FE900423E0C4F8540FC868FD900422E0A5
:103DA700C454F048FC74252BF582E43404124035E2
:083DB700900428E004F080AA4A
:013DBF0022E1
:0E4A3300900454EEF0A3EFF0A3ECF0A3EDF02E
:104A4100EB75F06484A3F0EB75F00A8475F00A84C9
:104A5100A3E5F0F0EB75F00A84A3E5F0F0E4A3F030
:104A610090045BE0C3940374809480503BE0FB7539
:104A7100F008A4FF900455E02FFF900454E035F0B6
:104A8100FE900457E0C4F8540FC868FD900456E046
:104A9100C454F048FC74582BF582E43404124035B8
:084AA10090045BE004F080B812
:014AA90022EA
:1033D900900392EEF0A3EFF0A3ECF0A3EDF0A3EAD3
:0433E900F0A3EBF072
:1033ED00C3EA64809480900395E0C4F8540FC868D4
:1033FD00FD900394E0C454F048FC900392E0FEA3CA
:10340D00E0FF501C7B2D12403B900396E0FEA3E0A5
:10341D00FFC3E49FFFE49E900396F0A3EFF08005B9
:10342D007B2012403B900396E0FAA3E0FB7C277DC6
:10343D0010FFAE02121377A3EFF07C037DE8AF030C
:10344D00AE021213777C007D0A121377A3EDF09074
:10345D000396A3E07C007D64FFAE021213777C001F
:10346D007D0A12137790039AEDF07C007D0AAF036D
:10347D00AE021213777C007D0A121377A3EDF09044
:10348D000396E0FEA3E0FF7C007D0A121377900304
:10349D009CEDF0E4A3F090039DE0FBFF7E00C39450
:1034AD0005748094805045EF2401FFEE33FEEF78D4
:1034BD0003C333CE33CED8F9FF900393E02FFF90A3
:1034CD000392E03EFE900395E0C4F8540FC868FDEA
:1034DD00900394E0C454F048FC74982BF582E434C6
:0C34ED000312403590039DE004F080AA1B
:0134F90022B0
:0E4100009003F9EEF0A3EFF0A3ECF0A3EDF0C6
:10410E007C277D10AF03AE02121322A3EFF07C03C7
:10411E007DE8AF03AE021213227C007D0A12132239
:10412E00A3EDF07C007D64AF03AE021213227C007F
:10413E007D0A121322A3EDF07C007D0AAF03AE02BE
:10414E001213227C007D0A121322A3EDF0AE02AFF1
:10415E00037C007D0A121322A3EDF0E4A3F0900479
:10416E0002E0C3940574809480503BE0FB75F00828
:10417E00A4FF9003FAE02FFF9003F9E035F0FE90D4
:10418E0003FCE0C4F8540FC868FD9003FBE0C45470
:10419E00F048FC74FD2BF582E43403124035900494
:0641AE0002E004F080B8FD
:0141B40022E8
:0E3940009002B7EEF0A3EFF0A3ECF0A3EDF0D1
:10394E009002BFE0FFC3740A9F7480F8985003740E
:10395E000AF09002BFE004F09002BBE0FCA3E0FD91
:10396E00A3E0FEA3E0FFE4FBFAF9F8D31214ED4056
:10397E00319001D174FFF0A37461F0A37444F09000
:10398E0002BBE0FCA3E0FDA3E0FEA3E0FF9001D4A8
:10399E001215470B7A0279C0121CE49002E2EFF086
:1039AE0080389002C07420F09001D174FFF0A3749F
:1039BE0061F0A37444F09002BBE0FCA3E0FDA3E031
:1039CE00FEA3E0FF9001D41215477B017A0279C164
:1039DE00121CE49002E2EFF0801E9002BFE0FF9016
:1039EE0002E2E0FEC39F501574C02EF582E434024D
:1039FE00F5837420F09002E2E004F080DD74C02FB5
:103A0E00F582E43402F583E4F09002B7E0FEA3E021
:103A1E00FFA3E0FCA3E0FD7B017A0279C0024B21FB
:0E2CE80090022AEEF0A3EFF0A3ECF0A3EDF0C3
:102CF600900233E0FFC374069F7480F89850037403
:102D060006F0900232E0FFC3740A9F7480F8985070
:102D160003740AF090022EE0FCA3E0FDA3E0FEA3FC
:102D2600E0FFE4FBFAF9F812113C9001D160314062
:102D36002F74FFF0A37461F0A37447F090022EE0A5
:102D4600FCA3E0FDA3E0FEA3E0FF9001D41215472B
:102D56007B017A027935121CE4900234EFF0803060
:102D660074FFF0A37461F0A37447F090022EE0FCA8
:102D7600A3E0FDA3E0FEA3E0FF9001D41215477B7C
:102D8600017A027936121CE4900234EFF0E004F086
:102D9600900234E024F9FD900232E0FEC3ED9E1469
:102DA600900257F0900233E0AE052E04900258F0E0
:102DB600900257E0FF3395E0FED3E49FEE6480F87F
:102DC6007480984022A3E0FF3395E0FE74352FF51A
:102DD6008274023EF5837420F0900258E004F0906D
:102DE6000257E004F080C990022EE0FCA3E0FDA3A8
:102DF600E0FEA3E0FFE4FBFAF9F812113C9002575B
:102E060060174015E0FF3395E0FE74352FF58274A8
:102E1600023EF583742DF08013E0FF3395E0FE74D7
:102E2600352FF58274023EF5837420F0900258E047
:102E3600FF3395E0FE74352FF58274023EF583E488
:102E4600F090022AE0FEA3E0FFA3E0FCA3E0FD7BF6
:082E5600017A027935024B21DB
:0B361B009003CEEBF0A3EAF0A3E9F06F
:1036260074FFFFFE12501CE49003D5F0A3F0E49063
:1036360003D3F0A3F09003D3E0FAA3E0FB7C007D74
:1036460028FFAE02121310C006C007A3E0FEA3E0D7
:10365600FF121310C006C007AF03AE02121310EF1D
:103666002427FBE43EFA9003D5E0FEA3E0FF121305
:1036760010EF2427FFE43E90044AF0A3EFF0D005B4
:10368600D004D007D006124E3FE49003D1F0A3F049
:103696009003D2E025E0FF9003D1E033FE9003CE05
:1036A600E0FBA3E0FAA3E0F98F828E831212AF90BB
:1036B60003D8F0E92FF9EA3EFA9000011212AF9012
:1036C60003D7F0FEA3E0FDEDFF125C299003D2E0E4
:1036D60004F070069003D1E004F0C39003D2E094A6
:1036E600409003D1E06480948640A59003D4E00422
:1036F600F070069003D3E004F0C39003D4E0940383
:103706009003D3E064809480500302363B9003D646
:10371600E004F070069003D5E004F0C39003D6E011
:0F37260094049003D5E0648094805003023634FD
:013735002271
:10009600000000000000000000000000000000005A
:1000A6000000000808080808080800000808000002
:1000B6000048242412000000000000000000000098
:1000C6000000004848487E2424247E24242400007E
:1000D6000000103C5252121C30505052523C10102C
:1000E600000000222515150D2A58545452220000EE
:1000F6000000000C1212120A76252919916E0000D2
:1001060000060404020000000000000000000000D9
:1001160000402010100808080808081010204000A9
:10012600000204080810101010101008080402003D
:100136000000000008086B1C1C6B0808000000008B
:100146000000000000101010FE101010000000004B
:100156000000000000000000000000000604040289
:1001660000000000000000007E000000000000000B
:10017600000000000000000000000000060600006D
:100186000000402020201010080808040402020085
:100196000000001824424242424242422418000013
:1001A600000000101C10101010101010107C000021
:1001B6000000003C4242424020100804427E0000FB
:1001C6000000003C4242402018204042423C0000D1
:1001D60000000020303028242422FE2020F80000D1
:1001E6000000007E0202021E22404042221C000045
:1001F600000000182402023A4642424244380000F7
:100206000000007E422020101008080808080000A0
:100216000000003C4242422418244242423C000074
:100226000000001C22424242625C4040241800004A
:100236000000000000001818000000001818000058
:100246000000000000000008000000000008080888
:10025600000000402010080402040810204000009E
:100266000000000000007E00007E0000000000008C
:1002760000000002040810204020100804020000BC
:100286000000003C424246201010100018180000E2
:100296000000001C225A55555555553A423C00005F
:1002A6000000000808181414243C224242E700000B
:1002B6000000001F2222221E22424242221F00006C
:1002C6000000007C4242010101010142221C0000A3
:1002D6000000001F2242424242424242221F0000C8
:1002E6000000003F4212121E12120242423F00005C
:1002F6000000003F4212121E121202020207000004
:100306000000003C2222010101712122221C000072
:10031600000000E7424242427E42424242E700007B
:100326000000003E0808080808080808083E000003
:100336000000007C10101010101010101010110F7B
:100346000000007722120A0E0A12122222770000FB
:10035600000000070202020202020202427F0000BF
:100366000000007736363636362A2A2A2A6B0000EF
:10037600000000E346464A4A525252626247000073
:100386000000001C2241414141414141221C000024
:100396000000003F424242423E02020202070000C3
:1003A6000000001C224141414141414D321C600088
:1003B6000000003F4242423E1212222242C7000083
:1003C6000000007C4242020418204042423E0000E7
:1003D6000000007F4908080808080808081C0000F3
:1003E600000000E74242424242424242423C000092
:1003F600000000E7424222242414141808080000D2
:100406000000006B2A2A2A2A2A3614141414000023
:10041600000000E7422424181818242442E70000AC
:10042600000000772222141408080808081C00009F
:100436000000007E2120101008040442423F000004
:100446000078080808080808080808080808780056
:100456000000020404040808081010202020404070
:10046600001E1010101010101010101010101E008A
:10047600001824000000000000000000000000003A
:1004860000000000000000007E00000000000000E8
:100496000006080000000000000000000000000048
:1004A600000000000000001C22302C22326C0000EC
:1004B600000000000302021A26424242261A0000E9
:1004C6000000000000000038440202024438000028
:1004D600000000006040407C4242424262DC000074
:1004E600000000000000003C42427E02423C000048
:1004F600000000003048083E08080808083E0000D2
:10050600000000000000007C22221C023C42423C0B
:10051600000000000302023A4642424242E700005F
:100526000000000C0C00000E08080808083E000039
:100536000000003030000038202020202020221E1D
:100546000000000003020272120A0E122277000057
:10055600000000080E08080808080808083E000001
:10056600000000000000007F9292929292B7000075
:10057600000000000000003B4642424242E7000005
:10058600000000000000003C42424242423C0000A3
:10059600000000000000001B26424242261A020705
:1005A600000000000000005864424242645840E0E7
:1005B60000000000000000774C040404041F000043
:1005C600000000000000007C42023C40423E000069
:1005D600000000000008083E08080808483000002F
:1005E60000000000000000634242424262DC00005C
:1005F6000000000000000077222214140808000002
:1006060000000000000000DB91525A2A242400005A
:10061600000000000000006E241818182476000060
:1006260000000000000000E742242418180808060D
:10063600000000000000007E22100808447E000032
:1006460000C0202020202020102020202020C000B4
:100656001010101010101010101010101010101094
:10066600000304040404040408040404040403004A
:10067600045A2000000000000000000000000000F6
:100686000000000000000000002F0000000007002E
:10069600070000147F147F1400242A7F2A120062A8
:1006A6006408132300364955225000000503000054
:1006B60000001C224100000041221C000014083EDC
:1006C60008140008083E0808000000A060000008A2
:1006D60008080808000060600000002010080402F6
:1006E600003E5149453E0000427F400000426151B4
:1006F6004946002141454B31001814127F1000274E
:1007060045454539003C4A49493000017109050310
:1007160000364949493600064949291E0000363641
:1007260000000000563600000008142241000014A4
:100736001414141400004122140800020151090681
:1007460000324959513E007C1211127C007F494902
:100756004936003E41414122007F4141221C007F33
:1007660049494941007F09090901003E4149497A41
:10077600007F0808087F0000417F410000204041BB
:100786003F01007F08142241007F40404040007F27
:10079600020C027F007F0408107F003E4141413E6B
:1007A600007F09090906003E4151215E007F0919B3
:1007B60029460046494949310001017F0101003FB0
:1007C6004040403F001F2040201F003F4038403F30
:1007D6000063140814630007087008070061514994
:1007E600454300007F41410000552A552A55000027
:1007F60041417F00000402010204004040404040A5
:10080600000001020400002054545478007F48443C
:10081600443800384444442000384444487F003873
:100826005454541800087E0901020018A4A4A47C9C
:10083600007F080404780000447D40000040808466
:100846007D00007F102844000000417F4000007CAE
:1008560004180478007C08040478003844444438BA
:1008660000FC242424180018242418FC007C080406
:10087600040800485454542000043F444020003CDF
:100886004040207C001C2040201C003C4030403C66
:10089600004428102844001CA0A0A07C00446454F6
:1008A6004C4414141414141400000000000000003A
:1008B6000000000000000000000000F8000000003A
:1008C600000000333000000000100C06100C06007B
:1008D600000000000000000040C07840C0784000E2
:1008E600043F04043F040400007088FC0830000044
:1008F600001820FF211E0000F008F000E01800009C
:1009060000211C031E211E0000F008887000000054
:100916001E2123241927211010160E0000000000A6
:100926000000000000000000000000E018040200C3
:10093600000000071820400000020418E000000034
:100946000040201807000000404080F08040400032
:100956000202010F01020200000000F00000000088
:100966000101011F0101010000000000000000005C
:1009760080B07000000000000000000000000000D1
:10098600000101010101010100000000000000005A
:1009960000303000000000000000000080601804F5
:1009A600006018060100000000E010080810E000D2
:1009B600000F102020100F00001010F8000000009B
:1009C6000020203F202000000070080808887000E2
:1009D6000030282422213000003008888848300062
:1009E6000018202020110E000000C02010F8000082
:1009F60000070424243F240000F80888880808001B
:100A06000019212020110E0000E01088881800002F
:100A1600000F112020110E0000380808C838080001
:100A26000000003F00000000007088080888700081
:100A3600001C222121221C0000E010080810E00002
:100A46000000312222110F00000000C0C00000008B
:100A560000000030300000000000008000000000B0
:100A660000008060000000000000804020100800A8
:100A76000001020408102000404040404040400071
:100A8600040404040404040000081020408000004C
:100A96000020100804020100007048080808F00051
:100AA6000000003036010000C030C828E810E00021
:100AB6000718272423140B000000C038E0000000AC
:100AC600203C23020227382008F888888870000016
:100AD600203F202020110E00C030080808083800EA
:100AE600071820202010080008F808080810E00061
:100AF600203F202020100F0008F88888E808100002
:100B0600203F20202320180008F88888E8081000D5
:100B1600203F200003000000C0300808083800000D
:100B260007182020221E020008F808000008F8080E
:100B3600203F210101213F20000808F80808000095
:100B46000020203F2020000000000808F8080800C8
:100B5600C08080807F00000008F888C02818080040
:100B6600203F20012638200008F808000000000079
:100B7600203F20202020300008F8F800F8F8080070
:100B8600203F003F003F200008F830C00008F8086A
:100B9600203F200007183F00E01008080810E0007A
:100BA6000F10202020100F0008F808080808F00091
:100BB600203F210101010000E01008080810E000B4
:100BC6000F18242438504F0008F888888888700049
:100BD600203F2000030C30200070880808083800E9
:100BE6000038202121221C00180808F808081800DF
:100BF6000000203F2000000008F808000008F80860
:100C0600001F202020201F000878880000C8380810
:100C1600000007380E010000F80800F80008F80088
:100C2600033C0700073C0300081868808068180822
:100C360020302C03032C30200838C800C8380800A0
:100C46000000203F2000000010080808C8380800EF
:100C56002038262120201800000000FE0202020093
:100C66000000007F40404000000C30C00000000043
:100C7600000000010638C00000020202FE0000006B
:100C8600004040407F000000000004020202040011
:100C9600000000000000000000000000000000004E
:100CA6008080808080808080000202040000000036
:100CB600000000000000000000008080808000002E
:100CC6000019242222223F2008F80080800000001C
:100CD600003F112020110E000000008080800000DF
:100CE600000E112020201100000000808088F800EE
:100CF600000E112020103F20000080808080000020
:100D0600001F222222221300008080F08888881883
:100D16000020203F2020000000008080808080008E
:100D2600006B94949493600008F800808080000023
:100D3600203F210000203F200080989800000000FE
:100D46000020203F2020000000000080989800002E
:100D560000C08080807F000008F80000808080004E
:100D6600203F24022D302000000808F80000000073
:100D76000020203F2020000080808080808080002E
:100D8600203F20003F20003F8080008080800000C0
:100D9600203F210000203F2000008080808000004E
:100DA600001F202020201F0080800080800000007F
:100DB60080FFA12020110E000000008080808000AE
:100DC600000E112020A0FF8080808000808080009F
:100DD60020203F21200001000000808080808000CC
:100DE6000033242424241900008080E08080000041
:100DF6000000001F2020000080800000008080008E
:100E0600001F202020103F208080800000808080EE
:100E160000010E300806010080800080008080807E
:100E26000F300C030C300F000080800080808000A3
:100E36000020312E0E3120008080800000808080CE
:100E460080818E701806010000808080808080007E
:100E56000021302C2221300000000000807C02029C
:100E660000000000003F404000000000FF000000BE
:100E760000000000FF0000000002027C800000006D
:100E86000040403F00000000000601010202040489
:080E9600000000000000000054
:10005E00E4900558F0900558E064126017E4FB7DBB
:10006E00757F69125945900558EFF07F0A7E001290
:04007E005FCD80E1F1
:01008200225B
:104DD9007F0A7E00125FCD12005E7B807D6B7F694A
:104DE900125EE17F027E00125FCDE4FB7D6B7F697D
:104DF900125945EF20E7F37B017D6B7F69125EE174
:104E0900E4FB7D6C7F69125EE17B017D1A7F69128B
:104E19005EE17B077D197F69125EE17B187D1B7F4F
:104E290069125EE17B107D1C7F69125EE17B037D67
:064E39001D7F69025EE12D
:10526D007B017A0479D39004967406F0E4A3F07D63
:10527D003B7F691249429004D3E0FEA3E0FDEDFFB0
:10528D0090039EEEF0A3EFF09004D5E0FEA3E0FDB9
:10529D00EDFF9003A0EEF0A3EFF09004D7E0FEA396
:0C52AD00E0FDEDFF9003A2EEF0A3EFF097
:0152B90022D2
:1052BA007B017A0479D99004967406F0E4A3F07D10
:1052CA00437F691249429004D9E0FEA3E0FDEDFF55
:1052DA009003A4EEF0A3EFF09004DBE0FEA3E0FD60
:1052EA00EDFF9003A6EEF0A3EFF09004DDE0FEA33D
:0C52FA00E0FDEDFF9003A8EEF0A3EFF044
:015306002284
:065CA200C292EF4480FFF6
:105CA800E4FEEEC39408748094805015EF33929309
:105CB800EF25E0FFC295D295A294E4334FFF0E8002
:015CC800E1FA
:015CC90022B8
:0D000600C292125CA8AF05125CA8D2922233
:0F60F800125CA2E4FF125CA8EF1212DCD292221B
:0B584B00900521EBF0A3EAF0A3E9F0C8
:10585600125CA2E4FDFC900524E0FFC3ED9FEC94EE
:1058660000501FE4FF125CA8900521E0FBA3E0FABC
:10587600A3E0F98D828C83EF1212EE0DBD00010CB0
:0458860080D4D29266
:01588A0022FB
:105FE1007B017A0579597F751260F8900559E06453
:035FF1001270ED3E
:015FF400228A
:10512400125FE17D807F6B1200067F027E00125FBA
:10513400CD7B017A05795A7F6B1260F890055AE0AD
:10514400644170ED7D017F6B1200061D7F6C1200BF
:10515400060D7F1A1200067D077F191200067D18BE
:105164007F1B1200067D107F1C1200067D037F1D2D
:0351740002000630
:1054C7007B017A0479DF9005247406F07F3B12583C
:1054D7004B9004DFE0FEA3E0FDEDFF90039EEEF0AE
:1054E700A3EFF09004E1E0FEA3E0FDEDFF9003A041
:1054F700EEF0A3EFF09004E3E0FEA3E0FDEDFF90F4
:0755070003A2EEF0A3EFF098
:01550E00227A
:10550F007B017A0479E59005247406F07F431258E5
:10551F004B9004E5E0FEA3E0FDEDFF9003A4EEF059
:10552F00A3EFF09004E7E0FEA3E0FDEDFF9003A6EC
:10553F00EEF0A3EFF09004E9E0FEA3E0FDEDFF90A5
:07554F0003A8EEF0A3EFF04A
:015556002232
:0E5F7600EBF0A3EAF0A3E9F0C292EF4480FF43
:085F8400AB07E4FDFF024F0131
:1000260090055BEDF0C292125F8490055BE0FF12D3
:050036005F84D292225C
:105EA700900538125F76E4FF125F84900538E0FBB7
:0D5EB700A3E0FAA3E0F9EF1212DCD2922270
:0351CA0090048BC3
:1051CD00125F76E490048FF0A3F090048EE0FFC39D
:1051DD00900490E09F90048FE09400502FE4FF1214
:1051ED005F8490048BE0FBA3E0FAA3E0F990048FB9
:1051FD00E0FCA3E0F5828C83EF1212EE900490E0B8
:0E520D0004F070C690048FE004F080BED292D0
:01521B002270
:105DAC00E490055CF090055CE0641260147B017A71
:105DBC0005795C7F75125EA77F0A7E00125FCD802D
:015DCC00E4F2
:015DCD0022B3
:104CF600E490055DF07F0AFE125FCD9004BE74025B
:104D0600F0E4A3F0A3F07B01FDFF1256BB125DACED
:104D16007D807F6B1200267F027E00125FCD7B01B5
:104D26007A05795D7F6B125EA790055DE064417040
:104D3600ED7D017F6B120026E4FD7F6C1200267D5F
:104D4600017F1A1200267D077F191200267D187F23
:104D56001B1200267D107F1C1200267D037F1D027C
:024D6600002625
:105557007B017A0479EB90048E7406F07F3B12513D
:10556700CA9004EBE0FEA3E0FDEDFF90039EEEF092
:10557700A3EFF09004EDE0FEA3E0FDEDFF9003A0A4
:10558700EEF0A3EFF09004EFE0FEA3E0FDEDFF9057
:0755970003A2EEF0A3EFF008
:01559E0022EA
:10559F007B017A0479F190048E7406F07F431251E7
:1055AF00CA9004F1E0FEA3E0FDEDFF9003A4EEF03E
:1055BF00A3EFF09004F3E0FEA3E0FDEDFF9003A650
:1055CF00EEF0A3EFF09004F5E0FEA3E0FDEDFF9009
:0755DF0003A8EEF0A3EFF0BA
:0155E60022A2
:01004100229C
:075F8C00C295125F93D2954C
:0E5F93007F147E00EF1FAC0670011E4C70F6EE
:015FA10022DD
:0F610700D293D295125F93C293125F93C29522E7
:0A004600C293125F8CD293025F9305
:105EFD00AD07C295125F93ED6004C2938002D293F9
:0A5F0D00D295125F93C295025F93D4
:105FA200125F8C309306C295E4FEFF22C295125F07
:065FB200937E007F012236
:045CF200E025E0FFCA
:025CF600AD07F8
:105CF8007B08AF031BEF6015ED30E704D2938002F9
:105D0800C293ED25E0FD125F8EC29580E5025FA289
:025A2600AD07CA
:105A2800E4FBC295125F93D293E4FAEAC394087434
:105A38008094805011125F93125F8CEB25E0FB304D
:105A480093010B0A80E5C295125F93AF05125EFDC4
:025A5800AF039A
:015A5A002229
:105EE10090055EEFF0AA03A905126107125CF2AFFB
:0C5EF10001125CF6AF02125CF6020046E3
:0959450090055FEDF0AA07A9032B
:10594E00126107EA25E0FF125CF6E0FF125CF6E951
:10595E0064017003120046126107AF02EF25E044A6
:10596E0001FF125CF6E4FF125A26AD07120046AF95
:01597E000523
:01597F002205
:10494200900491EFF0A3EDF0A3EBF0A3EAF0A3E95A
:10495200F0126107900491125CF2A3E0FF125CF680
:10496200900497E0640170031200461261079004FC
:1049720091E025E04401FF125CF6900496E014F009
:1049820060207F01125A26900493E0FBA3E0FAA371
:10499200E0F9EF1212DC900494E475F0011213AD09
:1049A20080D8E4FF125A26900493E0FBA3E0FAA316
:0949B200E0F9EF1212DC020046EC
:10609A007D017F0D1253EC7D0A7C00E4FF0232AAD7
:1044FC00900526EBF0A3EAF0A3E9F0900525EFF088
:10450C00E4900529F0FD1253B0900525E0FF7DFFE6
:10451C001253B0900525E0FF7D011253B090052594
:10452C00E0FFE4FD1253B0E4900529F0900529E07A
:10453C00FFC3948074809480504C900526E0FBA3BC
:10454C00E0FAA3E0F975F002EFA4F58285F083128E
:10455C0013D97D00900525E0FF1253B0900526E09D
:10456C00FBA3E0FAA3E0F9A3E075F002A4F58285C1
:10457C00F0831213D9FD900525E0FF1253B090057E
:06458C0029E004F080A606
:014592002206
:10562E00E4900560F0D2B6C2B7C2B6D2B7D2B6C257
:10563E00B7F0900560E0C39480748094805027C2C8
:10564E00B67D027F0D125BA9900560E025E0240176
:10565E00F582E43400F583EEF0A3EFF0D2B69005B8
:06566E0060E004F080CCB6
:015674002213
:06614A002564002566003B
:1060AA00C2A2C2A1AB07E4FD7F01124F01D2A22214
:1060BA00C2A2D2A1AB07E4FD7F01124F01D2A222F4
:075A8F002428FFE03400FEB3
:025A9600AC065C
:105A9800EC90054CF0A3EFF0C2A2D2A190054CE027
:105AA800FBE4FD7F01124F0190054DE0FBE4FD7F13
:065AB80001124F01D2A211
:015ABE0022C5
:103146009004BE7412F0E4A3F0A3F07B117D107F0F
:10315600011256BBD2A4C2A1C2A07FC87E00125FD4
:10316600CDD2A07F647E00125FCD7F361260AA7F2B
:10317600A01260BA7F3A1260AA7F051260BA7FB2C7
:103186001260AA7F0C1260BA7F0C1260BAE4FF12BA
:1031960060BA7F331260BA7F331260BA7FB71260AB
:1031A600AA7F351260BA7FBB1260AA7F371260BA57
:1031B6007FC01260AA7F2C1260BA7FC21260AA7FFB
:1031C600011260BA7FC31260AA7F121260BA7FC46E
:1031D6001260AA7F201260BA7FC61260AA7F0F1201
:1031E60060BA7FD01260AA7FA41260BA7FA1126073
:1031F600BA7FE01260AA7FD01260BA7F041260BA6A
:103206007F0D1260BA7F111260BA7F131260BA7F07
:103216002B1260BA7F3F1260BA7F541260BA7F4C9D
:103226001260BA7F181260BA7F0D1260BA7F0B1255
:1032360060BA7F1F1260BA7F231260BA7FE1126004
:10324600AA7FD01260BA7F041260BA7F0C1260BAED
:103256007F111260BA7F131260BA7F2C1260BA7F98
:103266003F1260BA7F441260BA7F511260BA7F2F54
:103276001260BA7F1F1260BA7F1F1260BA7F2012D7
:1032860060BA7F231260BA7F211260AA7F11126092
:10329600AA7F787E00125FCD7F291260AA74FFFF95
:0432A600FE024D686F
:10521C0090045CEEF0A3EFF0A3ECF0A3EDF0A3EAA6
:10522C00F0A3EBF07F2A1260AA90045DE090045C7E
:10523C00125A8F900461E0900460125A8F7F2B12E7
:10524C0060AA90045FE02434FF90045E125A92909E
:10525C000463E02434FF900462125A927F2C0260A3
:01526C00AA97
:084D68009004FDEEF0A3EFF052
:104D7000900462E4F0A37486F07BEF7A00E4FDFC1B
:104D8000FFFE12521CE49004FFF0A3F0E490050132
:104D9000F0A3F09004FDE0FEA3E0FF125A96900508
:104DA00002E004F07006900501E004F0C3900502F3
:104DB000E09487900501E0940040D8900500E0045D
:104DC000F070069004FFE004F0C3900500E094F05A
:084DD0009004FFE0940040B4E0
:014DD80022B8
:1057C800900503EEF0A3EFF0900507EAF0A3EBF0E5
:1057D800900505ECF0A3EDF0900503E0FAA3E0FBDB
:1057E800FFAE02C007A3E0FFA3E0900462CFF0A3DE
:1057F800EFF0D00712521C900507E0FEA3E0FF026D
:025808005A96AE
:063C0600F583E02430FB11
:103C0C00900464EEF0A3EFF0A3ECF0A3EDF0A3EBC3
:013C1C00F0B7
:103C1D00E4A3F0900469E0F9C3941074809480409B
:103C2D0003023CE5E9FF900467E02FFD900466E098
:103C3D003400FC900465E02407FB900464E034003C
:103C4D00FA7E00900466E0F8A3E02FFFEE389004B2
:103C5D0062F0A3EFF0900464E0FEA3E0FF12521CAB
:103C6D00900468E0FF3395E0FEEFC4F8540FC86888
:103C7D00FFEEC454F048FE74962FF58274FE3EF5A7
:103C8D0083C083C082900469E0D082D0832582F501
:103C9D0082E43583F583E49390046BF0E490046A39
:103CAD00F090046AE0C39408748094805021A3E0DE
:103CBD0030E0067F007EF8800474FFFFFE125A96F6
:103CCD0090046BE0C313F090046AE004F080D2908E
:083CDD000469E004F0023C2040
:013CE50022BC
:104B9700900429EEF0A3EFF0A3ECF0A3EDF0A3EB64
:074BA700F0A3EAF0A3E9F01E
:104BAE00E4A3F0A3F090042DE0FBA3E0FAA3E0F958
:104BBE00A3E0FEA3E0FFF5828E831212AFFB603EF0
:104BCE00EF7803C333CE33CED8F9FF90042AE02F0B
:104BDE00FF900429E03EFE90042CE0C4F8540FC868
:104BEE0068FD90042BE0C454F048FC123C0C900479
:0E4BFE0031E004F070AF900430E004F080A7C6
:014C0C002285
:103DC000900432EEF0A3EFF0A3ECF0A3EDF0A3EB40
:013DD000F002
:103DD1003395E0C364809480900435E0C4F8540FB7
:103DE100C868FD900434E0C454F048FC900432E00B
:103DF100FEA3E0FF500E7B2D123C0C900436E0F444
:103E010004F080057B20123C0C900436E0FF75F035
:103E110064121274900437F0EF75F00A121274FFF5
:103E210075F00A121274AFF0900438EFF090043676
:103E3100E0FF75F00A121274AFF0900439EFF0E46C
:103E4100A3F090043AE0FBFF7E00C39403748094D6
:103E5100805045EF2401FFEE33FEEF7803C333CEEC
:103E610033CED8F9FF900433E02FFF900432E03EC7
:103E7100FE900435E0C4F8540FC868FD900434E0A6
:103E8100C454F048FC74372BF582E43404123C0628
:083E910090043AE004F080AA5D
:013E99002206
:0E4AAA0090046CEEF0A3EFF0A3ECF0A3EDF09F
:104AB800EB75F06484A3F0EB75F00A8475F00A8452
:104AC800A3E5F0F0EB75F00A84A3E5F0F0E4A3F0B9
:104AD800900473E0C3940374809480503BE0FB75AA
:104AE800F008A4FF90046DE02FFF90046CE035F00F
:104AF800FE90046FE0C4F8540FC868FD90046EE09F
:104B0800C454F048FC74702BF582E43404123C065B
:084B1800900473E004F080B882
:014B20002272
:1034FA009003AAEEF0A3EFF0A3ECF0A3EDF0A3EA99
:04350A00F0A3EBF04F
:10350E00C3EA648094809003ADE0C4F8540FC86899
:10351E00FD9003ACE0C454F048FC9003AAE0FEA377
:10352E00E0FF501C7B2D123C0C9003AEE0FEA3E09E
:10353E00FFC3E49FFFE49E9003AEF0A3EFF080057F
:10354E007B20123C0C9003AEE0FAA3E0FB7C277DBF
:10355E0010FFAE02121377A3EFF07C037DE8AF03EA
:10356E00AE021213777C007D0A121377A3EDF09052
:10357E0003AEA3E07C007D64FFAE021213777C00E5
:10358E007D0A1213779003B2EDF07C007D0AAF0333
:10359E00AE021213777C007D0A121377A3EDF09022
:1035AE0003AEE0FEA3E0FF7C007D0A1213779003CA
:1035BE00B4EDF0E4A3F09003B5E0FBFF7E00C394FE
:1035CE0005748094805045EF2401FFEE33FEEF78B2
:1035DE0003C333CE33CED8F9FF9003ABE02FFF9069
:1035EE0003AAE03EFE9003ADE0C4F8540FC868FD98
:1035FE009003ACE0C454F048FC74B02BF582E43474
:0C360E0003123C069003B5E004F080AA13
:01361A00228D
:0E41B500900403EEF0A3EFF0A3ECF0A3EDF006
:1041C3007C277D10AF03AE02121322A3EFF07C0312
:1041D3007DE8AF03AE021213227C007D0A12132284
:1041E300A3EDF07C007D64AF03AE021213227C00CA
:1041F3007D0A121322A3EDF07C007D0AAF03AE0209
:104203001213227C007D0A121322A3EDF0AE02AF3B
:10421300037C007D0A121322A3EDF0E4A3F09004C3
:104223000CE0C3940574809480503BE0FB75F00868
:10423300A4FF900404E02FFF900403E035F0FE9008
:104243000406E0C4F8540FC868FD900405E0C454A4
:10425300F048FC74072BF582E43404123C06900406
:064263000CE004F080B83D
:014269002232
:0E3A2E009002E3EEF0A3EFF0A3ECF0A3EDF0B6
:103A3C009002EBE0FFC3740A9F7480F898500374F3
:103A4C000AF09002EBE004F09002E7E0FCA3E0FD4A
:103A5C00A3E0FEA3E0FFE4FBFAF9F8D31214ED4067
:103A6C00319001D174FFF0A37461F0A3744AF0900B
:103A7C0002E7E0FCA3E0FDA3E0FEA3E0FF9001D48D
:103A8C001215470B7A0279EC121CE490030EEFF03E
:103A9C0080389002EC7420F09001D174FFF0A37484
:103AAC0061F0A3744AF09002E7E0FCA3E0FDA3E010
:103ABC00FEA3E0FF9001D41215477B017A0279ED49
:103ACC00121CE490030EEFF0801E9002EBE0FF90CE
:103ADC00030EE0FEC39F501574EC2EF582E4340205
:103AEC00F5837420F090030EE004F080DD74EC2F6D
:103AFC00F582E43402F583E4F09002E3E0FEA3E007
:103B0C00FFA3E0FCA3E0FD7B017A0279EC024B976A
:0E2E5E00900259EEF0A3EFF0A3ECF0A3EDF01C
:102E6C00900262E0FFC374069F7480F8985003745C
:102E7C0006F0900261E0FFC3740A9F7480F89850CA
:102E8C0003740AF090025DE0FCA3E0FDA3E0FEA356
:102E9C00E0FFE4FBFAF9F812113C9001D1603140EB
:102EAC002F74FFF0A37461F0A3744DF090025DE0F9
:102EBC00FCA3E0FDA3E0FEA3E0FF9001D4121547B4
:102ECC007B017A027964121CE4900263EFF080308B
:102EDC0074FFF0A37461F0A3744DF090025DE0FCFC
:102EEC00A3E0FDA3E0FEA3E0FF9001D41215477B05
:102EFC00017A027965121CE4900263EFF0E004F0B1
:102F0C00900263E024F9FD900261E0FEC3ED9E1493
:102F1C00900286F0900262E0AE052E04900287F0DB
:102F2C00900286E0FF3395E0FED3E49FEE6480F8D8
:102F3C007480984022A3E0FF3395E0FE74642FF573
:102F4C008274023EF5837420F0900287E004F090C6
:102F5C000286E004F080C990025DE0FCA3E0FDA3D2
:102F6C00E0FEA3E0FFE4FBFAF9F812113C900286B4
:102F7C0060174015E0FF3395E0FE74642FF5827402
:102F8C00023EF583742DF08013E0FF3395E0FE7460
:102F9C00642FF58274023EF5837420F0900287E072
:102FAC00FF3395E0FE74642FF58274023EF583E4E2
:102FBC00F0900259E0FEA3E0FFA3E0FCA3E0FD7B50
:082FCC00017A027964024B97BF
:102B550090033BEEF0A3EFF0A3ECF0A3EDF0A3EBB5
:022B6500F0F985
:102B6700E0FF131313541F90034DF0900343E08FBE
:102B7700F0A424FFFDE5F034FFFC90033BE0FEA347
:102B8700E0FF2DFBEE3CFAC002C003C006A3E0FC49
:102B9700A3E0FDE9FB7A0090033DE0F8A3E02BFBFF
:102BA700EA38CB24FFFEEB34FF900462F0A3CEF0AB
:102BB700D006D003D00212521CE4900346F0A3F0D3
:102BC70090033FE0FF900346E0FCA3E0FDC39F7442
:102BD70080F8EC6480984003022CE7900343E09070
:102BE700034CF0A3E0FF7E00121310900340E0FBBC
:102BF700A3E0FAA3E02FF9EA3E022CC790034CE0CA
:102C0700FF14F0EF7003022CD6E490034AF0A3F010
:102C170090034DE0FFC390034BE09F7480F890034F
:102C27004AE06480985076900348E4F0A37408F073
:102C3700900348E0FEA3E0FFD39400EE6480948005
:102C4700404090034EE0FBA3E0FAA3E0F91212968E
:102C5700FDEF14FFF8ED088002C313D8FC540160A0
:102C67000A900344E0FEA3E0FF800474FFFFFE1216
:102C77005A96900349E024FFF0900348E034FFF0B0
:102C870080AE90034FE475F0011213AD90034BE053
:102C970004F0700690034AE004F0022C1790034DED
:102CA700E0FFFDA3E0FBA3E0FAA3E0C39DF9EA94EC
:102CB70000FA90033FE0FEEF8EF0A429F9EA35F021
:102CC700FA90034EEBF0A3EAF0A3E9F0022C03908D
:102CD7000347E004F07006900346E004F0022BC7B8
:012CE70022CA
:105DEF00E4FB7D6B7F68125EE17B077D197F681294
:105DFF005EE1E4FB7D197F68125945EF640770F28D
:015E0F002270
:10547E007F647E00125FCD125DEFE4FB7D6B7F6873
:10548E00125EE17B077D197F68125EE17B047D1A57
:10549E007F68125EE17B187D1B7F68125EE17B10D8
:1054AE007D1C7F68125EE1E4FB7D6A7F68125EE11F
:0954BE007B027D377F68025EE18C
:105307007B017A0579099004967406F0E4A3F07D91
:105317003B7F68124942900509E0FEA3E0FDEDFFDF
:105327009003B6EEF0A3EFF090050BE0FEA3E0FDCF
:10533700EDFF9003B8EEF0A3EFF090050DE0FEA3AC
:0C534700E0FDEDFF9003BAEEF0A3EFF0E4
:015353002237
:105354007B017A05790F9004967406F0E4A3F07D3E
:10536400437F6812494290050FE0FEA3E0FDEDFF84
:105374009003BCEEF0A3EFF0900511E0FEA3E0FD76
:10538400EDFF9003BEEEF0A3EFF0900513E0FEA353
:0C539400E0FDEDFF9003C0EEF0A3EFF091
:0153A00022EA
:0A6116002D0020002564002566001E
:055BFF00F583E493FFB3
:105C04007E08C2A2D2A1C2A5AD061EED6014EF307B
:105C1400E704D2A38002C2A3D2A5C2A5EF25E0FF68
:045C240080E6D2A2A2
:015C28002259
:105D3E007E06C2A2D2A1C2A5AD061EED6014EF3042
:105D4E00E704D2A38002C2A3D2A5C2A5EF25E0FF2D
:045D5E0080E6D2A267
:015D6200221E
:085B4F0054F0C4540F4410FF90
:105B57007E08C2A2C2A1C2A5AD061EED6014EF3039
:105B6700E704D2A38002C2A3D2A5C2A5EF25E0FF16
:045B770080E6D2A250
:015B7B002207
:1047C600900498EEF0A3EFF0A3EBF0A3EAF0A3E9D0
:0147D600F0F2
:1047D70090049E7406F090049AE0FBA3E0FAA3E02D
:1047E700F990049EE0F582758300E4804E90049E64
:1047F700E0604D14F0900498E0FAA3E0FB7C007DA4
:104807000AFFAE0212132290049DEDF07C007D0A90
:10481700AF03AE02121322900498EEF0A3EFF090CC
:10482700049DE02430FF90049AE0FBA3E0FAA3E0A4
:10483700F990049EE0F582758300EF1212EE80ADC9
:01484700224E
:10431600D2A2D2A5C2A07F327E00125FCDD2A07FEC
:10432600AE125B57E4FF125B577F10125B577F405C
:10433600125B577F81125B577F7F125B577FA112FB
:104346005B577FC8125B577FA6125B577FA8125B2D
:10435600577F3F125B577FD3125B57E4FF125B57C1
:104366007FD5125B577F80125B577FD9125B577FD1
:10437600F1125B577FDA125B577F12125B577FDBB6
:10438600125B577F40125B577F20125B577F0212EA
:104396005B577F8D125B577F14125B577FA4125BAE
:1043A600577FA6125B577FAF125B57E4FF1259EF98
:0643B600E4FDFF025FF5CB
:105FF500AC07ED24B0FF125B57EC125B4FEC540F6E
:04600500FF025B57E4
:0259EF00AC0703
:1059F100E4FBEBC39408748094805028EB24B0FF3F
:105A0100125B577F01125B577F10125B57E4FAEA72
:105A1100C39480748094805008AF04125C040A809F
:045A2100EE0B80CE3A
:015A2500225E
:105E3100AA07A905125FF5E924B0FF125B57EA1220
:0E5E41005B4FEA540FFF125B57AF03025C0485
:105E4F00AB07AA05125FF5EA24B0FF125B57EB12FE
:0E5E5F005B4FEB540FFF125B57E4FF025C0435
:1046240090049FEFF0A3EDF0A3EBF0A3EAF0A3E96D
:01463400F095
:10463500E4A3F0FCA3F09004A1E0FBA3E0FAA3E05F
:10464500F99004A5E0F5827583001212AF605F242E
:10465500E09004A4F090049FE0D3947E748094804D
:104665004006E4F0A3E004F090049FE0FFA3E0FD22
:10467500125FF5E4FCECC39406748094805020909E
:1046850004A4E075F006A42486F582E5F03406F569
:1046950083E5822CF582E43583125BFF0C80D6908E
:0E46A500049FE02406F09004A5E004F0808855
:0146B30022E4
:103F69009004A6EFF0A3EDF0A3EBF0A3EAF0A3E928
:013F7900F057
:103F7A00E4A3F0FCA3F09004A8E0FBA3E0FAA3E01A
:103F8A00F99004ACE0F5827583001212AF70030257
:103F9A00403424E09004ABF09004A6E0D394787403
:103FAA008094804006E4F0A3E004F09004A6E0FFC9
:103FBA00A3E0FD125FF5E4FCECC3940874809480DE
:103FCA0050209004ABE075F010A42CF582E435F093
:103FDA00F583E58224AEF582E5833408125BFF0C93
:103FEA0080D69004A6E0FFA3E004FD125FF5E4FC8E
:103FFA00ECC394087480948050209004ABE075F070
:10400A0010A42CF582E435F0F583E58224B6F58216
:10401A00E5833408125BFF0C80D69004A6E02408DE
:0A402A00F09004ACE004F0023F80C7
:014034002269
:085D180090043BEFF0A3EDF055
:105D2000AE02AF037B017A04793D1247C690043B73
:0E5D3000E0FFA3E0FD7B017A04793E024624E9
:0E4C0D009003D9EFF0A3EDF0A3EAF0A3EBF0D3
:104C1B00C3EA6480948050259003DBE0FEA3E0FFA1
:104C2B00C3E49FFFE49E9003DBF0A3EFF09003D966
:104C3B00E0FFA3E0FD7BFF7A617916800E9003D92C
:104C4B00E0FFA3E0FD7BFF7A617918124624900305
:104C5B00D9E02406F09003DBE0FEA3E0FF7B017AB2
:104C6B000379DD1247C69003D9E0FFA3E0FD7B017A
:074C7B007A0379DE024624F2
:0E3B1C0090030FEEF0A3EFF0A3ECF0A3EDF09A
:103B2A00900317E0FFC3740A9F7480F898500374D7
:103B3A000AF0900317E004F0900313E0FCA3E0FD01
:103B4A00A3E0FEA3E0FFE4FBFAF9F8D31214ED4078
:103B5A00319001D174FFF0A37461F0A3741AF0904C
:103B6A000313E0FCA3E0FDA3E0FEA3E0FF9001D471
:103B7A001215470B7A037918121CE490033AEFF0F6
:103B8A0080389003187420F09001D174FFF0A37468
:103B9A0061F0A3741AF0900313E0FCA3E0FDA3E024
:103BAA00FEA3E0FF9001D41215477B017A0379192D
:103BBA00121CE490033AEFF0801E900317E0FF9086
:103BCA00033AE0FEC39F501574182EF582E43403BD
:103BDA00F5837420F090033AE004F080DD74182F26
:103BEA00F582E43403F583E4F090030FA3E0FFA326
:0C3BFA00A3E0FD7B017A03791802462449
:0E2FD400900288EEF0A3EFF0A3ECF0A3EDF076
:102FE200900291E0FFC374069F7480F898500374B6
:102FF20006F0900290E0FFC3740A9F7480F8985024
:1030020003740AF090028CE0FCA3E0FDA3E0FEA3AF
:10301200E0FFE4FBFAF9F812113C9001D160314073
:103022002F74FFF0A37461F0A3741DF090028CE082
:10303200FCA3E0FDA3E0FEA3E0FF9001D41215473C
:103042007B017A027993121CE4900292EFF08030B5
:1030520074FFF0A37461F0A3741DF090028CE0FC85
:10306200A3E0FDA3E0FEA3E0FF9001D41215477B8D
:10307200017A027994121CE4900292EFF0E004F0DB
:10308200900292E024F9FD900290E0FEC3ED9E14BE
:103092009002B5F0900291E0AE052E049002B6F0D7
:1030A2009002B5E0FF3395E0FED3E49FEE6480F832
:1030B2007480984022A3E0FF3395E0FE74932FF5CD
:1030C2008274023EF5837420F09002B6E004F09020
:1030D20002B5E004F080C990028CE0FCA3E0FDA3FD
:1030E200E0FEA3E0FFE4FBFAF9F812113C9002B50E
:1030F20060174015E0FF3395E0FE74932FF582745C
:10310200023EF583742DF08013E0FF3395E0FE74E8
:10311200932FF58274023EF5837420F09002B6E09C
:10312200FF3395E0FE74932FF58274023EF583E43B
:10313200F0900288A3E0FFA3A3E0FD7B017A02796D
:04314200930246248A
:10172800900366ECF0A3EDF0A3EBF0A3EAF0A3E9D5
:09173800F0900364EEF0A3EFF061
:101741007E005407FF900372EEF0A3EFF070179044
:101751000364E0FEA3E07803CEC313CE13D8F9FFF0
:10176100900370EE8018900364E0FEA3E07803CE4E
:10177100C313CE13D8F92401FFE43E900370F0A304
:10178100EFF0E490036CF0A3F0900370E0FEA3E0AF
:10179100FF90036CE0FCA3E0FDC39FEE6480F8ECD6
:1017A1006480984003021CE3E4FF125FF5E4A3F0B8
:1017B100A3F0900366E0FCA3E0FDC390036FE09DFE
:1017C10090036EE09C4003021CD2E4900374F090FD
:1017D1000371E024FFFF900370E034FFFE90036C7F
:1017E100E0FAA3E0FBC39FEE6480F8EA64809840CE
:1017F10015900372E0FEA3E0FF4E600AEF9401EE44
:1018010064809480404D900374E0FFC007AE02EB0A
:101811007803C333CE33CED8F9FF12131090036887
:10182100E0FBA3E0FAA3E02FF9EA3EFA90036EE0B1
:10183100FEA3E029F9EA3EFA121296FF90036BE04B
:10184100FEEFD39E40047E0180027E00D0E04E90E8
:101851000374F0900371E024FFFF900370E034FF04
:10186100FE90036CE0FCA3E0FDC39FEE6480F8EC06
:101871006480984015900372E0FEA3E0FF4E600A79
:10188100EF9402EE648094804063900374E0FFC0A3
:1018910007AE04ED7803C333CE33CED8F9FF9003FE
:1018A10066E0FCA3E0FD121310A3E0FBA3E0FAA3A2
:1018B100E02FF9EA3EFA90036EE0FEA3E029F9EA8F
:1018C1003EFA900366E0FEA3E029F9EA3EFA12121D
:1018D10096FF90036BE0FEEFD39E40047F018002F0
:1018E1007F00EF25E0FED0E04E900374F09003718D
:1018F100E024FFFF900370E034FFFE90036CE0FCF6
:10190100A3E0FDC39FEE6480F8EC648098401590DD
:101911000372E0FEA3E0FF4E600AEF9403EE6480E1
:101921009480406C900374E0FFC007AE04ED78032F
:10193100C333CE33CED8F9FF900366E0FCA3E0FDBC
:10194100121310A3E0FBA3E0FAA3E02FF9EA3EFA99
:1019510090036EE0FEA3E029F9EA3EFA900367E006
:1019610025E0FF900366E033FEE92FF9EA3EFA1223
:101971001296FF90036BE0FEEFD39E40047F01803F
:10198100027F00EF25E025E0FED0E04E900374F0E9
:10199100900371E024FFFF900370E034FFFE900399
:1019A1006CE0FCA3E0FDC39FEE6480F8EC648098DA
:1019B1004015900372E0FEA3E0FF4E600AEF94042D
:1019C100EE64809480406A900374E0FFC007AE0427
:1019D100ED7803C333CE33CED8F9FF900366E0FC34
:1019E100A3E0FD121310A3E0FBA3E0FAA3E02FF99B
:1019F100EA3EFA90036EE0FEA3E029F9EA3EFA908E
:101A01000366E0FEA3E0F5828E837403121584124F
:101A110012AFFF90036BE0FEEFD39E40047F018085
:101A2100027F00EF33333354F8FED0E04E9003745D
:101A3100F0900371E024FFFF900370E034FFFE900B
:101A4100036CE0FCA3E0FDC39FEE6480F8EC6480CE
:101A5100984015900372E0FEA3E0FF4E600AEF94F8
:101A610005EE64809480406D900374E0FFC007AE82
:101A710004ED7803C333CE33CED8F9FF900366E08B
:101A8100FCA3E0FD121310A3E0FBA3E0FAA3E02FF7
:101A9100F9EA3EFA90036EE0FEA3E029F9EA3EFA84
:101AA100900366E0FEA3E07802C333CE33CED8F9CB
:101AB10029F9EA3EFA121296FF90036BE0FEEFD38A
:101AC1009E40047F0180027F00EFC454F0FED0E00D
:101AD1004E900374F0900371E024FFFF900370E0D7
:101AE10034FFFE90036CE0FCA3E0FDC39FEE648035
:101AF100F8EC6480984015900372E0FEA3E0FF4E7D
:101B0100600AEF9406EE648094804069900374E06B
:101B1100FFC007AE04ED7803C333CE33CED8F9FF4F
:101B2100900366E0FCA3E0FD121310A3E0FBA3E029
:101B3100FAA3E02FF9EA3EFA90036EE0FEA3E02952
:101B4100F9EA3EFA900366E0FEA3E0F5828E837423
:101B5100051215841212AFFF90036BE0FEEFD39EC6
:101B610040047F0180027F00EFC43354E0FED0E0E7
:101B71004E900374F0900371E024FFFF900370E036
:101B810034FFFE90036CE0FCA3E0FDC39FEE648094
:101B9100F8EC6480984015900372E0FEA3E0FF4EDC
:101BA100600AEF9407EE64809480406A900374E0C9
:101BB100FFC007AE04ED7803C333CE33CED8F9FFAF
:101BC100900366E0FCA3E0FD121310A3E0FBA3E089
:101BD100FAA3E02FF9EA3EFA90036EE0FEA3E029B2
:101BE100F9EA3EFA900366E0FEA3E0F5828E837483
:101BF100061215841212AFFF90036BE0FEEFD39E25
:101C010040047F0180027F00EFC4333354C0FED013
:101C1100E04E900374F0900371E024FFFF90037095
:101C2100E034FFFE90036CE0FCA3E0FDC39FEE6493
:101C310080F8EC6480984015900372E0FEA3E0FF09
:101C41004E600AEF9408EE64809480406B900374B8
:101C5100E0FFC007AE04ED7803C333CE33CED8F92D
:101C6100FF900366E0FCA3E0FD121310A3E0FBA3C9
:101C7100E0FAA3E02FF9EA3EFA90036EE0FEA3E05A
:101C810029F9EA3EFA900366E0FEA3E0F5828E832D
:101C910074071215841212AFFF90036BE0FEEFD3AD
:101CA1009E40047F0180027F00EFC43333335480B0
:101CB100FED0E04E900374F0900374E0FF125C04D8
:101CC10090036FE004F0700690036EE004F00217D9
:101CD100B390036DE004F0700690036CE004F00231
:021CE100178A60
:011CE30022DE
:0B3E9A00900385EFF0A3EDF0A3EBF028
:103EA500E490038CF0A3F090038BE0FFC390038DA7
:103EB500E09F7480F890038CE06480984003023F93
:103EC50068E490038EF0A3F0900387E0FF131313CB
:103ED500541FFD90038EE0FAA3E0FBC39D7480F8A8
:103EE500EA648098506990038CA3E08FF0A4FF905A
:103EF5000385E02FFFA3E02BFD125FF5E49003900F
:103F0500F0A3F0900388E0FBA3E0FAA3E0F9121216
:103F150096FF125C04900389E475F0011213AD90CD
:103F25000391E004F07006900390E004F0C3900361
:103F350091E09410900390E06480948040C59003D4
:103F45008FE004F0708290038EE004F0023ECD9085
:103F5500038DE004F06003023EAC90038CE004F0B6
:033F6500023EAC6D
:013F68002236
:10604400EF1FAA0670011E4A60087D091DED60F06D
:0260540080FAD0
:016056002227
:0B5B7C00C2CCEF4480FF125B87AF0536
:105B8700E4FEEEC39408748094805015EF3392FDC1
:105B9700EF25E0FFC2FFD2FFA2FEE4334FFF0E80E6
:015BA700E11C
:015BA80022DA
:06615000125B7CD2CC22A0
:105FB800C2CCEF4440FF125B87E4FF125B87EF120D
:055FC80012DCD2CC2226
:105E1000125B7CD2CCC2CCE4FF125B87AC07E4FF00
:105E2000125B87D2CCAF04ED6F60037F01227F004D
:015E3000224F
:10588B0090053BEBF0A3EAF0A3E9F0C2CCEF444068
:10589B00FF125B87E4FF125B87D2CC7F017E001285
:1058AB006044C2CCE4FF125B8790053BE0FBA3E0B6
:1058BB00FAA3E0F9EF1212DCE4FF125B87D2CC22E1
:105CCA00AB07AA06C3E49BFB74109AFAEBC4F85418
:105CDA000FC868FBEAC454F048FAAD03E4FF125E49
:085CEA0010EAFD7F01025E10CB
:105D6300C2CCE4FF125B87AD07ED7D00FCE4FF12BC
:105D73005B87D2CCAE04EEC4F854F0C868FEEFC41F
:045D8300540F48FF72
:015D870022F9
:106009007B017A0579617F0612588B900561E064FE
:036019001C70ED0B
:01601C002261
:1060CA00126009E4FD7F09125E10E4FFFE025CCA59
:0E5F4900EBF0A3EAF0A3E9F0C2CCEF4440FF76
:095F5700AB07E4FD7F02024F01DB
:105F1700900562EDF0C2CCEF4480FF125F57900509
:095F270062E0FF125F57D2CC22A8
:105EC40090053E125F49E4FF125B8790053EE0FBBC
:0D5ED400A3E0FAA3E0F9EF1212DCD2CC2219
:0559080090054EEDF0DA
:10590D00C2CCEF4480FF125F5790054EE0FF125F4F
:10591D0057D2CCC2CCE4FF125F5790054FEFF0E4A5
:10592D00FF125F57D2CC90054FE0FF90054EE06F10
:07593D0060037F01227F00DF
:015944002240
:105BD400900541125F49E4FF125F57D2CCC2CCE476
:105BE400FF125F57900541E0FBA3E0FAA3E0F9EF51
:0B5BF4001212DCE4FF125F57D2CC223B
:10598000900550EEF0A3EFF0C3E49FF074109E90EA
:105990000550F0A3E0C4F8540FC868FF900550E02C
:1059A000C454F048F0A3EFF0FDE4FF12590890054D
:0859B00050E0FD7F01025908DF
:10580A00E4900552F0A3F0C2CCFF125F5790055204
:10581A00E4F0A3EFF0E0F8E4F0E8900552F0E4FFDA
:10582A00125F57900552E0F0A3E04FF0D2CC9005FA
:10583A0052E0C4F854F0C868FEA3E0C4540F48FF0D
:01584A00223B
:10601D007B017A0579637F06125BD4900563E0649A
:03602D001C70EDF7
:01603000224D
:105D88009004BE7422F0E4A3F0A3F07B217D207F71
:105D9800021256BB12601DE4FD7F09125908E4FF88
:045DA800FE0259801E
:105F30009004771215530001C20090047B7404F0A2
:095F40007B117D107F030227D2C2
:10426A009004ADEBF0A3EAF0A3E9F0A38062E47F47
:10427A001EFEFDFC9004B0E0F8A3E0F9A3E0FAA367
:10428A00E0FBD3121503404D308402804B9004ADFD
:10429A00E0FBA3E0FAA3E0F99004CBE4F0A3741ED8
:1042AA00F07F03125C529004AEE475F01E1213AD57
:1042BA009004B0E0FCA3E0FDA3E0FEA3E0C3941EDB
:1042CA00FFEE9400FEED9400FDEC9400FC9004B027
:1042DA00121547809930840F9004B0E0FCA3E0FDEA
:1042EA00A3E0FEA3E0FF229004ADE0FBA3E0FAA363
:1042FA00E0F9A3A3A3E0FFA3E09004CBCFF0A3EFE0
:0C430A00F07F03125C52E4FFFEFDFC2279
:0E4593009004B4EBF0A3EAF0A3E9F0A3EDF07E
:1045A10074FFA3F0A3F0E4A3F09004B7E0FF90043C
:1045B100BAE0FEC39F50639004B4E0FBA3E0FAA30A
:1045C100E0F98E827583001212AFFF9004B8E0F01B
:1045D100A3E06FF0E4FDEDC3940874809480503241
:1045E1009004B8E0FEA3E0FF30E019EEC313FEEF44
:1045F10013FFEE64A0FEEF6401FF9004B8EEF0A398
:10460100EFF0800B9004B8E0C313F0A3E013F00DBA
:1046110080C49004BAE004F0808F9004B8E0FEA357
:02462100E0FFB8
:014623002274
:1043BC009003E6ECF0A3EDF0A3EAF0A3EBF090038E
:0643CC00E4EEF0A3EFF0A7
:1043D200E4FC9003ECE0FBA3E0FAA3E0F9EF121295
:1043E200DC9003E4E0FEEEFF9003ECE0FBA3E0FAD6
:1043F200A3E0F9900001EF1212EE9003E6A3E09021
:1044020000021212EE9003E6E0FEEE90000312129A
:10441200EE9003E8A3E09000041212EE9003E8E0AD
:10442200FEEE9000051212EE9003EAA3E090000661
:104432001212EE9003EAE0FEEE9000071212EE7DF9
:10444200081245939003ECE0FBA3E0FAA3E0F99095
:0D4452000008EF1212EEEE9000090212EECB
:10299F00900200E0FBA3E475F0041213C3A9F0FA50
:1029AF00121527900225121547900225E0FCA3E08F
:1029BF00FDA3E0FEA3E0FF7B017A027904E490031C
:0629CF0058F0A37410F0A3
:1029D500900351121547900355EBF0A3EAF0A3E9D4
:0129E500F001
:1029E600E4900362F0A3F0900358E07003022AA477
:1029F600900351E0FCA3E0FDA3E0FEA3E0FF9003FB
:102A06005A12154790035AE0FCA3E0FDA3E0FEA38B
:102A1600E0FFEC33501090035AA3A3A3E01214DF97
:102A260090035A121547900359E0FBE4FAF9F8A30C
:102A3600E0FCA3E0FDA3E0FEA3E0FF125700EB24B9
:102A460030FF900355E0FBA3E0FAA3E0F9EF121282
:102A5600DC90035AE0FCA3E0FDA3E0FEA3E0FFC088
:102A660007900359E0FBE4FAF9F8D00712570090F3
:102A7600035A121547900363E004F090035AE0FCF2
:102A8600A3E0FDA3E0FEA3E0FFEC4D4E4F70030272
:102A96002B4F900356E475F0011213AD8088900316
:102AA60051E0FCA3E0FDA3E0FEA3E0FF90035E126D
:102AB6001547900359E0FBE4FAF9F890035EE0FC51
:102AC600A3E0FDA3E0FEA3E0FF12144DAF039003C5
:102AD60062EFF0D3740A9F7480F8985006E02437AA
:102AE600F08007900362E02430F0900362E0FF90EC
:102AF6000355E0FBA3E0FAA3E0F9EF1212DC900322
:102B06005EE0FCA3E0FDA3E0FEA3E0FFC0079003A8
:102B160059E0FBE4FAF9F8D00712144D90035E125F
:102B26001547900363E004F090035EE0FCA3E0FD2C
:102B3600A3E0FEA3E0FFEC4D4E4F600D900356E47C
:0E2B460075F0011213AD022AB8900363E0FF90
:012B5400225E
:10384700900229EFF07B017A027904E0FFE4FCFDA6
:01385700FE72
:0F3858009003C2EBF0A3EAF0A3E9F0A312154727
:103867009003C912155300000000E47B02FAF9F82F
:103877009003C5E0FCA3E0FDA3E0FEA3E0FF121464
:103887004D9003C9E0F8A3E0F9A3E0FAA3E0FBC376
:10389700121503400302393F9003C5A3A3E0FEA31B
:1038A700E024FFFBEE34FFFAA3A3A3E0FEA3E0FFAF
:1038B700C3EB9FFDEA9EFC9003C2E0FBA3E0FAA3E3
:1038C700E0F98D828C831212AF9003CDF08F828E38
:1038D700831212AFFFC0079003C5A3A3E0FEA3E0C6
:1038E70024FFFBEE34FFFAA3A3A3E0FEA3E0FDACA5
:1038F70006C3EB9DFFEA9CFE9003C2E0FBA3E0FA40
:103907008F828E83D0E01212EE9003CDE0FFEF8D11
:10391700828C831212EE9003C9E0FCA3E0FDA3E0C2
:10392700FEA3E02401FFE43EFEE43DFDE43CFC9001
:0839370003C9121547023871A3
:01393F002265
:0B1CE4009001CEEBF0A3EAF0A3E9F0C2
:101CEF009001FC121553000000009002007401F0E7
:101CFF00A37401F0A374D4F09001D1E0FBA3E0FA38
:0B1D0F00A3E0F9121296700302226E8E
:101D1A00900203F06425600302221A9001D1A3E421
:101D2A0075F0011213ADA9F0FA1212961215B52127
:101D3A00E6251DE84620C0581D61631D7D641DE827
:101D4A00661D7D6920456F218D702114731FBF7533
:071D5A0020C07800002261A7
:101D6100900200E0FBA3E475F0041213C3A9F0FA9A
:091D7100121527900204EFF0E0C6
:031D7A000222281A
:101D7D00900200E0FBA3E475F0041213C3A9F0FA7E
:101D8D00121527900225121547900225E0FCA3E0BD
:101D9D00FDA3E0FEA3E0FF7B017A027904900358D6
:101DAD007401F0A3740AF01229D5900229EFF09076
:101DBD000225E0FCA3A3A3EC335014A3E02404F507
:101DCD0082E43402F583742DF0900229E004F07B57
:081DDD00017A02790490022949
:031DE500022003D6
:101DE800900200E0FBA3E475F0041213C3A9F0FA13
:101DF800121527900225121547900225E0FCA3E052
:101E0800FDA3E0FEA3E0FF1211F37B017A0279043F
:101E18009003587401F0A3740AF01229D59002298E
:101E2800EFF0E4FFFEFDFC900225E0F8A3E0F9A343
:101E3800E0FAA3E0FB12113C5016900229E02404BA
:101E4800F582E43402F583742DF0900229E004F061
:101E58007B017A027904900229123852900229E013
:101E6800FF7E009001CEE0FBA3E0FAA3E0F8AC020D
:101E7800AD037B017A0279041216A7900229E0FFCC
:101E8800FD9001CFE48DF01213AD9001FCE0F8A3B2
:101E9800E0F9A3E0FAA3E0FBE4FCFDFEEB2FFFEE84
:101EA8003AFEED39FDEC38FC9001FC121547900222
:101EB80025E0FCA3E0FDA3E0FEA3E0FF1211F3EC94
:101EC8001211B5A804A905AA06AB07900225E0FCE3
:101ED800A3E0FDA3E0FEA3E0FF120EA17B007A249D
:101EE80079747849120F96900225121547900225A9
:101EF800E0FCA3E0FDA3E0FEA3E0FFEC4D4E4F6045
:101F080024900225A3A3A3E01211F37B017A02799E
:101F1800049003587401F0A3740AF01229D59002B2
:101F280029EFF080209002097430F0900208F090B8
:101F38000207F0900206F0900205F0900204F0907B
:101F480002297406F0900229E0FFFDD374069D74FF
:101F580080F898401574042FF582E43402F58374F0
:101F680030F0900229E004F080DB900229E024049C
:101F7800F582E43402F583742EF0900229E004120D
:101F8800384B900229E0FF7E009001CEE0FBA3E0F1
:101F9800FAA3E0F8AC02AD037B017A0279041216C9
:101FA800A79001FCE0F8A3E0F9A3E0FAA3E0FB9016
:071FB8000229E0FF022102F3
:101FBF00900200E0FBA3E475F0041213C3A9F0FA3A
:101FCF00121527900225121547900225E0FCA3E079
:101FDF00FDA3E0FEA3E0FF7B017A027904E4900306
:101FEF0058F0A3740AF01229D5900229EFF07B0163
:101FFF007A027904123852900229E0FF7E00900194
:10200F00CEE0FBA3E0FAA3E0F8AC02AD037B017ACC
:10201F000279041216A7900229E0FFFD9001CFE488
:10202F008DF01213AD9001FCE0F8A3E0F9A3E0FAF4
:03203F00A3E0FB20
:0320420002210276
:10204500900200E0FBA3E475F0041213C3A9F0FAB3
:10205500121527900225121547900225E0FCA3E0F2
:10206500FDA3E0FEA3E0FF7B017A027904E490037F
:1020750058F0A37408F01229D5123847900229E0C8
:10208500FF7E009001CEE0FBA3E0FAA3E0F8AC02EE
:10209500AD037B017A0279041216A7900229E0FFAD
:1020A500FD9001CFE48DF01213AD9001FCE0F8A393
:0820B500E0F9A3E0FAA3E0FB4F
:0320BD00022102FB
:1020C00012299F123847900229E0FF7E009001CE2E
:1020D000E0FBA3E0FAA3E0F8AC02AD037B017A02D7
:1020E00079041216A7900229E0FFFD9001CFE48D3C
:1020F000F01213AD9001FCE0F8A3E0F9A3E0FAA31D
:10210000E0FBE4FCFDFEEB2FFFEE3AFEED39FDECCB
:012110003896
:0321110002225A4D
:10211400900200E0FBA3E475F0031213C3A9F0FAE4
:10212400121595900204EBF0A3EAF0A3E9F09002F3
:1021340004E0FBA3E0FAA3E0F91212967003022272
:1021440061121296FF9001CEE0FBA3E0FAA3E0F93E
:10215400EF1212DC9001CFE475F0011213AD90017F
:10216400FCE0FCA3E0FDA3E0FEA3E02401FFE43EC9
:10217400FEE43DFDE43CFC9001FC12154790020591
:09218400E475F0011213AD80A511
:10218D0012299F900229EFF07B017A0279047F08D2
:10219D007E007D007C001238589001CEE0FBA3E05C
:1021AD00FAA3E0F8AC02AD037B017A0279047E005C
:1021BD007F081216A79001CFE475F0081213AD90A9
:1021CD0001FCE0FCA3E0FDA3E0FEA3E02408FFE496
:0721DD003EFEE43DFDE43C81
:1021E40080749001CEE0FBA3E0FAA3E0F974251219
:1021F40012DC9001CFE475F0011213AD9001FCE004
:10220400FCA3E0FDA3E0FEA3E02401FFE43EFEE422
:102214003DFDE43C80409001D1E0FBA3E0FAA3E063
:10222400F9121296FF9001CEE0FBA3E0FAA3E0F9C5
:10223400EF1212DC9001CFE475F0011213AD90019E
:10224400FCE0FCA3E0FDA3E0FEA3E02401FFE43EE8
:10225400FEE43DFDE43CFC9001FC1215479001D2E4
:07226400E475F0011213AD57
:10226B00021D07900200E4F0A3F0A3F09001FCE044
:0A227B00FCA3E0FDA3E0FEA3E0FFDA
:012285002236
:03002300024EA0EA
:104EA000C0E0C083C08263A201C083C082C0D0754D
:064EB000D000C005C007A0
:104EB600309907C2999001CAE4F030982AC298AF97
:104EC60099EFFD647F6005ED64807016900564E0DF
:104ED600FF04F0D3EF941474809480400A75C76081
:074EE6008005900564E4F073
:104EED00D007D005D0D0D082D08363A201D082D09C
:044EFD0083D0E0324C
:03004300025ABF9F
:105ABF00C0E0C083C08263A201C083C082E59A3078
:105ACF00E108539AFD9001CBE4F0E59A30E00353DF
:105ADF009AFED082D08363A201D082D083D0E032ED
:03008B00025AEF27
:105AEF00C0E0C083C08263A201C083C082E5AC3036
:105AFF00E10853ACFD9001CCE4F0E5AC30E003538A
:105B0F00ACFED082D08363A201D082D083D0E032AA
:03009300025B1FEE
:105B1F00C0E0C083C08263A201C083C082E584302D
:105B2F00E1085384FD9001CDE4F0E58430E00353A8
:105B3F0084FED082D08363A201D082D083D0E032A2
:03003B00024C82F2
:104C8200C0E0C083C08263A201C083C082C0D0756D
:104C9200D000C006C00730D822C2D890037DE0FE03
:104CA200A3E0F5EAEEF5FA900375E0FEA3E0FF90CB
:104CB200037EE02FF090037DE03EF030D922C2D98E
:104CC20090037FE0FEA3E0F5EBEEF5FB900377E0C7
:104CD200FEA3E0FF900380E02FF090037FE03EF020
:104CE200D007D006D0D0D082D08363A201D082D0A8
:044CF20083D0E03259
:03000300020042B6
:01004200328B
:0300130002005098
:01005000327D
:0300530002005157
:01005100327C
:03005B000200524E
:01005200327B
:0300830002005622
:010056003277
:10517700120020125077E4FDFF1253ECE4FD7F018B
:105187001253ECE4FD7F021253EC12003E7D02E461
:10519700FF125BA9900515EEF0A3EFF07D037F01E9
:1051A700125BA9900517EEF0A3EFF07D047F0212C2
:1051B7005BA9900519EEF0A3EFF07F647E00125F04
:0351C700CD80CACE
:100E9E0002125FE86480F8E933E83360110460F011
:100EAE00ED33EC337009E8FCE9FDEAFEEBFF2204BA
:100EBE0060DED3EB9FEA9EE99DE8C2E78CF0C2F7B5
:100ECE0095F0400CE8CCF8E9CDF9EACEFAEBCFFB81
:100EDE0012122A85D0F05804700320D5B3E804709E
:100EEE00075002B2D502126992D5EC0460F7E4CC39
:100EFE00C0E0C398F8603B94186008400DD0E0FB4A
:100F0E00021241E4FBFAC9FC8028E830E406E4C989
:100F1E00FBE4CAFCE830E305E4C9CACBFCE854079D
:100F2E006010F8C3E913F9EA13FAEB13FBEC13FCA8
:100F3E00D8F130F52FC3E49CFCEF9BFFEE9AFEED4B
:100F4E0099FDD0E0FBEF4E4D4C701222DB030212E6
:100F5E0066EC2CFCEF33FFEE33FEED33FDED30E7A8
:100F6E00EB021241EF2BFFEE3AFEED39FDD0E0FB26
:100F7E0050130BBB0003021269ED13FDEE13FEEFCF
:080F8E0013FFEC13FC021241F9
:100F9600EC4D6011E8497017ED33EC3304600DE455
:100FA600FCFFFEFD22E933E8330470F802125F12FB
:100FB600122A58046009E4CC2481500628500902FC
:100FC6001269284003021266C0E0EB4A7044B980F9
:100FD60006D0E0FB021255EF4E701CBD8008EBFFF9
:100FE600EAFEE9FD80EBE98DF0A4FEE5F002107F54
:100FF600E9CDF9EAFEEBFFEF89F0A4FCE5F0CE8936
:10100600F0A42EFFE435F0CD89F0A42DFEE435F0F2
:101016008067EF4E7005BD80D780C3EF8BF0A4AC20
:10102600F0EE8BF0A42CFCE435F0F8EF8AF0A42C5B
:10103600E5F038FCE433CB8DF0A42CFCE5F03BF86E
:10104600EE8AF0A42CFCE5F038F8E433CF89F0A45E
:101056002CFCE5F038CF3400CE89F0A42FFFE5F064
:101066003EFEE433C98DF0A42EFEE5F039CD8AF0BC
:10107600A42FFFE5F03EFEE43DFD33D0E0FB500734
:101086000BBB000F021269EC2CFCEF33FFEE33FEB4
:06109600ED33FD021241E2
:10109C00021269EC5D046005E85904700302125FEA
:1010AC0012122A580460F6EC4860F2EC7004FDFE53
:1010BC00FF22C860DB2481C85009C3986002500627
:1010CC000212669850CAF582E9294B4A7005AB8228
:1010DC0002125575F0007C1A7880C3EF9BEE9AEDE6
:1010EC0099400DC3EF9BFFEE9AFEED99FDE842F09F
:1010FC00DC23ACF0D0E0FFD0E0FED0E0FDAB8220F2
:10110C00E7101BEB60BAEC2CFCEF33FFEE33FEED7B
:10111C0033FD021241E803F830E705C0F075F0002A
:10112C00EF2FFFEE33FEED33FD40B830E7C280AA5F
:10113C0074F8CC6480CCC86480C8F58204604FC35A
:10114C00EB9FF5F0EA9E42F0E99D42F0E89C45F0F9
:10115C00603C501DE5825FFFE582D313CB5BCBF483
:10116C002B5582FB50280ABA002409B900200880AC
:10117C001DE5825BFBE582D313CF5FCFF4C3132F46
:10118C005582FF50090EBE00050DBD00010CC3EBCE
:10119C009FF5F0EA9E42F0E99D42F0E89C45F06034
:0911AC0007CC4820E701B3EC2256
:1011B50075F020800E75F010800575F0087D007EB5
:1011C500007F003392D530D5031214DFEC33401085
:1011D500EF33FFEE33FEED33FDEC33FCD5F0ED22BE
:0E11E500E5F0247EA2D513CC92E7CDCEFF22FA
:1011F300EDD2E7CD33EC3392D524814006E4FFFEF4
:10120300FDFC22FCE4CFCECDCC24E0501174FF8052
:10121300EDC3CC13CCCD13CDCE13CECF13CF0470EF
:07122300F030D5DE0214DFFC
:10122A00E9D2E7C933E833F892D5EDD2E7CD33EC0A
:07123A0033FC5002B2D52283
:10124100EC30E7100FBF000C0EBE00080DBD00040E
:101251000BEB6014A2D5EB13FCED92E7FD2274FFBA
:10126100FCFDFEFF22E480F8A2D574FF13FC7D8013
:03127100E480EF27
:030000000246B401
:0C46B400787FE4F6D8FD7581070246FB14
:10127400C2D530F707B2D563F0FF05F030E70CB202
:10128400D5F4048463F0FF05F080018430D502F4C2
:02129400042232
:10129600BB010689828A83E0225002E722BBFE0256
:0912A600E32289828A83E4932289
:1012AF00BB010CE58229F582E5833AF583E02250F4
:1012BF0006E92582F8E622BBFE06E92582F8E2223E
:0D12CF00E58229F582E5833AF583E4932258
:1012DC00BB010689828A83F0225002F722BBFE01F1
:0212EC00F322EB
:1012EE00F8BB010DE58229F582E5833AF583E8F036
:1012FE00225006E92582C8F622BBFE05E92582C8E2
:02130E00F222C9
:10131000EF8DF0A4A8F0CF8CF0A428CE8DF0A42EF1
:02132000FE22AB
:10132200BC000BBE0029EF8DF084FFADF022E4CCAF
:10133200F875F008EF2FFFEE33FEEC33FCEE9DEC78
:10134200984005FCEE9DFE0FD5F0E9E4CEFD22EDBE
:10135200F8F5F0EE8420D21CFEADF075F008EF2F08
:10136200FFED33FD4007985006D5F0F222C398FDF9
:051372000FD5F0EA2296
:10137700C2D5EC30E709B2D5E4C39DFDE49CFCEE91
:1013870030E715B2D5E4C39FFFE49EFE121322C3D4
:10139700E49DFDE49CFC800312132230D507C3E4CF
:0613A7009FFFE49EFE2200
:1013AD00C5F0F8A3E028F0C5F0F8E58215827002CB
:0613BD001583E038F02268
:1013C300A3F8E0C5F025F0F0E582158270021583DD
:0613D300E0C838F0E8223A
:1013D900BB0110E58229F582E5833AF583E0F5F052
:1013E900A3E0225009E92582F886F008E622BBFE2F
:1013F9000AE92582F8E2F5F008E222E5832AF58375
:08140900E993F5F0A3E9932239
:1014110075F008758200EF2FFFEE33FECD33CDCC92
:1014210033CCC58233C5829BED9AEC99E582984015
:101431000CF582EE9BFEED9AFDEC99FC0FD5F0D6F2
:10144100E4CEFBE4CDFAE4CCF9A88222B800C1B91C
:101451000059BA002DEC8BF084CFCECDFCE5F0CB5A
:10146100F97818EF2FFFEE33FEED33FDEC33FCEB93
:1014710033FB10D703994004EB99FB0FD8E5E4F94E
:10148100FA227818EF2FFFEE33FEED33FDEC33FC3B
:10149100C933C910D7059BE99A4007EC9BFCE99A2F
:1014A100F90FD8E0E4C9FAE4CCFB2275F010EF2F74
:1014B100FFEE33FEED33FDCC33CCC833C810D70774
:1014C1009BEC9AE899400AED9BFDEC9AFCE899F8AF
:0E14D1000FD5F0DAE4CDFBE4CCFAE4C8F92242
:10570000C2D5E830E70FB2D5E4C39BFBE49AFAE4D4
:1057100099F9E498F8EC30E717B2D512573612141D
:105720004DE4C39BFBE49AFAE499F9E498F880030A
:1057300012144D30D50DE4C39FFFE49EFEE49DFDA1
:04574000E49CFC22C7
:0E14DF00C3E49FFFE49EFEE49DFDE49CFC221E
:1014ED00EB9FF5F0EA9E42F0E99D42F0EC6480C876
:0614FD0064809845F02216
:10150300EB9FF5F0EA9E42F0E99D42F0E89C45F03E
:0115130022B5
:10151400E8600FECC313FCED13FDEE13FEEF13FFB5
:03152400D8F122D9
:10152700BB010789828A830216D95005E9F802169A
:10153700CDBBFE05E9F80216E589828A830216F11A
:0C154700ECF0A3EDF0A3EEF0A3EFF02217
:10155300A8828583F0D083D08212156A12156A128D
:10156300156A12156AE473E493A3C583C5F0C583B2
:10157300C8C582C8F0A3C583C5F0C583C8C582C8E2
:011583002245
:10158400F5F0C582A4C582C5F0C583A42583F5837F
:011594002234
:10159500BB010789828A8302170A5005E9F80217F9
:1015A50001BBFE05E9F802171389828A8302171C1D
:1015B500D083D082F8E4937012740193700DA3A3C5
:1015C50093F8740193F5828883E4737402936860D9
:0615D500EFA3A3A380DFD9
:1015DB00E709F608DFFA8046E709F208DFFA803EF2
:1015EB0088828C83E709F0A3DFFA8032E309F608DF
:1015FB00DFFA8076E309F208DFFA806E88828C834B
:10160B00E309F0A3DFFA806289828A83E0A3F608FC
:10161B00DFFA805689828A83E0A3F208DFFA804AD8
:10162B0080D280FA80C680D4806580F280318010B1
:10163B0080A680EA809A80A880DA80E280CA803116
:10164B0089828A8363A20188828C8363A201E493DB
:10165B00A363A201F0A363A201DFF3DEF1800B8988
:10166B00828A83E493A3F608DFF9ECFAA9F0EDFB89
:10167B002289828A8363A20188828C8363A201E020
:10168B00A363A201F0A363A201DFF4DEF280DB8986
:10169B00828A83E493A3F208DFF980CE88F0EF60AF
:1016AB00010E4E60C588F0ED2402B4040050BBF56A
:1016BB0082EB2402B4040050B123234582239016FD
:0216CB002B737F
:1046C000025177E493A3F8E493A34003F68001F248
:1046D00008DFF48029E493A3F85407240CC8C333FB
:1046E000C4540F4420C8834004F456800146F6DFCA
:1046F000E4800B0102040810204080905DCEE47E2F
:10470000019360BCA3FF543F30E509541FFEE493BE
:10471000A360010ECF54C025E060A840B8E493A385
:10472000FAE493A3F8E493A3C8C582C8CAC583CAB0
:10473000F0A3C8C582C8CAC583CADFE9DEE780BE68
:015DEE0000B4
:0C16CD00E6FC08E6FD08E6FE08E6FF2249
:0C16D900E0FCA3E0FDA3E0FEA3E0FF2284
:0C16E500E2FC08E2FD08E2FE08E2FF2241
:1016F100E493FC740193FD740293FE740393FF223F
:09170100E6FB08E6FA08E6F9220D
:09170A00E0FBA3E0FAA3E0F922E0
:09171300E2FB08E2FA08E2F92207
:0C171C00E493FB740193FA740293F92229
:00000001FF
